{
	"data": {
		"bytecode": {
			"linkReferences": {},
			"object": "6080604052348015600e575f80fd5b506108978061001c5f395ff3fe608060405234801561000f575f80fd5b506004361061003f575f3560e01c80637a36b3ee14610043578063b0c8f9dc14610073578063c15bae84146100a3575b5f80fd5b61005d600480360381019061005891906103f5565b6100c1565b60405161006a91906104cb565b60405180910390f35b61008d600480360381019061008891906104eb565b6100ed565b60405161009a91906104cb565b60405180910390f35b6100ab61021d565b6040516100b891906104cb565b60405180910390f35b606082826040516020016100d692919061056c565b604051602081830303815290604052905092915050565b60606101805f80546100fe906105bc565b80601f016020809104026020016040519081016040528092919081815260200182805461012a906105bc565b80156101755780601f1061014c57610100808354040283529160200191610175565b820191905f5260205f20905b81548152906001019060200180831161015857829003601f168201915b5050505050836100c1565b5f908161018d9190610792565b505f805461019a906105bc565b80601f01602080910402602001604051908101604052809291908181526020018280546101c6906105bc565b80156102115780601f106101e857610100808354040283529160200191610211565b820191905f5260205f20905b8154815290600101906020018083116101f457829003601f168201915b50505050509050919050565b5f8054610229906105bc565b80601f0160208091040260200160405190810160405280929190818152602001828054610255906105bc565b80156102a05780601f10610277576101008083540402835291602001916102a0565b820191905f5260205f20905b81548152906001019060200180831161028357829003601f168201915b505050505081565b5f604051905090565b5f80fd5b5f80fd5b5f80fd5b5f80fd5b5f601f19601f8301169050919050565b7f4e487b71000000000000000000000000000000000000000000000000000000005f52604160045260245ffd5b610307826102c1565b810181811067ffffffffffffffff82111715610326576103256102d1565b5b80604052505050565b5f6103386102a8565b905061034482826102fe565b919050565b5f67ffffffffffffffff821115610363576103626102d1565b5b61036c826102c1565b9050602081019050919050565b828183375f83830152505050565b5f61039961039484610349565b61032f565b9050828152602081018484840111156103b5576103b46102bd565b5b6103c0848285610379565b509392505050565b5f82601f8301126103dc576103db6102b9565b5b81356103ec848260208601610387565b91505092915050565b5f806040838503121561040b5761040a6102b1565b5b5f83013567ffffffffffffffff811115610428576104276102b5565b5b610434858286016103c8565b925050602083013567ffffffffffffffff811115610455576104546102b5565b5b610461858286016103c8565b9150509250929050565b5f81519050919050565b5f82825260208201905092915050565b8281835e5f83830152505050565b5f61049d8261046b565b6104a78185610475565b93506104b7818560208601610485565b6104c0816102c1565b840191505092915050565b5f6020820190508181035f8301526104e38184610493565b905092915050565b5f60208284031215610500576104ff6102b1565b5b5f82013567ffffffffffffffff81111561051d5761051c6102b5565b5b610529848285016103c8565b91505092915050565b5f81905092915050565b5f6105468261046b565b6105508185610532565b9350610560818560208601610485565b80840191505092915050565b5f610577828561053c565b9150610583828461053c565b91508190509392505050565b7f4e487b71000000000000000000000000000000000000000000000000000000005f52602260045260245ffd5b5f60028204905060018216806105d357607f821691505b6020821081036105e6576105e561058f565b5b50919050565b5f819050815f5260205f209050919050565b5f6020601f8301049050919050565b5f82821b905092915050565b5f600883026106487fffffffffffffffffffffffffffffffffffffffffffffffffffffffffffffffff8261060d565b610652868361060d565b95508019841693508086168417925050509392505050565b5f819050919050565b5f819050919050565b5f61069661069161068c8461066a565b610673565b61066a565b9050919050565b5f819050919050565b6106af8361067c565b6106c36106bb8261069d565b848454610619565b825550505050565b5f90565b6106d76106cb565b6106e28184846106a6565b505050565b5b81811015610705576106fa5f826106cf565b6001810190506106e8565b5050565b601f82111561074a5761071b816105ec565b610724846105fe565b81016020851015610733578190505b61074761073f856105fe565b8301826106e7565b50505b505050565b5f82821c905092915050565b5f61076a5f198460080261074f565b1980831691505092915050565b5f610782838361075b565b9150826002028217905092915050565b61079b8261046b565b67ffffffffffffffff8111156107b4576107b36102d1565b5b6107be82546105bc565b6107c9828285610709565b5f60209050601f8311600181146107fa575f84156107e8578287015190505b6107f28582610777565b865550610859565b601f198416610808866105ec565b5f5b8281101561082f5784890151825560018201915060208501945060208101905061080a565b8683101561084c5784890151610848601f89168261075b565b8355505b6001600288020188555050505b50505050505056fea2646970667358221220590f560d6a2bed67f0eb42f5e5f475a362beeb2e2803716c348f702eafd11ce764736f6c63430008190033",
			"opcodes": "PUSH1 0x80 PUSH1 0x40 MSTORE CALLVALUE DUP1 ISZERO PUSH1 0xE JUMPI PUSH0 DUP1 REVERT JUMPDEST POP PUSH2 0x897 DUP1 PUSH2 0x1C PUSH0 CODECOPY PUSH0 RETURN INVALID PUSH1 0x80 PUSH1 0x40 MSTORE CALLVALUE DUP1 ISZERO PUSH2 0xF JUMPI PUSH0 DUP1 REVERT JUMPDEST POP PUSH1 0x4 CALLDATASIZE LT PUSH2 0x3F JUMPI PUSH0 CALLDATALOAD PUSH1 0xE0 SHR DUP1 PUSH4 0x7A36B3EE EQ PUSH2 0x43 JUMPI DUP1 PUSH4 0xB0C8F9DC EQ PUSH2 0x73 JUMPI DUP1 PUSH4 0xC15BAE84 EQ PUSH2 0xA3 JUMPI JUMPDEST PUSH0 DUP1 REVERT JUMPDEST PUSH2 0x5D PUSH1 0x4 DUP1 CALLDATASIZE SUB DUP2 ADD SWAP1 PUSH2 0x58 SWAP2 SWAP1 PUSH2 0x3F5 JUMP JUMPDEST PUSH2 0xC1 JUMP JUMPDEST PUSH1 0x40 MLOAD PUSH2 0x6A SWAP2 SWAP1 PUSH2 0x4CB JUMP JUMPDEST PUSH1 0x40 MLOAD DUP1 SWAP2 SUB SWAP1 RETURN JUMPDEST PUSH2 0x8D PUSH1 0x4 DUP1 CALLDATASIZE SUB DUP2 ADD SWAP1 PUSH2 0x88 SWAP2 SWAP1 PUSH2 0x4EB JUMP JUMPDEST PUSH2 0xED JUMP JUMPDEST PUSH1 0x40 MLOAD PUSH2 0x9A SWAP2 SWAP1 PUSH2 0x4CB JUMP JUMPDEST PUSH1 0x40 MLOAD DUP1 SWAP2 SUB SWAP1 RETURN JUMPDEST PUSH2 0xAB PUSH2 0x21D JUMP JUMPDEST PUSH1 0x40 MLOAD PUSH2 0xB8 SWAP2 SWAP1 PUSH2 0x4CB JUMP JUMPDEST PUSH1 0x40 MLOAD DUP1 SWAP2 SUB SWAP1 RETURN JUMPDEST PUSH1 0x60 DUP3 DUP3 PUSH1 0x40 MLOAD PUSH1 0x20 ADD PUSH2 0xD6 SWAP3 SWAP2 SWAP1 PUSH2 0x56C JUMP JUMPDEST PUSH1 0x40 MLOAD PUSH1 0x20 DUP2 DUP4 SUB SUB DUP2 MSTORE SWAP1 PUSH1 0x40 MSTORE SWAP1 POP SWAP3 SWAP2 POP POP JUMP JUMPDEST PUSH1 0x60 PUSH2 0x180 PUSH0 DUP1 SLOAD PUSH2 0xFE SWAP1 PUSH2 0x5BC JUMP JUMPDEST DUP1 PUSH1 0x1F ADD PUSH1 0x20 DUP1 SWAP2 DIV MUL PUSH1 0x20 ADD PUSH1 0x40 MLOAD SWAP1 DUP2 ADD PUSH1 0x40 MSTORE DUP1 SWAP3 SWAP2 SWAP1 DUP2 DUP2 MSTORE PUSH1 0x20 ADD DUP3 DUP1 SLOAD PUSH2 0x12A SWAP1 PUSH2 0x5BC JUMP JUMPDEST DUP1 ISZERO PUSH2 0x175 JUMPI DUP1 PUSH1 0x1F LT PUSH2 0x14C JUMPI PUSH2 0x100 DUP1 DUP4 SLOAD DIV MUL DUP4 MSTORE SWAP2 PUSH1 0x20 ADD SWAP2 PUSH2 0x175 JUMP JUMPDEST DUP3 ADD SWAP2 SWAP1 PUSH0 MSTORE PUSH1 0x20 PUSH0 KECCAK256 SWAP1 JUMPDEST DUP2 SLOAD DUP2 MSTORE SWAP1 PUSH1 0x1 ADD SWAP1 PUSH1 0x20 ADD DUP1 DUP4 GT PUSH2 0x158 JUMPI DUP3 SWAP1 SUB PUSH1 0x1F AND DUP3 ADD SWAP2 JUMPDEST POP POP POP POP POP DUP4 PUSH2 0xC1 JUMP JUMPDEST PUSH0 SWAP1 DUP2 PUSH2 0x18D SWAP2 SWAP1 PUSH2 0x792 JUMP JUMPDEST POP PUSH0 DUP1 SLOAD PUSH2 0x19A SWAP1 PUSH2 0x5BC JUMP JUMPDEST DUP1 PUSH1 0x1F ADD PUSH1 0x20 DUP1 SWAP2 DIV MUL PUSH1 0x20 ADD PUSH1 0x40 MLOAD SWAP1 DUP2 ADD PUSH1 0x40 MSTORE DUP1 SWAP3 SWAP2 SWAP1 DUP2 DUP2 MSTORE PUSH1 0x20 ADD DUP3 DUP1 SLOAD PUSH2 0x1C6 SWAP1 PUSH2 0x5BC JUMP JUMPDEST DUP1 ISZERO PUSH2 0x211 JUMPI DUP1 PUSH1 0x1F LT PUSH2 0x1E8 JUMPI PUSH2 0x100 DUP1 DUP4 SLOAD DIV MUL DUP4 MSTORE SWAP2 PUSH1 0x20 ADD SWAP2 PUSH2 0x211 JUMP JUMPDEST DUP3 ADD SWAP2 SWAP1 PUSH0 MSTORE PUSH1 0x20 PUSH0 KECCAK256 SWAP1 JUMPDEST DUP2 SLOAD DUP2 MSTORE SWAP1 PUSH1 0x1 ADD SWAP1 PUSH1 0x20 ADD DUP1 DUP4 GT PUSH2 0x1F4 JUMPI DUP3 SWAP1 SUB PUSH1 0x1F AND DUP3 ADD SWAP2 JUMPDEST POP POP POP POP POP SWAP1 POP SWAP2 SWAP1 POP JUMP JUMPDEST PUSH0 DUP1 SLOAD PUSH2 0x229 SWAP1 PUSH2 0x5BC JUMP JUMPDEST DUP1 PUSH1 0x1F ADD PUSH1 0x20 DUP1 SWAP2 DIV MUL PUSH1 0x20 ADD PUSH1 0x40 MLOAD SWAP1 DUP2 ADD PUSH1 0x40 MSTORE DUP1 SWAP3 SWAP2 SWAP1 DUP2 DUP2 MSTORE PUSH1 0x20 ADD DUP3 DUP1 SLOAD PUSH2 0x255 SWAP1 PUSH2 0x5BC JUMP JUMPDEST DUP1 ISZERO PUSH2 0x2A0 JUMPI DUP1 PUSH1 0x1F LT PUSH2 0x277 JUMPI PUSH2 0x100 DUP1 DUP4 SLOAD DIV MUL DUP4 MSTORE SWAP2 PUSH1 0x20 ADD SWAP2 PUSH2 0x2A0 JUMP JUMPDEST DUP3 ADD SWAP2 SWAP1 PUSH0 MSTORE PUSH1 0x20 PUSH0 KECCAK256 SWAP1 JUMPDEST DUP2 SLOAD DUP2 MSTORE SWAP1 PUSH1 0x1 ADD SWAP1 PUSH1 0x20 ADD DUP1 DUP4 GT PUSH2 0x283 JUMPI DUP3 SWAP1 SUB PUSH1 0x1F AND DUP3 ADD SWAP2 JUMPDEST POP POP POP POP POP DUP2 JUMP JUMPDEST PUSH0 PUSH1 0x40 MLOAD SWAP1 POP SWAP1 JUMP JUMPDEST PUSH0 DUP1 REVERT JUMPDEST PUSH0 DUP1 REVERT JUMPDEST PUSH0 DUP1 REVERT JUMPDEST PUSH0 DUP1 REVERT JUMPDEST PUSH0 PUSH1 0x1F NOT PUSH1 0x1F DUP4 ADD AND SWAP1 POP SWAP2 SWAP1 POP JUMP JUMPDEST PUSH32 0x4E487B7100000000000000000000000000000000000000000000000000000000 PUSH0 MSTORE PUSH1 0x41 PUSH1 0x4 MSTORE PUSH1 0x24 PUSH0 REVERT JUMPDEST PUSH2 0x307 DUP3 PUSH2 0x2C1 JUMP JUMPDEST DUP2 ADD DUP2 DUP2 LT PUSH8 0xFFFFFFFFFFFFFFFF DUP3 GT OR ISZERO PUSH2 0x326 JUMPI PUSH2 0x325 PUSH2 0x2D1 JUMP JUMPDEST JUMPDEST DUP1 PUSH1 0x40 MSTORE POP POP POP JUMP JUMPDEST PUSH0 PUSH2 0x338 PUSH2 0x2A8 JUMP JUMPDEST SWAP1 POP PUSH2 0x344 DUP3 DUP3 PUSH2 0x2FE JUMP JUMPDEST SWAP2 SWAP1 POP JUMP JUMPDEST PUSH0 PUSH8 0xFFFFFFFFFFFFFFFF DUP3 GT ISZERO PUSH2 0x363 JUMPI PUSH2 0x362 PUSH2 0x2D1 JUMP JUMPDEST JUMPDEST PUSH2 0x36C DUP3 PUSH2 0x2C1 JUMP JUMPDEST SWAP1 POP PUSH1 0x20 DUP2 ADD SWAP1 POP SWAP2 SWAP1 POP JUMP JUMPDEST DUP3 DUP2 DUP4 CALLDATACOPY PUSH0 DUP4 DUP4 ADD MSTORE POP POP POP JUMP JUMPDEST PUSH0 PUSH2 0x399 PUSH2 0x394 DUP5 PUSH2 0x349 JUMP JUMPDEST PUSH2 0x32F JUMP JUMPDEST SWAP1 POP DUP3 DUP2 MSTORE PUSH1 0x20 DUP2 ADD DUP5 DUP5 DUP5 ADD GT ISZERO PUSH2 0x3B5 JUMPI PUSH2 0x3B4 PUSH2 0x2BD JUMP JUMPDEST JUMPDEST PUSH2 0x3C0 DUP5 DUP3 DUP6 PUSH2 0x379 JUMP JUMPDEST POP SWAP4 SWAP3 POP POP POP JUMP JUMPDEST PUSH0 DUP3 PUSH1 0x1F DUP4 ADD SLT PUSH2 0x3DC JUMPI PUSH2 0x3DB PUSH2 0x2B9 JUMP JUMPDEST JUMPDEST DUP2 CALLDATALOAD PUSH2 0x3EC DUP5 DUP3 PUSH1 0x20 DUP7 ADD PUSH2 0x387 JUMP JUMPDEST SWAP2 POP POP SWAP3 SWAP2 POP POP JUMP JUMPDEST PUSH0 DUP1 PUSH1 0x40 DUP4 DUP6 SUB SLT ISZERO PUSH2 0x40B JUMPI PUSH2 0x40A PUSH2 0x2B1 JUMP JUMPDEST JUMPDEST PUSH0 DUP4 ADD CALLDATALOAD PUSH8 0xFFFFFFFFFFFFFFFF DUP2 GT ISZERO PUSH2 0x428 JUMPI PUSH2 0x427 PUSH2 0x2B5 JUMP JUMPDEST JUMPDEST PUSH2 0x434 DUP6 DUP3 DUP7 ADD PUSH2 0x3C8 JUMP JUMPDEST SWAP3 POP POP PUSH1 0x20 DUP4 ADD CALLDATALOAD PUSH8 0xFFFFFFFFFFFFFFFF DUP2 GT ISZERO PUSH2 0x455 JUMPI PUSH2 0x454 PUSH2 0x2B5 JUMP JUMPDEST JUMPDEST PUSH2 0x461 DUP6 DUP3 DUP7 ADD PUSH2 0x3C8 JUMP JUMPDEST SWAP2 POP POP SWAP3 POP SWAP3 SWAP1 POP JUMP JUMPDEST PUSH0 DUP2 MLOAD SWAP1 POP SWAP2 SWAP1 POP JUMP JUMPDEST PUSH0 DUP3 DUP3 MSTORE PUSH1 0x20 DUP3 ADD SWAP1 POP SWAP3 SWAP2 POP POP JUMP JUMPDEST DUP3 DUP2 DUP4 MCOPY PUSH0 DUP4 DUP4 ADD MSTORE POP POP POP JUMP JUMPDEST PUSH0 PUSH2 0x49D DUP3 PUSH2 0x46B JUMP JUMPDEST PUSH2 0x4A7 DUP2 DUP6 PUSH2 0x475 JUMP JUMPDEST SWAP4 POP PUSH2 0x4B7 DUP2 DUP6 PUSH1 0x20 DUP7 ADD PUSH2 0x485 JUMP JUMPDEST PUSH2 0x4C0 DUP2 PUSH2 0x2C1 JUMP JUMPDEST DUP5 ADD SWAP2 POP POP SWAP3 SWAP2 POP POP JUMP JUMPDEST PUSH0 PUSH1 0x20 DUP3 ADD SWAP1 POP DUP2 DUP2 SUB PUSH0 DUP4 ADD MSTORE PUSH2 0x4E3 DUP2 DUP5 PUSH2 0x493 JUMP JUMPDEST SWAP1 POP SWAP3 SWAP2 POP POP JUMP JUMPDEST PUSH0 PUSH1 0x20 DUP3 DUP5 SUB SLT ISZERO PUSH2 0x500 JUMPI PUSH2 0x4FF PUSH2 0x2B1 JUMP JUMPDEST JUMPDEST PUSH0 DUP3 ADD CALLDATALOAD PUSH8 0xFFFFFFFFFFFFFFFF DUP2 GT ISZERO PUSH2 0x51D JUMPI PUSH2 0x51C PUSH2 0x2B5 JUMP JUMPDEST JUMPDEST PUSH2 0x529 DUP5 DUP3 DUP6 ADD PUSH2 0x3C8 JUMP JUMPDEST SWAP2 POP POP SWAP3 SWAP2 POP POP JUMP JUMPDEST PUSH0 DUP2 SWAP1 POP SWAP3 SWAP2 POP POP JUMP JUMPDEST PUSH0 PUSH2 0x546 DUP3 PUSH2 0x46B JUMP JUMPDEST PUSH2 0x550 DUP2 DUP6 PUSH2 0x532 JUMP JUMPDEST SWAP4 POP PUSH2 0x560 DUP2 DUP6 PUSH1 0x20 DUP7 ADD PUSH2 0x485 JUMP JUMPDEST DUP1 DUP5 ADD SWAP2 POP POP SWAP3 SWAP2 POP POP JUMP JUMPDEST PUSH0 PUSH2 0x577 DUP3 DUP6 PUSH2 0x53C JUMP JUMPDEST SWAP2 POP PUSH2 0x583 DUP3 DUP5 PUSH2 0x53C JUMP JUMPDEST SWAP2 POP DUP2 SWAP1 POP SWAP4 SWAP3 POP POP POP JUMP JUMPDEST PUSH32 0x4E487B7100000000000000000000000000000000000000000000000000000000 PUSH0 MSTORE PUSH1 0x22 PUSH1 0x4 MSTORE PUSH1 0x24 PUSH0 REVERT JUMPDEST PUSH0 PUSH1 0x2 DUP3 DIV SWAP1 POP PUSH1 0x1 DUP3 AND DUP1 PUSH2 0x5D3 JUMPI PUSH1 0x7F DUP3 AND SWAP2 POP JUMPDEST PUSH1 0x20 DUP3 LT DUP2 SUB PUSH2 0x5E6 JUMPI PUSH2 0x5E5 PUSH2 0x58F JUMP JUMPDEST JUMPDEST POP SWAP2 SWAP1 POP JUMP JUMPDEST PUSH0 DUP2 SWAP1 POP DUP2 PUSH0 MSTORE PUSH1 0x20 PUSH0 KECCAK256 SWAP1 POP SWAP2 SWAP1 POP JUMP JUMPDEST PUSH0 PUSH1 0x20 PUSH1 0x1F DUP4 ADD DIV SWAP1 POP SWAP2 SWAP1 POP JUMP JUMPDEST PUSH0 DUP3 DUP3 SHL SWAP1 POP SWAP3 SWAP2 POP POP JUMP JUMPDEST PUSH0 PUSH1 0x8 DUP4 MUL PUSH2 0x648 PUSH32 0xFFFFFFFFFFFFFFFFFFFFFFFFFFFFFFFFFFFFFFFFFFFFFFFFFFFFFFFFFFFFFFFF DUP3 PUSH2 0x60D JUMP JUMPDEST PUSH2 0x652 DUP7 DUP4 PUSH2 0x60D JUMP JUMPDEST SWAP6 POP DUP1 NOT DUP5 AND SWAP4 POP DUP1 DUP7 AND DUP5 OR SWAP3 POP POP POP SWAP4 SWAP3 POP POP POP JUMP JUMPDEST PUSH0 DUP2 SWAP1 POP SWAP2 SWAP1 POP JUMP JUMPDEST PUSH0 DUP2 SWAP1 POP SWAP2 SWAP1 POP JUMP JUMPDEST PUSH0 PUSH2 0x696 PUSH2 0x691 PUSH2 0x68C DUP5 PUSH2 0x66A JUMP JUMPDEST PUSH2 0x673 JUMP JUMPDEST PUSH2 0x66A JUMP JUMPDEST SWAP1 POP SWAP2 SWAP1 POP JUMP JUMPDEST PUSH0 DUP2 SWAP1 POP SWAP2 SWAP1 POP JUMP JUMPDEST PUSH2 0x6AF DUP4 PUSH2 0x67C JUMP JUMPDEST PUSH2 0x6C3 PUSH2 0x6BB DUP3 PUSH2 0x69D JUMP JUMPDEST DUP5 DUP5 SLOAD PUSH2 0x619 JUMP JUMPDEST DUP3 SSTORE POP POP POP POP JUMP JUMPDEST PUSH0 SWAP1 JUMP JUMPDEST PUSH2 0x6D7 PUSH2 0x6CB JUMP JUMPDEST PUSH2 0x6E2 DUP2 DUP5 DUP5 PUSH2 0x6A6 JUMP JUMPDEST POP POP POP JUMP JUMPDEST JUMPDEST DUP2 DUP2 LT ISZERO PUSH2 0x705 JUMPI PUSH2 0x6FA PUSH0 DUP3 PUSH2 0x6CF JUMP JUMPDEST PUSH1 0x1 DUP2 ADD SWAP1 POP PUSH2 0x6E8 JUMP JUMPDEST POP POP JUMP JUMPDEST PUSH1 0x1F DUP3 GT ISZERO PUSH2 0x74A JUMPI PUSH2 0x71B DUP2 PUSH2 0x5EC JUMP JUMPDEST PUSH2 0x724 DUP5 PUSH2 0x5FE JUMP JUMPDEST DUP2 ADD PUSH1 0x20 DUP6 LT ISZERO PUSH2 0x733 JUMPI DUP2 SWAP1 POP JUMPDEST PUSH2 0x747 PUSH2 0x73F DUP6 PUSH2 0x5FE JUMP JUMPDEST DUP4 ADD DUP3 PUSH2 0x6E7 JUMP JUMPDEST POP POP JUMPDEST POP POP POP JUMP JUMPDEST PUSH0 DUP3 DUP3 SHR SWAP1 POP SWAP3 SWAP2 POP POP JUMP JUMPDEST PUSH0 PUSH2 0x76A PUSH0 NOT DUP5 PUSH1 0x8 MUL PUSH2 0x74F JUMP JUMPDEST NOT DUP1 DUP4 AND SWAP2 POP POP SWAP3 SWAP2 POP POP JUMP JUMPDEST PUSH0 PUSH2 0x782 DUP4 DUP4 PUSH2 0x75B JUMP JUMPDEST SWAP2 POP DUP3 PUSH1 0x2 MUL DUP3 OR SWAP1 POP SWAP3 SWAP2 POP POP JUMP JUMPDEST PUSH2 0x79B DUP3 PUSH2 0x46B JUMP JUMPDEST PUSH8 0xFFFFFFFFFFFFFFFF DUP2 GT ISZERO PUSH2 0x7B4 JUMPI PUSH2 0x7B3 PUSH2 0x2D1 JUMP JUMPDEST JUMPDEST PUSH2 0x7BE DUP3 SLOAD PUSH2 0x5BC JUMP JUMPDEST PUSH2 0x7C9 DUP3 DUP3 DUP6 PUSH2 0x709 JUMP JUMPDEST PUSH0 PUSH1 0x20 SWAP1 POP PUSH1 0x1F DUP4 GT PUSH1 0x1 DUP2 EQ PUSH2 0x7FA JUMPI PUSH0 DUP5 ISZERO PUSH2 0x7E8 JUMPI DUP3 DUP8 ADD MLOAD SWAP1 POP JUMPDEST PUSH2 0x7F2 DUP6 DUP3 PUSH2 0x777 JUMP JUMPDEST DUP7 SSTORE POP PUSH2 0x859 JUMP JUMPDEST PUSH1 0x1F NOT DUP5 AND PUSH2 0x808 DUP7 PUSH2 0x5EC JUMP JUMPDEST PUSH0 JUMPDEST DUP3 DUP2 LT ISZERO PUSH2 0x82F JUMPI DUP5 DUP10 ADD MLOAD DUP3 SSTORE PUSH1 0x1 DUP3 ADD SWAP2 POP PUSH1 0x20 DUP6 ADD SWAP5 POP PUSH1 0x20 DUP2 ADD SWAP1 POP PUSH2 0x80A JUMP JUMPDEST DUP7 DUP4 LT ISZERO PUSH2 0x84C JUMPI DUP5 DUP10 ADD MLOAD PUSH2 0x848 PUSH1 0x1F DUP10 AND DUP3 PUSH2 0x75B JUMP JUMPDEST DUP4 SSTORE POP JUMPDEST PUSH1 0x1 PUSH1 0x2 DUP9 MUL ADD DUP9 SSTORE POP POP POP JUMPDEST POP POP POP POP POP POP JUMP INVALID LOG2 PUSH5 0x6970667358 0x22 SLT KECCAK256 MSIZE 0xF JUMP 0xD PUSH11 0x2BED67F0EB42F5E5F475A3 PUSH3 0xBEEB2E 0x28 SUB PUSH18 0x6C348F702EAFD11CE764736F6C6343000819 STOP CALLER "
		},
		"gasEstimates": {
			"creation": {
				"codeDepositCost": "439800",
				"executionCost": "472",
				"totalCost": "440272"
			},
			"external": {
				"add(string)": "infinite",
				"concatenateStrings(string,string)": "infinite",
				"str()": "infinite"
			}
		},
		"methodIdentifiers": {
			"add(string)": "b0c8f9dc",
			"concatenateStrings(string,string)": "7a36b3ee",
			"str()": "c15bae84"
		}
	},
	"abi": [
		{
			"inputs": [],
			"stateMutability": "nonpayable",
			"type": "constructor"
		},
		{
			"inputs": [
				{
					"internalType": "string",
					"name": "ss",
					"type": "string"
				}
			],
			"name": "add",
			"outputs": [
				{
					"internalType": "string",
					"name": "rs",
					"type": "string"
				}
			],
			"stateMutability": "nonpayable",
			"type": "function"
		},
		{
			"inputs": [
				{
					"internalType": "string",
					"name": "a",
					"type": "string"
				},
				{
					"internalType": "string",
					"name": "b",
					"type": "string"
				}
			],
			"name": "concatenateStrings",
			"outputs": [
				{
					"internalType": "string",
					"name": "",
					"type": "string"
				}
			],
			"stateMutability": "pure",
			"type": "function"
		},
		{
			"inputs": [],
			"name": "str",
			"outputs": [
				{
					"internalType": "string",
					"name": "",
					"type": "string"
				}
			],
			"stateMutability": "view",
			"type": "function"
		}
	]
}