{
	"src/Vault.sol": {
		"Vault": {
			"abi": [
				{
					"inputs": [],
					"stateMutability": "nonpayable",
					"type": "constructor"
				},
				{
					"inputs": [
						{
							"internalType": "address",
							"name": "target",
							"type": "address"
						}
					],
					"name": "AddressEmptyCode",
					"type": "error"
				},
				{
					"inputs": [
						{
							"internalType": "address",
							"name": "account",
							"type": "address"
						}
					],
					"name": "AddressInsufficientBalance",
					"type": "error"
				},
				{
					"inputs": [],
					"name": "FailedInnerCall",
					"type": "error"
				},
				{
					"inputs": [
						{
							"internalType": "address",
							"name": "token",
							"type": "address"
						}
					],
					"name": "SafeERC20FailedOperation",
					"type": "error"
				},
				{
					"inputs": [],
					"name": "Vault__AmountShouldNotLessThanZero",
					"type": "error"
				},
				{
					"inputs": [],
					"name": "Vault__BalanceNotEnough",
					"type": "error"
				},
				{
					"inputs": [],
					"name": "Vault__DepositError",
					"type": "error"
				},
				{
					"inputs": [],
					"name": "Vault__WithdrawError",
					"type": "error"
				},
				{
					"inputs": [
						{
							"internalType": "address",
							"name": "token",
							"type": "address"
						}
					],
					"name": "balanceOf",
					"outputs": [
						{
							"internalType": "uint256",
							"name": "amount",
							"type": "uint256"
						}
					],
					"stateMutability": "view",
					"type": "function"
				},
				{
					"inputs": [
						{
							"internalType": "address",
							"name": "token",
							"type": "address"
						},
						{
							"internalType": "address",
							"name": "",
							"type": "address"
						}
					],
					"name": "balances",
					"outputs": [
						{
							"internalType": "uint256",
							"name": "",
							"type": "uint256"
						}
					],
					"stateMutability": "view",
					"type": "function"
				},
				{
					"inputs": [
						{
							"internalType": "address",
							"name": "token",
							"type": "address"
						},
						{
							"internalType": "uint256",
							"name": "amount",
							"type": "uint256"
						}
					],
					"name": "deposit",
					"outputs": [
						{
							"internalType": "bool",
							"name": "success",
							"type": "bool"
						}
					],
					"stateMutability": "nonpayable",
					"type": "function"
				},
				{
					"inputs": [
						{
							"internalType": "address",
							"name": "token",
							"type": "address"
						},
						{
							"internalType": "uint256",
							"name": "amount",
							"type": "uint256"
						},
						{
							"internalType": "uint256",
							"name": "deadline",
							"type": "uint256"
						},
						{
							"internalType": "uint8",
							"name": "v",
							"type": "uint8"
						},
						{
							"internalType": "bytes32",
							"name": "r",
							"type": "bytes32"
						},
						{
							"internalType": "bytes32",
							"name": "s",
							"type": "bytes32"
						}
					],
					"name": "depositPermit",
					"outputs": [
						{
							"internalType": "bool",
							"name": "success",
							"type": "bool"
						}
					],
					"stateMutability": "nonpayable",
					"type": "function"
				},
				{
					"inputs": [
						{
							"internalType": "address",
							"name": "from",
							"type": "address"
						},
						{
							"internalType": "uint256",
							"name": "amount",
							"type": "uint256"
						}
					],
					"name": "tokensReceived",
					"outputs": [
						{
							"internalType": "bool",
							"name": "success",
							"type": "bool"
						}
					],
					"stateMutability": "nonpayable",
					"type": "function"
				},
				{
					"inputs": [
						{
							"internalType": "address",
							"name": "token",
							"type": "address"
						},
						{
							"internalType": "uint256",
							"name": "amount",
							"type": "uint256"
						}
					],
					"name": "withdraw",
					"outputs": [
						{
							"internalType": "bool",
							"name": "success",
							"type": "bool"
						}
					],
					"stateMutability": "nonpayable",
					"type": "function"
				}
			],
			"devdoc": {
				"errors": {
					"AddressEmptyCode(address)": [
						{
							"details": "There's no code at `target` (it is not a contract)."
						}
					],
					"AddressInsufficientBalance(address)": [
						{
							"details": "The ETH balance of the account is not enough to perform the operation."
						}
					],
					"FailedInnerCall()": [
						{
							"details": "A call to an address target failed. The target may have reverted."
						}
					],
					"SafeERC20FailedOperation(address)": [
						{
							"details": "An operation with an ERC20 token failed."
						}
					]
				},
				"kind": "dev",
				"methods": {},
				"version": 1
			},
			"evm": {
				"assembly": "    /* \"src/Vault.sol\":365:2838  contract Vault is ERC20Received{... */\n  mstore(0x40, 0x80)\n    /* \"src/Vault.sol\":789:811  constructor() {... */\n  callvalue\n  dup1\n  iszero\n  tag_1\n  jumpi\n  0x00\n  dup1\n  revert\ntag_1:\n  pop\n    /* \"src/Vault.sol\":365:2838  contract Vault is ERC20Received{... */\n  dataSize(sub_0)\n  dup1\n  dataOffset(sub_0)\n  0x00\n  codecopy\n  0x00\n  return\nstop\n\nsub_0: assembly {\n        /* \"src/Vault.sol\":365:2838  contract Vault is ERC20Received{... */\n      mstore(0x40, 0x80)\n      callvalue\n      dup1\n      iszero\n      tag_1\n      jumpi\n      0x00\n      dup1\n      revert\n    tag_1:\n      pop\n      jumpi(tag_2, lt(calldatasize, 0x04))\n      shr(0xe0, calldataload(0x00))\n      dup1\n      0x24a756d1\n      eq\n      tag_3\n      jumpi\n      dup1\n      0x47e7ef24\n      eq\n      tag_4\n      jumpi\n      dup1\n      0x6b9d159d\n      eq\n      tag_5\n      jumpi\n      dup1\n      0x70a08231\n      eq\n      tag_6\n      jumpi\n      dup1\n      0xc23f001f\n      eq\n      tag_7\n      jumpi\n      dup1\n      0xf3fef3a3\n      eq\n      tag_8\n      jumpi\n    tag_2:\n      0x00\n      dup1\n      revert\n        /* \"src/Vault.sol\":1458:1695  function tokensReceived(address from, uint256 amount) external returns (bool success) {... */\n    tag_3:\n      tag_9\n      0x04\n      dup1\n      calldatasize\n      sub\n      dup2\n      add\n      swap1\n      tag_10\n      swap2\n      swap1\n      tag_11\n      jump\t// in\n    tag_10:\n      tag_12\n      jump\t// in\n    tag_9:\n      mload(0x40)\n      tag_13\n      swap2\n      swap1\n      tag_14\n      jump\t// in\n    tag_13:\n      mload(0x40)\n      dup1\n      swap2\n      sub\n      swap1\n      return\n        /* \"src/Vault.sol\":909:1246  function deposit(address token, uint256 amount) ... */\n    tag_4:\n      tag_15\n      0x04\n      dup1\n      calldatasize\n      sub\n      dup2\n      add\n      swap1\n      tag_16\n      swap2\n      swap1\n      tag_11\n      jump\t// in\n    tag_16:\n      tag_17\n      jump\t// in\n    tag_15:\n      mload(0x40)\n      tag_18\n      swap2\n      swap1\n      tag_14\n      jump\t// in\n    tag_18:\n      mload(0x40)\n      dup1\n      swap2\n      sub\n      swap1\n      return\n        /* \"src/Vault.sol\":1747:2330  function depositPermit(... */\n    tag_5:\n      tag_19\n      0x04\n      dup1\n      calldatasize\n      sub\n      dup2\n      add\n      swap1\n      tag_20\n      swap2\n      swap1\n      tag_21\n      jump\t// in\n    tag_20:\n      tag_22\n      jump\t// in\n    tag_19:\n      mload(0x40)\n      tag_23\n      swap2\n      swap1\n      tag_14\n      jump\t// in\n    tag_23:\n      mload(0x40)\n      dup1\n      swap2\n      sub\n      swap1\n      return\n        /* \"src/Vault.sol\":2711:2835  function balanceOf(address token) external view returns (uint256 amount) {... */\n    tag_6:\n      tag_24\n      0x04\n      dup1\n      calldatasize\n      sub\n      dup2\n      add\n      swap1\n      tag_25\n      swap2\n      swap1\n      tag_26\n      jump\t// in\n    tag_25:\n      tag_27\n      jump\t// in\n    tag_24:\n      mload(0x40)\n      tag_28\n      swap2\n      swap1\n      tag_29\n      jump\t// in\n    tag_28:\n      mload(0x40)\n      dup1\n      swap2\n      sub\n      swap1\n      return\n        /* \"src/Vault.sol\":555:624  mapping(address token => mapping(address => uint256)) public balances */\n    tag_7:\n      tag_30\n      0x04\n      dup1\n      calldatasize\n      sub\n      dup2\n      add\n      swap1\n      tag_31\n      swap2\n      swap1\n      tag_32\n      jump\t// in\n    tag_31:\n      tag_33\n      jump\t// in\n    tag_30:\n      mload(0x40)\n      tag_34\n      swap2\n      swap1\n      tag_29\n      jump\t// in\n    tag_34:\n      mload(0x40)\n      dup1\n      swap2\n      sub\n      swap1\n      return\n        /* \"src/Vault.sol\":2337:2705  function withdraw(address token, uint256 amount) external amountCheck(amount) returns (bool success) {... */\n    tag_8:\n      tag_35\n      0x04\n      dup1\n      calldatasize\n      sub\n      dup2\n      add\n      swap1\n      tag_36\n      swap2\n      swap1\n      tag_11\n      jump\t// in\n    tag_36:\n      tag_37\n      jump\t// in\n    tag_35:\n      mload(0x40)\n      tag_38\n      swap2\n      swap1\n      tag_14\n      jump\t// in\n    tag_38:\n      mload(0x40)\n      dup1\n      swap2\n      sub\n      swap1\n      return\n        /* \"src/Vault.sol\":1458:1695  function tokensReceived(address from, uint256 amount) external returns (bool success) {... */\n    tag_12:\n        /* \"src/Vault.sol\":1530:1542  bool success */\n      0x00\n        /* \"src/Vault.sol\":1661:1667  amount */\n      dup2\n        /* \"src/Vault.sol\":1631:1639  balances */\n      0x00\n        /* \"src/Vault.sol\":1631:1651  balances[msg.sender] */\n      dup1\n        /* \"src/Vault.sol\":1640:1650  msg.sender */\n      caller\n        /* \"src/Vault.sol\":1631:1651  balances[msg.sender] */\n      0xffffffffffffffffffffffffffffffffffffffff\n      and\n      0xffffffffffffffffffffffffffffffffffffffff\n      and\n      dup2\n      mstore\n      0x20\n      add\n      swap1\n      dup2\n      mstore\n      0x20\n      add\n      0x00\n      keccak256\n        /* \"src/Vault.sol\":1631:1657  balances[msg.sender][from] */\n      0x00\n        /* \"src/Vault.sol\":1652:1656  from */\n      dup6\n        /* \"src/Vault.sol\":1631:1657  balances[msg.sender][from] */\n      0xffffffffffffffffffffffffffffffffffffffff\n      and\n      0xffffffffffffffffffffffffffffffffffffffff\n      and\n      dup2\n      mstore\n      0x20\n      add\n      swap1\n      dup2\n      mstore\n      0x20\n      add\n      0x00\n      keccak256\n      0x00\n        /* \"src/Vault.sol\":1631:1667  balances[msg.sender][from] += amount */\n      dup3\n      dup3\n      sload\n      tag_40\n      swap2\n      swap1\n      tag_41\n      jump\t// in\n    tag_40:\n      swap3\n      pop\n      pop\n      dup2\n      swap1\n      sstore\n      pop\n        /* \"src/Vault.sol\":1684:1688  true */\n      0x01\n        /* \"src/Vault.sol\":1677:1688  return true */\n      swap1\n      pop\n        /* \"src/Vault.sol\":1458:1695  function tokensReceived(address from, uint256 amount) external returns (bool success) {... */\n      swap3\n      swap2\n      pop\n      pop\n      jump\t// out\n        /* \"src/Vault.sol\":909:1246  function deposit(address token, uint256 amount) ... */\n    tag_17:\n        /* \"src/Vault.sol\":1002:1014  bool success */\n      0x00\n        /* \"src/Vault.sol\":985:991  amount */\n      dup2\n        /* \"src/Vault.sol\":693:694  0 */\n      0x00\n        /* \"src/Vault.sol\":683:689  amount */\n      dup2\n        /* \"src/Vault.sol\":683:694  amount <= 0 */\n      gt\n        /* \"src/Vault.sol\":678:764  if ( amount <= 0) {... */\n      tag_43\n      jumpi\n        /* \"src/Vault.sol\":717:753  Vault__AmountShouldNotLessThanZero() */\n      mload(0x40)\n      0x7d12343e00000000000000000000000000000000000000000000000000000000\n      dup2\n      mstore\n      0x04\n      add\n      mload(0x40)\n      dup1\n      swap2\n      sub\n      swap1\n      revert\n        /* \"src/Vault.sol\":678:764  if ( amount <= 0) {... */\n    tag_43:\n        /* \"src/Vault.sol\":1098:1171  SafeERC20.safeTransferFrom(IERC20(token),msg.sender,address(this),amount) */\n      tag_45\n        /* \"src/Vault.sol\":1132:1137  token */\n      dup5\n        /* \"src/Vault.sol\":1139:1149  msg.sender */\n      caller\n        /* \"src/Vault.sol\":1158:1162  this */\n      address\n        /* \"src/Vault.sol\":1164:1170  amount */\n      dup7\n        /* \"src/Vault.sol\":1098:1124  SafeERC20.safeTransferFrom */\n      tag_46\n        /* \"src/Vault.sol\":1098:1171  SafeERC20.safeTransferFrom(IERC20(token),msg.sender,address(this),amount) */\n      jump\t// in\n    tag_45:\n        /* \"src/Vault.sol\":1212:1218  amount */\n      dup3\n        /* \"src/Vault.sol\":1181:1189  balances */\n      0x00\n        /* \"src/Vault.sol\":1181:1196  balances[token] */\n      dup1\n        /* \"src/Vault.sol\":1190:1195  token */\n      dup7\n        /* \"src/Vault.sol\":1181:1196  balances[token] */\n      0xffffffffffffffffffffffffffffffffffffffff\n      and\n      0xffffffffffffffffffffffffffffffffffffffff\n      and\n      dup2\n      mstore\n      0x20\n      add\n      swap1\n      dup2\n      mstore\n      0x20\n      add\n      0x00\n      keccak256\n        /* \"src/Vault.sol\":1181:1208  balances[token][msg.sender] */\n      0x00\n        /* \"src/Vault.sol\":1197:1207  msg.sender */\n      caller\n        /* \"src/Vault.sol\":1181:1208  balances[token][msg.sender] */\n      0xffffffffffffffffffffffffffffffffffffffff\n      and\n      0xffffffffffffffffffffffffffffffffffffffff\n      and\n      dup2\n      mstore\n      0x20\n      add\n      swap1\n      dup2\n      mstore\n      0x20\n      add\n      0x00\n      keccak256\n      0x00\n        /* \"src/Vault.sol\":1181:1218  balances[token][msg.sender] += amount */\n      dup3\n      dup3\n      sload\n      tag_47\n      swap2\n      swap1\n      tag_41\n      jump\t// in\n    tag_47:\n      swap3\n      pop\n      pop\n      dup2\n      swap1\n      sstore\n      pop\n        /* \"src/Vault.sol\":1235:1239  true */\n      0x01\n        /* \"src/Vault.sol\":1228:1239  return true */\n      swap2\n      pop\n        /* \"src/Vault.sol\":909:1246  function deposit(address token, uint256 amount) ... */\n      pop\n      swap3\n      swap2\n      pop\n      pop\n      jump\t// out\n        /* \"src/Vault.sol\":1747:2330  function depositPermit(... */\n    tag_22:\n        /* \"src/Vault.sol\":1922:1934  bool success */\n      0x00\n        /* \"src/Vault.sol\":1958:1963  token */\n      dup7\n        /* \"src/Vault.sol\":1945:1971  IERC20Permit(token).permit */\n      0xffffffffffffffffffffffffffffffffffffffff\n      and\n      0xd505accf\n        /* \"src/Vault.sol\":1985:1995  msg.sender */\n      caller\n        /* \"src/Vault.sol\":2017:2021  this */\n      address\n        /* \"src/Vault.sol\":2036:2042  amount */\n      dup10\n        /* \"src/Vault.sol\":2056:2064  deadline */\n      dup10\n        /* \"src/Vault.sol\":2078:2079  v */\n      dup10\n        /* \"src/Vault.sol\":2093:2094  r */\n      dup10\n        /* \"src/Vault.sol\":2108:2109  s */\n      dup10\n        /* \"src/Vault.sol\":1945:2119  IERC20Permit(token).permit(... */\n      mload(0x40)\n      dup9\n      0xffffffff\n      and\n      0xe0\n      shl\n      dup2\n      mstore\n      0x04\n      add\n      tag_49\n      swap8\n      swap7\n      swap6\n      swap5\n      swap4\n      swap3\n      swap2\n      swap1\n      tag_50\n      jump\t// in\n    tag_49:\n      0x00\n      mload(0x40)\n      dup1\n      dup4\n      sub\n      dup2\n      0x00\n      dup8\n      dup1\n      extcodesize\n      iszero\n      dup1\n      iszero\n      tag_51\n      jumpi\n      0x00\n      dup1\n      revert\n    tag_51:\n      pop\n      gas\n      call\n      iszero\n      dup1\n      iszero\n      tag_53\n      jumpi\n      returndatasize\n      0x00\n      dup1\n      returndatacopy\n      revert(0x00, returndatasize)\n    tag_53:\n      pop\n      pop\n      pop\n      pop\n        /* \"src/Vault.sol\":2129:2136  bool rv */\n      0x00\n        /* \"src/Vault.sol\":2139:2160  deposit(token,amount) */\n      tag_54\n        /* \"src/Vault.sol\":2147:2152  token */\n      dup9\n        /* \"src/Vault.sol\":2153:2159  amount */\n      dup9\n        /* \"src/Vault.sol\":2139:2146  deposit */\n      tag_17\n        /* \"src/Vault.sol\":2139:2160  deposit(token,amount) */\n      jump\t// in\n    tag_54:\n        /* \"src/Vault.sol\":2129:2160  bool rv = deposit(token,amount) */\n      swap1\n      pop\n        /* \"src/Vault.sol\":2246:2248  rv */\n      dup1\n        /* \"src/Vault.sol\":2241:2303  if (!rv) {... */\n      tag_55\n      jumpi\n        /* \"src/Vault.sol\":2271:2292  Vault__DepositError() */\n      mload(0x40)\n      0x37a89cef00000000000000000000000000000000000000000000000000000000\n      dup2\n      mstore\n      0x04\n      add\n      mload(0x40)\n      dup1\n      swap2\n      sub\n      swap1\n      revert\n        /* \"src/Vault.sol\":2241:2303  if (!rv) {... */\n    tag_55:\n        /* \"src/Vault.sol\":2319:2323  true */\n      0x01\n        /* \"src/Vault.sol\":2312:2323  return true */\n      swap2\n      pop\n      pop\n        /* \"src/Vault.sol\":1747:2330  function depositPermit(... */\n      swap7\n      swap6\n      pop\n      pop\n      pop\n      pop\n      pop\n      pop\n      jump\t// out\n        /* \"src/Vault.sol\":2711:2835  function balanceOf(address token) external view returns (uint256 amount) {... */\n    tag_27:\n        /* \"src/Vault.sol\":2768:2782  uint256 amount */\n      0x00\n        /* \"src/Vault.sol\":2801:2809  balances */\n      dup1\n        /* \"src/Vault.sol\":2801:2816  balances[token] */\n      0x00\n        /* \"src/Vault.sol\":2810:2815  token */\n      dup4\n        /* \"src/Vault.sol\":2801:2816  balances[token] */\n      0xffffffffffffffffffffffffffffffffffffffff\n      and\n      0xffffffffffffffffffffffffffffffffffffffff\n      and\n      dup2\n      mstore\n      0x20\n      add\n      swap1\n      dup2\n      mstore\n      0x20\n      add\n      0x00\n      keccak256\n        /* \"src/Vault.sol\":2801:2828  balances[token][msg.sender] */\n      0x00\n        /* \"src/Vault.sol\":2817:2827  msg.sender */\n      caller\n        /* \"src/Vault.sol\":2801:2828  balances[token][msg.sender] */\n      0xffffffffffffffffffffffffffffffffffffffff\n      and\n      0xffffffffffffffffffffffffffffffffffffffff\n      and\n      dup2\n      mstore\n      0x20\n      add\n      swap1\n      dup2\n      mstore\n      0x20\n      add\n      0x00\n      keccak256\n      sload\n        /* \"src/Vault.sol\":2794:2828  return balances[token][msg.sender] */\n      swap1\n      pop\n        /* \"src/Vault.sol\":2711:2835  function balanceOf(address token) external view returns (uint256 amount) {... */\n      swap2\n      swap1\n      pop\n      jump\t// out\n        /* \"src/Vault.sol\":555:624  mapping(address token => mapping(address => uint256)) public balances */\n    tag_33:\n      mstore(0x20, 0x00)\n      dup2\n      0x00\n      mstore\n      mstore(0x20, keccak256(0x00, 0x40))\n      dup1\n      0x00\n      mstore\n      keccak256(0x00, 0x40)\n      0x00\n      swap2\n      pop\n      swap2\n      pop\n      pop\n      sload\n      dup2\n      jump\t// out\n        /* \"src/Vault.sol\":2337:2705  function withdraw(address token, uint256 amount) external amountCheck(amount) returns (bool success) {... */\n    tag_37:\n        /* \"src/Vault.sol\":2424:2436  bool success */\n      0x00\n        /* \"src/Vault.sol\":2407:2413  amount */\n      dup2\n        /* \"src/Vault.sol\":693:694  0 */\n      0x00\n        /* \"src/Vault.sol\":683:689  amount */\n      dup2\n        /* \"src/Vault.sol\":683:694  amount <= 0 */\n      gt\n        /* \"src/Vault.sol\":678:764  if ( amount <= 0) {... */\n      tag_58\n      jumpi\n        /* \"src/Vault.sol\":717:753  Vault__AmountShouldNotLessThanZero() */\n      mload(0x40)\n      0x7d12343e00000000000000000000000000000000000000000000000000000000\n      dup2\n      mstore\n      0x04\n      add\n      mload(0x40)\n      dup1\n      swap2\n      sub\n      swap1\n      revert\n        /* \"src/Vault.sol\":678:764  if ( amount <= 0) {... */\n    tag_58:\n        /* \"src/Vault.sol\":2481:2487  amount */\n      dup3\n        /* \"src/Vault.sol\":2451:2459  balances */\n      0x00\n        /* \"src/Vault.sol\":2451:2466  balances[token] */\n      dup1\n        /* \"src/Vault.sol\":2460:2465  token */\n      dup7\n        /* \"src/Vault.sol\":2451:2466  balances[token] */\n      0xffffffffffffffffffffffffffffffffffffffff\n      and\n      0xffffffffffffffffffffffffffffffffffffffff\n      and\n      dup2\n      mstore\n      0x20\n      add\n      swap1\n      dup2\n      mstore\n      0x20\n      add\n      0x00\n      keccak256\n        /* \"src/Vault.sol\":2451:2478  balances[token][msg.sender] */\n      0x00\n        /* \"src/Vault.sol\":2467:2477  msg.sender */\n      caller\n        /* \"src/Vault.sol\":2451:2478  balances[token][msg.sender] */\n      0xffffffffffffffffffffffffffffffffffffffff\n      and\n      0xffffffffffffffffffffffffffffffffffffffff\n      and\n      dup2\n      mstore\n      0x20\n      add\n      swap1\n      dup2\n      mstore\n      0x20\n      add\n      0x00\n      keccak256\n      sload\n        /* \"src/Vault.sol\":2451:2487  balances[token][msg.sender] < amount */\n      lt\n        /* \"src/Vault.sol\":2448:2546  if(balances[token][msg.sender] < amount) {... */\n      iszero\n      tag_60\n      jumpi\n        /* \"src/Vault.sol\":2510:2535  Vault__BalanceNotEnough() */\n      mload(0x40)\n      0x60b1ca00000000000000000000000000000000000000000000000000000000\n      dup2\n      mstore\n      0x04\n      add\n      mload(0x40)\n      dup1\n      swap2\n      sub\n      swap1\n      revert\n        /* \"src/Vault.sol\":2448:2546  if(balances[token][msg.sender] < amount) {... */\n    tag_60:\n        /* \"src/Vault.sol\":2555:2562  bool rv */\n      0x00\n        /* \"src/Vault.sol\":2572:2577  token */\n      dup5\n        /* \"src/Vault.sol\":2565:2587  IERC20(token).transfer */\n      0xffffffffffffffffffffffffffffffffffffffff\n      and\n      0xa9059cbb\n        /* \"src/Vault.sol\":2588:2598  msg.sender */\n      caller\n        /* \"src/Vault.sol\":2599:2605  amount */\n      dup7\n        /* \"src/Vault.sol\":2565:2606  IERC20(token).transfer(msg.sender,amount) */\n      mload(0x40)\n      dup4\n      0xffffffff\n      and\n      0xe0\n      shl\n      dup2\n      mstore\n      0x04\n      add\n      tag_61\n      swap3\n      swap2\n      swap1\n      tag_62\n      jump\t// in\n    tag_61:\n      0x20\n      mload(0x40)\n      dup1\n      dup4\n      sub\n      dup2\n      0x00\n      dup8\n      gas\n      call\n      iszero\n      dup1\n      iszero\n      tag_64\n      jumpi\n      returndatasize\n      0x00\n      dup1\n      returndatacopy\n      revert(0x00, returndatasize)\n    tag_64:\n      pop\n      pop\n      pop\n      pop\n      mload(0x40)\n      returndatasize\n      not(0x1f)\n      0x1f\n      dup3\n      add\n      and\n      dup3\n      add\n      dup1\n      0x40\n      mstore\n      pop\n      dup2\n      add\n      swap1\n      tag_65\n      swap2\n      swap1\n      tag_66\n      jump\t// in\n    tag_65:\n        /* \"src/Vault.sol\":2555:2606  bool rv = IERC20(token).transfer(msg.sender,amount) */\n      swap1\n      pop\n        /* \"src/Vault.sol\":2620:2622  rv */\n      dup1\n        /* \"src/Vault.sol\":2616:2678  if(!rv) {... */\n      tag_67\n      jumpi\n        /* \"src/Vault.sol\":2645:2667  Vault__WithdrawError() */\n      mload(0x40)\n      0x8eda183b00000000000000000000000000000000000000000000000000000000\n      dup2\n      mstore\n      0x04\n      add\n      mload(0x40)\n      dup1\n      swap2\n      sub\n      swap1\n      revert\n        /* \"src/Vault.sol\":2616:2678  if(!rv) {... */\n    tag_67:\n        /* \"src/Vault.sol\":2694:2698  true */\n      0x01\n        /* \"src/Vault.sol\":2687:2698  return true */\n      swap3\n      pop\n      pop\n        /* \"src/Vault.sol\":2337:2705  function withdraw(address token, uint256 amount) external amountCheck(amount) returns (bool success) {... */\n      pop\n      swap3\n      swap2\n      pop\n      pop\n      jump\t// out\n        /* \"@openzeppelin/contracts/token/ERC20/utils/SafeERC20.sol\":1702:1890  function safeTransferFrom(IERC20 token, address from, address to, uint256 value) internal {... */\n    tag_46:\n        /* \"@openzeppelin/contracts/token/ERC20/utils/SafeERC20.sol\":1802:1883  _callOptionalReturn(token, abi.encodeCall(token.transferFrom, (from, to, value))) */\n      tag_69\n        /* \"@openzeppelin/contracts/token/ERC20/utils/SafeERC20.sol\":1822:1827  token */\n      dup5\n        /* \"@openzeppelin/contracts/token/ERC20/utils/SafeERC20.sol\":1844:1849  token */\n      dup6\n        /* \"@openzeppelin/contracts/token/ERC20/utils/SafeERC20.sol\":1844:1862  token.transferFrom */\n      0xffffffffffffffffffffffffffffffffffffffff\n      and\n      0x23b872dd\n        /* \"@openzeppelin/contracts/token/ERC20/utils/SafeERC20.sol\":1865:1869  from */\n      dup7\n        /* \"@openzeppelin/contracts/token/ERC20/utils/SafeERC20.sol\":1871:1873  to */\n      dup7\n        /* \"@openzeppelin/contracts/token/ERC20/utils/SafeERC20.sol\":1875:1880  value */\n      dup7\n        /* \"@openzeppelin/contracts/token/ERC20/utils/SafeERC20.sol\":1829:1882  abi.encodeCall(token.transferFrom, (from, to, value)) */\n      add(0x24, mload(0x40))\n      tag_70\n      swap4\n      swap3\n      swap2\n      swap1\n      tag_71\n      jump\t// in\n    tag_70:\n      mload(0x40)\n      0x20\n      dup2\n      dup4\n      sub\n      sub\n      dup2\n      mstore\n      swap1\n      0x40\n      mstore\n      swap2\n      pop\n      0xe0\n      shl\n      0x20\n      dup3\n      add\n      dup1\n      mload\n      0xffffffffffffffffffffffffffffffffffffffffffffffffffffffff\n      dup4\n      dup2\n      dup4\n      and\n      or\n      dup4\n      mstore\n      pop\n      pop\n      pop\n      pop\n        /* \"@openzeppelin/contracts/token/ERC20/utils/SafeERC20.sol\":1802:1821  _callOptionalReturn */\n      tag_72\n        /* \"@openzeppelin/contracts/token/ERC20/utils/SafeERC20.sol\":1802:1883  _callOptionalReturn(token, abi.encodeCall(token.transferFrom, (from, to, value))) */\n      jump\t// in\n    tag_69:\n        /* \"@openzeppelin/contracts/token/ERC20/utils/SafeERC20.sol\":1702:1890  function safeTransferFrom(IERC20 token, address from, address to, uint256 value) internal {... */\n      pop\n      pop\n      pop\n      pop\n      jump\t// out\n        /* \"@openzeppelin/contracts/token/ERC20/utils/SafeERC20.sol\":4059:4688  function _callOptionalReturn(IERC20 token, bytes memory data) private {... */\n    tag_72:\n        /* \"@openzeppelin/contracts/token/ERC20/utils/SafeERC20.sol\":4478:4501  bytes memory returndata */\n      0x00\n        /* \"@openzeppelin/contracts/token/ERC20/utils/SafeERC20.sol\":4504:4537  address(token).functionCall(data) */\n      tag_74\n        /* \"@openzeppelin/contracts/token/ERC20/utils/SafeERC20.sol\":4532:4536  data */\n      dup3\n        /* \"@openzeppelin/contracts/token/ERC20/utils/SafeERC20.sol\":4512:4517  token */\n      dup5\n        /* \"@openzeppelin/contracts/token/ERC20/utils/SafeERC20.sol\":4504:4531  address(token).functionCall */\n      0xffffffffffffffffffffffffffffffffffffffff\n      and\n      tag_75\n      swap1\n        /* \"@openzeppelin/contracts/token/ERC20/utils/SafeERC20.sol\":4504:4537  address(token).functionCall(data) */\n      swap2\n      swap1\n      0xffffffff\n      and\n      jump\t// in\n    tag_74:\n        /* \"@openzeppelin/contracts/token/ERC20/utils/SafeERC20.sol\":4478:4537  bytes memory returndata = address(token).functionCall(data) */\n      swap1\n      pop\n        /* \"@openzeppelin/contracts/token/ERC20/utils/SafeERC20.sol\":4572:4573  0 */\n      0x00\n        /* \"@openzeppelin/contracts/token/ERC20/utils/SafeERC20.sol\":4551:4561  returndata */\n      dup2\n        /* \"@openzeppelin/contracts/token/ERC20/utils/SafeERC20.sol\":4551:4568  returndata.length */\n      mload\n        /* \"@openzeppelin/contracts/token/ERC20/utils/SafeERC20.sol\":4551:4573  returndata.length != 0 */\n      eq\n      iszero\n        /* \"@openzeppelin/contracts/token/ERC20/utils/SafeERC20.sol\":4551:4608  returndata.length != 0 && !abi.decode(returndata, (bool)) */\n      dup1\n      iszero\n      tag_76\n      jumpi\n      pop\n        /* \"@openzeppelin/contracts/token/ERC20/utils/SafeERC20.sol\":4589:4599  returndata */\n      dup1\n        /* \"@openzeppelin/contracts/token/ERC20/utils/SafeERC20.sol\":4578:4608  abi.decode(returndata, (bool)) */\n      dup1\n      0x20\n      add\n      swap1\n      mload\n      dup2\n      add\n      swap1\n      tag_77\n      swap2\n      swap1\n      tag_66\n      jump\t// in\n    tag_77:\n        /* \"@openzeppelin/contracts/token/ERC20/utils/SafeERC20.sol\":4577:4608  !abi.decode(returndata, (bool)) */\n      iszero\n        /* \"@openzeppelin/contracts/token/ERC20/utils/SafeERC20.sol\":4551:4608  returndata.length != 0 && !abi.decode(returndata, (bool)) */\n    tag_76:\n        /* \"@openzeppelin/contracts/token/ERC20/utils/SafeERC20.sol\":4547:4682  if (returndata.length != 0 && !abi.decode(returndata, (bool))) {... */\n      iszero\n      tag_78\n      jumpi\n        /* \"@openzeppelin/contracts/token/ERC20/utils/SafeERC20.sol\":4664:4669  token */\n      dup3\n        /* \"@openzeppelin/contracts/token/ERC20/utils/SafeERC20.sol\":4631:4671  SafeERC20FailedOperation(address(token)) */\n      mload(0x40)\n      0x5274afe700000000000000000000000000000000000000000000000000000000\n      dup2\n      mstore\n      0x04\n      add\n      tag_79\n      swap2\n      swap1\n      tag_80\n      jump\t// in\n    tag_79:\n      mload(0x40)\n      dup1\n      swap2\n      sub\n      swap1\n      revert\n        /* \"@openzeppelin/contracts/token/ERC20/utils/SafeERC20.sol\":4547:4682  if (returndata.length != 0 && !abi.decode(returndata, (bool))) {... */\n    tag_78:\n        /* \"@openzeppelin/contracts/token/ERC20/utils/SafeERC20.sol\":4129:4688  {... */\n      pop\n        /* \"@openzeppelin/contracts/token/ERC20/utils/SafeERC20.sol\":4059:4688  function _callOptionalReturn(IERC20 token, bytes memory data) private {... */\n      pop\n      pop\n      jump\t// out\n        /* \"@openzeppelin/contracts/utils/Address.sol\":2705:2856  function functionCall(address target, bytes memory data) internal returns (bytes memory) {... */\n    tag_75:\n        /* \"@openzeppelin/contracts/utils/Address.sol\":2780:2792  bytes memory */\n      0x60\n        /* \"@openzeppelin/contracts/utils/Address.sol\":2811:2849  functionCallWithValue(target, data, 0) */\n      tag_82\n        /* \"@openzeppelin/contracts/utils/Address.sol\":2833:2839  target */\n      dup4\n        /* \"@openzeppelin/contracts/utils/Address.sol\":2841:2845  data */\n      dup4\n        /* \"@openzeppelin/contracts/utils/Address.sol\":2847:2848  0 */\n      0x00\n        /* \"@openzeppelin/contracts/utils/Address.sol\":2811:2832  functionCallWithValue */\n      tag_83\n        /* \"@openzeppelin/contracts/utils/Address.sol\":2811:2849  functionCallWithValue(target, data, 0) */\n      jump\t// in\n    tag_82:\n        /* \"@openzeppelin/contracts/utils/Address.sol\":2804:2849  return functionCallWithValue(target, data, 0) */\n      swap1\n      pop\n        /* \"@openzeppelin/contracts/utils/Address.sol\":2705:2856  function functionCall(address target, bytes memory data) internal returns (bytes memory) {... */\n      swap3\n      swap2\n      pop\n      pop\n      jump\t// out\n        /* \"@openzeppelin/contracts/utils/Address.sol\":3180:3572  function functionCallWithValue(address target, bytes memory data, uint256 value) internal returns (bytes memory) {... */\n    tag_83:\n        /* \"@openzeppelin/contracts/utils/Address.sol\":3279:3291  bytes memory */\n      0x60\n        /* \"@openzeppelin/contracts/utils/Address.sol\":3331:3336  value */\n      dup2\n        /* \"@openzeppelin/contracts/utils/Address.sol\":3307:3328  address(this).balance */\n      selfbalance\n        /* \"@openzeppelin/contracts/utils/Address.sol\":3307:3336  address(this).balance < value */\n      lt\n        /* \"@openzeppelin/contracts/utils/Address.sol\":3303:3411  if (address(this).balance < value) {... */\n      iszero\n      tag_85\n      jumpi\n        /* \"@openzeppelin/contracts/utils/Address.sol\":3394:3398  this */\n      address\n        /* \"@openzeppelin/contracts/utils/Address.sol\":3359:3400  AddressInsufficientBalance(address(this)) */\n      mload(0x40)\n      0xcd78605900000000000000000000000000000000000000000000000000000000\n      dup2\n      mstore\n      0x04\n      add\n      tag_86\n      swap2\n      swap1\n      tag_80\n      jump\t// in\n    tag_86:\n      mload(0x40)\n      dup1\n      swap2\n      sub\n      swap1\n      revert\n        /* \"@openzeppelin/contracts/utils/Address.sol\":3303:3411  if (address(this).balance < value) {... */\n    tag_85:\n        /* \"@openzeppelin/contracts/utils/Address.sol\":3421:3433  bool success */\n      0x00\n        /* \"@openzeppelin/contracts/utils/Address.sol\":3435:3458  bytes memory returndata */\n      dup1\n        /* \"@openzeppelin/contracts/utils/Address.sol\":3462:3468  target */\n      dup6\n        /* \"@openzeppelin/contracts/utils/Address.sol\":3462:3473  target.call */\n      0xffffffffffffffffffffffffffffffffffffffff\n      and\n        /* \"@openzeppelin/contracts/utils/Address.sol\":3481:3486  value */\n      dup5\n        /* \"@openzeppelin/contracts/utils/Address.sol\":3488:3492  data */\n      dup7\n        /* \"@openzeppelin/contracts/utils/Address.sol\":3462:3493  target.call{value: value}(data) */\n      mload(0x40)\n      tag_87\n      swap2\n      swap1\n      tag_88\n      jump\t// in\n    tag_87:\n      0x00\n      mload(0x40)\n      dup1\n      dup4\n      sub\n      dup2\n      dup6\n      dup8\n      gas\n      call\n      swap3\n      pop\n      pop\n      pop\n      returndatasize\n      dup1\n      0x00\n      dup2\n      eq\n      tag_91\n      jumpi\n      mload(0x40)\n      swap2\n      pop\n      and(add(returndatasize, 0x3f), not(0x1f))\n      dup3\n      add\n      0x40\n      mstore\n      returndatasize\n      dup3\n      mstore\n      returndatasize\n      0x00\n      0x20\n      dup5\n      add\n      returndatacopy\n      jump(tag_90)\n    tag_91:\n      0x60\n      swap2\n      pop\n    tag_90:\n      pop\n        /* \"@openzeppelin/contracts/utils/Address.sol\":3420:3493  (bool success, bytes memory returndata) = target.call{value: value}(data) */\n      swap2\n      pop\n      swap2\n      pop\n        /* \"@openzeppelin/contracts/utils/Address.sol\":3510:3565  verifyCallResultFromTarget(target, success, returndata) */\n      tag_92\n        /* \"@openzeppelin/contracts/utils/Address.sol\":3537:3543  target */\n      dup7\n        /* \"@openzeppelin/contracts/utils/Address.sol\":3545:3552  success */\n      dup4\n        /* \"@openzeppelin/contracts/utils/Address.sol\":3554:3564  returndata */\n      dup4\n        /* \"@openzeppelin/contracts/utils/Address.sol\":3510:3536  verifyCallResultFromTarget */\n      tag_93\n        /* \"@openzeppelin/contracts/utils/Address.sol\":3510:3565  verifyCallResultFromTarget(target, success, returndata) */\n      jump\t// in\n    tag_92:\n        /* \"@openzeppelin/contracts/utils/Address.sol\":3503:3565  return verifyCallResultFromTarget(target, success, returndata) */\n      swap3\n      pop\n      pop\n      pop\n        /* \"@openzeppelin/contracts/utils/Address.sol\":3180:3572  function functionCallWithValue(address target, bytes memory data, uint256 value) internal returns (bytes memory) {... */\n      swap4\n      swap3\n      pop\n      pop\n      pop\n      jump\t// out\n        /* \"@openzeppelin/contracts/utils/Address.sol\":4625:5207  function verifyCallResultFromTarget(... */\n    tag_93:\n        /* \"@openzeppelin/contracts/utils/Address.sol\":4769:4781  bytes memory */\n      0x60\n        /* \"@openzeppelin/contracts/utils/Address.sol\":4798:4805  success */\n      dup3\n        /* \"@openzeppelin/contracts/utils/Address.sol\":4793:5201  if (!success) {... */\n      tag_95\n      jumpi\n        /* \"@openzeppelin/contracts/utils/Address.sol\":4821:4840  _revert(returndata) */\n      tag_96\n        /* \"@openzeppelin/contracts/utils/Address.sol\":4829:4839  returndata */\n      dup3\n        /* \"@openzeppelin/contracts/utils/Address.sol\":4821:4828  _revert */\n      tag_97\n        /* \"@openzeppelin/contracts/utils/Address.sol\":4821:4840  _revert(returndata) */\n      jump\t// in\n    tag_96:\n        /* \"@openzeppelin/contracts/utils/Address.sol\":4793:5201  if (!success) {... */\n      jump(tag_98)\n    tag_95:\n        /* \"@openzeppelin/contracts/utils/Address.sol\":5066:5067  0 */\n      0x00\n        /* \"@openzeppelin/contracts/utils/Address.sol\":5045:5055  returndata */\n      dup3\n        /* \"@openzeppelin/contracts/utils/Address.sol\":5045:5062  returndata.length */\n      mload\n        /* \"@openzeppelin/contracts/utils/Address.sol\":5045:5067  returndata.length == 0 */\n      eq\n        /* \"@openzeppelin/contracts/utils/Address.sol\":5045:5094  returndata.length == 0 && target.code.length == 0 */\n      dup1\n      iszero\n      tag_99\n      jumpi\n      pop\n        /* \"@openzeppelin/contracts/utils/Address.sol\":5093:5094  0 */\n      0x00\n        /* \"@openzeppelin/contracts/utils/Address.sol\":5071:5077  target */\n      dup5\n        /* \"@openzeppelin/contracts/utils/Address.sol\":5071:5089  target.code.length */\n      0xffffffffffffffffffffffffffffffffffffffff\n      and\n      extcodesize\n        /* \"@openzeppelin/contracts/utils/Address.sol\":5071:5094  target.code.length == 0 */\n      eq\n        /* \"@openzeppelin/contracts/utils/Address.sol\":5045:5094  returndata.length == 0 && target.code.length == 0 */\n    tag_99:\n        /* \"@openzeppelin/contracts/utils/Address.sol\":5041:5160  if (returndata.length == 0 && target.code.length == 0) {... */\n      iszero\n      tag_100\n      jumpi\n        /* \"@openzeppelin/contracts/utils/Address.sol\":5138:5144  target */\n      dup4\n        /* \"@openzeppelin/contracts/utils/Address.sol\":5121:5145  AddressEmptyCode(target) */\n      mload(0x40)\n      0x9996b31500000000000000000000000000000000000000000000000000000000\n      dup2\n      mstore\n      0x04\n      add\n      tag_101\n      swap2\n      swap1\n      tag_80\n      jump\t// in\n    tag_101:\n      mload(0x40)\n      dup1\n      swap2\n      sub\n      swap1\n      revert\n        /* \"@openzeppelin/contracts/utils/Address.sol\":5041:5160  if (returndata.length == 0 && target.code.length == 0) {... */\n    tag_100:\n        /* \"@openzeppelin/contracts/utils/Address.sol\":5180:5190  returndata */\n      dup2\n        /* \"@openzeppelin/contracts/utils/Address.sol\":5173:5190  return returndata */\n      swap1\n      pop\n      jump(tag_94)\n        /* \"@openzeppelin/contracts/utils/Address.sol\":4793:5201  if (!success) {... */\n    tag_98:\n        /* \"@openzeppelin/contracts/utils/Address.sol\":4625:5207  function verifyCallResultFromTarget(... */\n    tag_94:\n      swap4\n      swap3\n      pop\n      pop\n      pop\n      jump\t// out\n        /* \"@openzeppelin/contracts/utils/Address.sol\":5743:6259  function _revert(bytes memory returndata) private pure {... */\n    tag_97:\n        /* \"@openzeppelin/contracts/utils/Address.sol\":5894:5895  0 */\n      0x00\n        /* \"@openzeppelin/contracts/utils/Address.sol\":5874:5884  returndata */\n      dup2\n        /* \"@openzeppelin/contracts/utils/Address.sol\":5874:5891  returndata.length */\n      mload\n        /* \"@openzeppelin/contracts/utils/Address.sol\":5874:5895  returndata.length > 0 */\n      gt\n        /* \"@openzeppelin/contracts/utils/Address.sol\":5870:6253  if (returndata.length > 0) {... */\n      iszero\n      tag_103\n      jumpi\n        /* \"@openzeppelin/contracts/utils/Address.sol\":6102:6112  returndata */\n      dup1\n        /* \"@openzeppelin/contracts/utils/Address.sol\":6096:6113  mload(returndata) */\n      mload\n        /* \"@openzeppelin/contracts/utils/Address.sol\":6158:6173  returndata_size */\n      dup1\n        /* \"@openzeppelin/contracts/utils/Address.sol\":6145:6155  returndata */\n      dup3\n        /* \"@openzeppelin/contracts/utils/Address.sol\":6141:6143  32 */\n      0x20\n        /* \"@openzeppelin/contracts/utils/Address.sol\":6137:6156  add(32, returndata) */\n      add\n        /* \"@openzeppelin/contracts/utils/Address.sol\":6130:6174  revert(add(32, returndata), returndata_size) */\n      revert\n        /* \"@openzeppelin/contracts/utils/Address.sol\":5870:6253  if (returndata.length > 0) {... */\n    tag_103:\n        /* \"@openzeppelin/contracts/utils/Address.sol\":6225:6242  FailedInnerCall() */\n      mload(0x40)\n      0x1425ea4200000000000000000000000000000000000000000000000000000000\n      dup2\n      mstore\n      0x04\n      add\n      mload(0x40)\n      dup1\n      swap2\n      sub\n      swap1\n      revert\n        /* \"#utility.yul\":88:205   */\n    tag_106:\n        /* \"#utility.yul\":197:198   */\n      0x00\n        /* \"#utility.yul\":194:195   */\n      dup1\n        /* \"#utility.yul\":187:199   */\n      revert\n        /* \"#utility.yul\":334:460   */\n    tag_108:\n        /* \"#utility.yul\":371:378   */\n      0x00\n        /* \"#utility.yul\":411:453   */\n      0xffffffffffffffffffffffffffffffffffffffff\n        /* \"#utility.yul\":404:409   */\n      dup3\n        /* \"#utility.yul\":400:454   */\n      and\n        /* \"#utility.yul\":389:454   */\n      swap1\n      pop\n        /* \"#utility.yul\":334:460   */\n      swap2\n      swap1\n      pop\n      jump\t// out\n        /* \"#utility.yul\":466:562   */\n    tag_109:\n        /* \"#utility.yul\":503:510   */\n      0x00\n        /* \"#utility.yul\":532:556   */\n      tag_140\n        /* \"#utility.yul\":550:555   */\n      dup3\n        /* \"#utility.yul\":532:556   */\n      tag_108\n      jump\t// in\n    tag_140:\n        /* \"#utility.yul\":521:556   */\n      swap1\n      pop\n        /* \"#utility.yul\":466:562   */\n      swap2\n      swap1\n      pop\n      jump\t// out\n        /* \"#utility.yul\":568:690   */\n    tag_110:\n        /* \"#utility.yul\":641:665   */\n      tag_142\n        /* \"#utility.yul\":659:664   */\n      dup2\n        /* \"#utility.yul\":641:665   */\n      tag_109\n      jump\t// in\n    tag_142:\n        /* \"#utility.yul\":634:639   */\n      dup2\n        /* \"#utility.yul\":631:666   */\n      eq\n        /* \"#utility.yul\":621:684   */\n      tag_143\n      jumpi\n        /* \"#utility.yul\":680:681   */\n      0x00\n        /* \"#utility.yul\":677:678   */\n      dup1\n        /* \"#utility.yul\":670:682   */\n      revert\n        /* \"#utility.yul\":621:684   */\n    tag_143:\n        /* \"#utility.yul\":568:690   */\n      pop\n      jump\t// out\n        /* \"#utility.yul\":696:835   */\n    tag_111:\n        /* \"#utility.yul\":742:747   */\n      0x00\n        /* \"#utility.yul\":780:786   */\n      dup2\n        /* \"#utility.yul\":767:787   */\n      calldataload\n        /* \"#utility.yul\":758:787   */\n      swap1\n      pop\n        /* \"#utility.yul\":796:829   */\n      tag_145\n        /* \"#utility.yul\":823:828   */\n      dup2\n        /* \"#utility.yul\":796:829   */\n      tag_110\n      jump\t// in\n    tag_145:\n        /* \"#utility.yul\":696:835   */\n      swap3\n      swap2\n      pop\n      pop\n      jump\t// out\n        /* \"#utility.yul\":841:918   */\n    tag_112:\n        /* \"#utility.yul\":878:885   */\n      0x00\n        /* \"#utility.yul\":907:912   */\n      dup2\n        /* \"#utility.yul\":896:912   */\n      swap1\n      pop\n        /* \"#utility.yul\":841:918   */\n      swap2\n      swap1\n      pop\n      jump\t// out\n        /* \"#utility.yul\":924:1046   */\n    tag_113:\n        /* \"#utility.yul\":997:1021   */\n      tag_148\n        /* \"#utility.yul\":1015:1020   */\n      dup2\n        /* \"#utility.yul\":997:1021   */\n      tag_112\n      jump\t// in\n    tag_148:\n        /* \"#utility.yul\":990:995   */\n      dup2\n        /* \"#utility.yul\":987:1022   */\n      eq\n        /* \"#utility.yul\":977:1040   */\n      tag_149\n      jumpi\n        /* \"#utility.yul\":1036:1037   */\n      0x00\n        /* \"#utility.yul\":1033:1034   */\n      dup1\n        /* \"#utility.yul\":1026:1038   */\n      revert\n        /* \"#utility.yul\":977:1040   */\n    tag_149:\n        /* \"#utility.yul\":924:1046   */\n      pop\n      jump\t// out\n        /* \"#utility.yul\":1052:1191   */\n    tag_114:\n        /* \"#utility.yul\":1098:1103   */\n      0x00\n        /* \"#utility.yul\":1136:1142   */\n      dup2\n        /* \"#utility.yul\":1123:1143   */\n      calldataload\n        /* \"#utility.yul\":1114:1143   */\n      swap1\n      pop\n        /* \"#utility.yul\":1152:1185   */\n      tag_151\n        /* \"#utility.yul\":1179:1184   */\n      dup2\n        /* \"#utility.yul\":1152:1185   */\n      tag_113\n      jump\t// in\n    tag_151:\n        /* \"#utility.yul\":1052:1191   */\n      swap3\n      swap2\n      pop\n      pop\n      jump\t// out\n        /* \"#utility.yul\":1197:1671   */\n    tag_11:\n        /* \"#utility.yul\":1265:1271   */\n      0x00\n        /* \"#utility.yul\":1273:1279   */\n      dup1\n        /* \"#utility.yul\":1322:1324   */\n      0x40\n        /* \"#utility.yul\":1310:1319   */\n      dup4\n        /* \"#utility.yul\":1301:1308   */\n      dup6\n        /* \"#utility.yul\":1297:1320   */\n      sub\n        /* \"#utility.yul\":1293:1325   */\n      slt\n        /* \"#utility.yul\":1290:1409   */\n      iszero\n      tag_153\n      jumpi\n        /* \"#utility.yul\":1328:1407   */\n      tag_154\n      tag_106\n      jump\t// in\n    tag_154:\n        /* \"#utility.yul\":1290:1409   */\n    tag_153:\n        /* \"#utility.yul\":1448:1449   */\n      0x00\n        /* \"#utility.yul\":1473:1526   */\n      tag_155\n        /* \"#utility.yul\":1518:1525   */\n      dup6\n        /* \"#utility.yul\":1509:1515   */\n      dup3\n        /* \"#utility.yul\":1498:1507   */\n      dup7\n        /* \"#utility.yul\":1494:1516   */\n      add\n        /* \"#utility.yul\":1473:1526   */\n      tag_111\n      jump\t// in\n    tag_155:\n        /* \"#utility.yul\":1463:1526   */\n      swap3\n      pop\n        /* \"#utility.yul\":1419:1536   */\n      pop\n        /* \"#utility.yul\":1575:1577   */\n      0x20\n        /* \"#utility.yul\":1601:1654   */\n      tag_156\n        /* \"#utility.yul\":1646:1653   */\n      dup6\n        /* \"#utility.yul\":1637:1643   */\n      dup3\n        /* \"#utility.yul\":1626:1635   */\n      dup7\n        /* \"#utility.yul\":1622:1644   */\n      add\n        /* \"#utility.yul\":1601:1654   */\n      tag_114\n      jump\t// in\n    tag_156:\n        /* \"#utility.yul\":1591:1654   */\n      swap2\n      pop\n        /* \"#utility.yul\":1546:1664   */\n      pop\n        /* \"#utility.yul\":1197:1671   */\n      swap3\n      pop\n      swap3\n      swap1\n      pop\n      jump\t// out\n        /* \"#utility.yul\":1677:1767   */\n    tag_115:\n        /* \"#utility.yul\":1711:1718   */\n      0x00\n        /* \"#utility.yul\":1754:1759   */\n      dup2\n        /* \"#utility.yul\":1747:1760   */\n      iszero\n        /* \"#utility.yul\":1740:1761   */\n      iszero\n        /* \"#utility.yul\":1729:1761   */\n      swap1\n      pop\n        /* \"#utility.yul\":1677:1767   */\n      swap2\n      swap1\n      pop\n      jump\t// out\n        /* \"#utility.yul\":1773:1882   */\n    tag_116:\n        /* \"#utility.yul\":1854:1875   */\n      tag_159\n        /* \"#utility.yul\":1869:1874   */\n      dup2\n        /* \"#utility.yul\":1854:1875   */\n      tag_115\n      jump\t// in\n    tag_159:\n        /* \"#utility.yul\":1849:1852   */\n      dup3\n        /* \"#utility.yul\":1842:1876   */\n      mstore\n        /* \"#utility.yul\":1773:1882   */\n      pop\n      pop\n      jump\t// out\n        /* \"#utility.yul\":1888:2098   */\n    tag_14:\n        /* \"#utility.yul\":1975:1979   */\n      0x00\n        /* \"#utility.yul\":2013:2015   */\n      0x20\n        /* \"#utility.yul\":2002:2011   */\n      dup3\n        /* \"#utility.yul\":1998:2016   */\n      add\n        /* \"#utility.yul\":1990:2016   */\n      swap1\n      pop\n        /* \"#utility.yul\":2026:2091   */\n      tag_161\n        /* \"#utility.yul\":2088:2089   */\n      0x00\n        /* \"#utility.yul\":2077:2086   */\n      dup4\n        /* \"#utility.yul\":2073:2090   */\n      add\n        /* \"#utility.yul\":2064:2070   */\n      dup5\n        /* \"#utility.yul\":2026:2091   */\n      tag_116\n      jump\t// in\n    tag_161:\n        /* \"#utility.yul\":1888:2098   */\n      swap3\n      swap2\n      pop\n      pop\n      jump\t// out\n        /* \"#utility.yul\":2104:2190   */\n    tag_117:\n        /* \"#utility.yul\":2139:2146   */\n      0x00\n        /* \"#utility.yul\":2179:2183   */\n      0xff\n        /* \"#utility.yul\":2172:2177   */\n      dup3\n        /* \"#utility.yul\":2168:2184   */\n      and\n        /* \"#utility.yul\":2157:2184   */\n      swap1\n      pop\n        /* \"#utility.yul\":2104:2190   */\n      swap2\n      swap1\n      pop\n      jump\t// out\n        /* \"#utility.yul\":2196:2314   */\n    tag_118:\n        /* \"#utility.yul\":2267:2289   */\n      tag_164\n        /* \"#utility.yul\":2283:2288   */\n      dup2\n        /* \"#utility.yul\":2267:2289   */\n      tag_117\n      jump\t// in\n    tag_164:\n        /* \"#utility.yul\":2260:2265   */\n      dup2\n        /* \"#utility.yul\":2257:2290   */\n      eq\n        /* \"#utility.yul\":2247:2308   */\n      tag_165\n      jumpi\n        /* \"#utility.yul\":2304:2305   */\n      0x00\n        /* \"#utility.yul\":2301:2302   */\n      dup1\n        /* \"#utility.yul\":2294:2306   */\n      revert\n        /* \"#utility.yul\":2247:2308   */\n    tag_165:\n        /* \"#utility.yul\":2196:2314   */\n      pop\n      jump\t// out\n        /* \"#utility.yul\":2320:2455   */\n    tag_119:\n        /* \"#utility.yul\":2364:2369   */\n      0x00\n        /* \"#utility.yul\":2402:2408   */\n      dup2\n        /* \"#utility.yul\":2389:2409   */\n      calldataload\n        /* \"#utility.yul\":2380:2409   */\n      swap1\n      pop\n        /* \"#utility.yul\":2418:2449   */\n      tag_167\n        /* \"#utility.yul\":2443:2448   */\n      dup2\n        /* \"#utility.yul\":2418:2449   */\n      tag_118\n      jump\t// in\n    tag_167:\n        /* \"#utility.yul\":2320:2455   */\n      swap3\n      swap2\n      pop\n      pop\n      jump\t// out\n        /* \"#utility.yul\":2461:2538   */\n    tag_120:\n        /* \"#utility.yul\":2498:2505   */\n      0x00\n        /* \"#utility.yul\":2527:2532   */\n      dup2\n        /* \"#utility.yul\":2516:2532   */\n      swap1\n      pop\n        /* \"#utility.yul\":2461:2538   */\n      swap2\n      swap1\n      pop\n      jump\t// out\n        /* \"#utility.yul\":2544:2666   */\n    tag_121:\n        /* \"#utility.yul\":2617:2641   */\n      tag_170\n        /* \"#utility.yul\":2635:2640   */\n      dup2\n        /* \"#utility.yul\":2617:2641   */\n      tag_120\n      jump\t// in\n    tag_170:\n        /* \"#utility.yul\":2610:2615   */\n      dup2\n        /* \"#utility.yul\":2607:2642   */\n      eq\n        /* \"#utility.yul\":2597:2660   */\n      tag_171\n      jumpi\n        /* \"#utility.yul\":2656:2657   */\n      0x00\n        /* \"#utility.yul\":2653:2654   */\n      dup1\n        /* \"#utility.yul\":2646:2658   */\n      revert\n        /* \"#utility.yul\":2597:2660   */\n    tag_171:\n        /* \"#utility.yul\":2544:2666   */\n      pop\n      jump\t// out\n        /* \"#utility.yul\":2672:2811   */\n    tag_122:\n        /* \"#utility.yul\":2718:2723   */\n      0x00\n        /* \"#utility.yul\":2756:2762   */\n      dup2\n        /* \"#utility.yul\":2743:2763   */\n      calldataload\n        /* \"#utility.yul\":2734:2763   */\n      swap1\n      pop\n        /* \"#utility.yul\":2772:2805   */\n      tag_173\n        /* \"#utility.yul\":2799:2804   */\n      dup2\n        /* \"#utility.yul\":2772:2805   */\n      tag_121\n      jump\t// in\n    tag_173:\n        /* \"#utility.yul\":2672:2811   */\n      swap3\n      swap2\n      pop\n      pop\n      jump\t// out\n        /* \"#utility.yul\":2817:3870   */\n    tag_21:\n        /* \"#utility.yul\":2919:2925   */\n      0x00\n        /* \"#utility.yul\":2927:2933   */\n      dup1\n        /* \"#utility.yul\":2935:2941   */\n      0x00\n        /* \"#utility.yul\":2943:2949   */\n      dup1\n        /* \"#utility.yul\":2951:2957   */\n      0x00\n        /* \"#utility.yul\":2959:2965   */\n      dup1\n        /* \"#utility.yul\":3008:3011   */\n      0xc0\n        /* \"#utility.yul\":2996:3005   */\n      dup8\n        /* \"#utility.yul\":2987:2994   */\n      dup10\n        /* \"#utility.yul\":2983:3006   */\n      sub\n        /* \"#utility.yul\":2979:3012   */\n      slt\n        /* \"#utility.yul\":2976:3096   */\n      iszero\n      tag_175\n      jumpi\n        /* \"#utility.yul\":3015:3094   */\n      tag_176\n      tag_106\n      jump\t// in\n    tag_176:\n        /* \"#utility.yul\":2976:3096   */\n    tag_175:\n        /* \"#utility.yul\":3135:3136   */\n      0x00\n        /* \"#utility.yul\":3160:3213   */\n      tag_177\n        /* \"#utility.yul\":3205:3212   */\n      dup10\n        /* \"#utility.yul\":3196:3202   */\n      dup3\n        /* \"#utility.yul\":3185:3194   */\n      dup11\n        /* \"#utility.yul\":3181:3203   */\n      add\n        /* \"#utility.yul\":3160:3213   */\n      tag_111\n      jump\t// in\n    tag_177:\n        /* \"#utility.yul\":3150:3213   */\n      swap7\n      pop\n        /* \"#utility.yul\":3106:3223   */\n      pop\n        /* \"#utility.yul\":3262:3264   */\n      0x20\n        /* \"#utility.yul\":3288:3341   */\n      tag_178\n        /* \"#utility.yul\":3333:3340   */\n      dup10\n        /* \"#utility.yul\":3324:3330   */\n      dup3\n        /* \"#utility.yul\":3313:3322   */\n      dup11\n        /* \"#utility.yul\":3309:3331   */\n      add\n        /* \"#utility.yul\":3288:3341   */\n      tag_114\n      jump\t// in\n    tag_178:\n        /* \"#utility.yul\":3278:3341   */\n      swap6\n      pop\n        /* \"#utility.yul\":3233:3351   */\n      pop\n        /* \"#utility.yul\":3390:3392   */\n      0x40\n        /* \"#utility.yul\":3416:3469   */\n      tag_179\n        /* \"#utility.yul\":3461:3468   */\n      dup10\n        /* \"#utility.yul\":3452:3458   */\n      dup3\n        /* \"#utility.yul\":3441:3450   */\n      dup11\n        /* \"#utility.yul\":3437:3459   */\n      add\n        /* \"#utility.yul\":3416:3469   */\n      tag_114\n      jump\t// in\n    tag_179:\n        /* \"#utility.yul\":3406:3469   */\n      swap5\n      pop\n        /* \"#utility.yul\":3361:3479   */\n      pop\n        /* \"#utility.yul\":3518:3520   */\n      0x60\n        /* \"#utility.yul\":3544:3595   */\n      tag_180\n        /* \"#utility.yul\":3587:3594   */\n      dup10\n        /* \"#utility.yul\":3578:3584   */\n      dup3\n        /* \"#utility.yul\":3567:3576   */\n      dup11\n        /* \"#utility.yul\":3563:3585   */\n      add\n        /* \"#utility.yul\":3544:3595   */\n      tag_119\n      jump\t// in\n    tag_180:\n        /* \"#utility.yul\":3534:3595   */\n      swap4\n      pop\n        /* \"#utility.yul\":3489:3605   */\n      pop\n        /* \"#utility.yul\":3644:3647   */\n      0x80\n        /* \"#utility.yul\":3671:3724   */\n      tag_181\n        /* \"#utility.yul\":3716:3723   */\n      dup10\n        /* \"#utility.yul\":3707:3713   */\n      dup3\n        /* \"#utility.yul\":3696:3705   */\n      dup11\n        /* \"#utility.yul\":3692:3714   */\n      add\n        /* \"#utility.yul\":3671:3724   */\n      tag_122\n      jump\t// in\n    tag_181:\n        /* \"#utility.yul\":3661:3724   */\n      swap3\n      pop\n        /* \"#utility.yul\":3615:3734   */\n      pop\n        /* \"#utility.yul\":3773:3776   */\n      0xa0\n        /* \"#utility.yul\":3800:3853   */\n      tag_182\n        /* \"#utility.yul\":3845:3852   */\n      dup10\n        /* \"#utility.yul\":3836:3842   */\n      dup3\n        /* \"#utility.yul\":3825:3834   */\n      dup11\n        /* \"#utility.yul\":3821:3843   */\n      add\n        /* \"#utility.yul\":3800:3853   */\n      tag_122\n      jump\t// in\n    tag_182:\n        /* \"#utility.yul\":3790:3853   */\n      swap2\n      pop\n        /* \"#utility.yul\":3744:3863   */\n      pop\n        /* \"#utility.yul\":2817:3870   */\n      swap3\n      swap6\n      pop\n      swap3\n      swap6\n      pop\n      swap3\n      swap6\n      jump\t// out\n        /* \"#utility.yul\":3876:4205   */\n    tag_26:\n        /* \"#utility.yul\":3935:3941   */\n      0x00\n        /* \"#utility.yul\":3984:3986   */\n      0x20\n        /* \"#utility.yul\":3972:3981   */\n      dup3\n        /* \"#utility.yul\":3963:3970   */\n      dup5\n        /* \"#utility.yul\":3959:3982   */\n      sub\n        /* \"#utility.yul\":3955:3987   */\n      slt\n        /* \"#utility.yul\":3952:4071   */\n      iszero\n      tag_184\n      jumpi\n        /* \"#utility.yul\":3990:4069   */\n      tag_185\n      tag_106\n      jump\t// in\n    tag_185:\n        /* \"#utility.yul\":3952:4071   */\n    tag_184:\n        /* \"#utility.yul\":4110:4111   */\n      0x00\n        /* \"#utility.yul\":4135:4188   */\n      tag_186\n        /* \"#utility.yul\":4180:4187   */\n      dup5\n        /* \"#utility.yul\":4171:4177   */\n      dup3\n        /* \"#utility.yul\":4160:4169   */\n      dup6\n        /* \"#utility.yul\":4156:4178   */\n      add\n        /* \"#utility.yul\":4135:4188   */\n      tag_111\n      jump\t// in\n    tag_186:\n        /* \"#utility.yul\":4125:4188   */\n      swap2\n      pop\n        /* \"#utility.yul\":4081:4198   */\n      pop\n        /* \"#utility.yul\":3876:4205   */\n      swap3\n      swap2\n      pop\n      pop\n      jump\t// out\n        /* \"#utility.yul\":4211:4329   */\n    tag_123:\n        /* \"#utility.yul\":4298:4322   */\n      tag_188\n        /* \"#utility.yul\":4316:4321   */\n      dup2\n        /* \"#utility.yul\":4298:4322   */\n      tag_112\n      jump\t// in\n    tag_188:\n        /* \"#utility.yul\":4293:4296   */\n      dup3\n        /* \"#utility.yul\":4286:4323   */\n      mstore\n        /* \"#utility.yul\":4211:4329   */\n      pop\n      pop\n      jump\t// out\n        /* \"#utility.yul\":4335:4557   */\n    tag_29:\n        /* \"#utility.yul\":4428:4432   */\n      0x00\n        /* \"#utility.yul\":4466:4468   */\n      0x20\n        /* \"#utility.yul\":4455:4464   */\n      dup3\n        /* \"#utility.yul\":4451:4469   */\n      add\n        /* \"#utility.yul\":4443:4469   */\n      swap1\n      pop\n        /* \"#utility.yul\":4479:4550   */\n      tag_190\n        /* \"#utility.yul\":4547:4548   */\n      0x00\n        /* \"#utility.yul\":4536:4545   */\n      dup4\n        /* \"#utility.yul\":4532:4549   */\n      add\n        /* \"#utility.yul\":4523:4529   */\n      dup5\n        /* \"#utility.yul\":4479:4550   */\n      tag_123\n      jump\t// in\n    tag_190:\n        /* \"#utility.yul\":4335:4557   */\n      swap3\n      swap2\n      pop\n      pop\n      jump\t// out\n        /* \"#utility.yul\":4563:5037   */\n    tag_32:\n        /* \"#utility.yul\":4631:4637   */\n      0x00\n        /* \"#utility.yul\":4639:4645   */\n      dup1\n        /* \"#utility.yul\":4688:4690   */\n      0x40\n        /* \"#utility.yul\":4676:4685   */\n      dup4\n        /* \"#utility.yul\":4667:4674   */\n      dup6\n        /* \"#utility.yul\":4663:4686   */\n      sub\n        /* \"#utility.yul\":4659:4691   */\n      slt\n        /* \"#utility.yul\":4656:4775   */\n      iszero\n      tag_192\n      jumpi\n        /* \"#utility.yul\":4694:4773   */\n      tag_193\n      tag_106\n      jump\t// in\n    tag_193:\n        /* \"#utility.yul\":4656:4775   */\n    tag_192:\n        /* \"#utility.yul\":4814:4815   */\n      0x00\n        /* \"#utility.yul\":4839:4892   */\n      tag_194\n        /* \"#utility.yul\":4884:4891   */\n      dup6\n        /* \"#utility.yul\":4875:4881   */\n      dup3\n        /* \"#utility.yul\":4864:4873   */\n      dup7\n        /* \"#utility.yul\":4860:4882   */\n      add\n        /* \"#utility.yul\":4839:4892   */\n      tag_111\n      jump\t// in\n    tag_194:\n        /* \"#utility.yul\":4829:4892   */\n      swap3\n      pop\n        /* \"#utility.yul\":4785:4902   */\n      pop\n        /* \"#utility.yul\":4941:4943   */\n      0x20\n        /* \"#utility.yul\":4967:5020   */\n      tag_195\n        /* \"#utility.yul\":5012:5019   */\n      dup6\n        /* \"#utility.yul\":5003:5009   */\n      dup3\n        /* \"#utility.yul\":4992:5001   */\n      dup7\n        /* \"#utility.yul\":4988:5010   */\n      add\n        /* \"#utility.yul\":4967:5020   */\n      tag_111\n      jump\t// in\n    tag_195:\n        /* \"#utility.yul\":4957:5020   */\n      swap2\n      pop\n        /* \"#utility.yul\":4912:5030   */\n      pop\n        /* \"#utility.yul\":4563:5037   */\n      swap3\n      pop\n      swap3\n      swap1\n      pop\n      jump\t// out\n        /* \"#utility.yul\":5043:5223   */\n    tag_124:\n        /* \"#utility.yul\":5091:5168   */\n      0x4e487b7100000000000000000000000000000000000000000000000000000000\n        /* \"#utility.yul\":5088:5089   */\n      0x00\n        /* \"#utility.yul\":5081:5169   */\n      mstore\n        /* \"#utility.yul\":5188:5192   */\n      0x11\n        /* \"#utility.yul\":5185:5186   */\n      0x04\n        /* \"#utility.yul\":5178:5193   */\n      mstore\n        /* \"#utility.yul\":5212:5216   */\n      0x24\n        /* \"#utility.yul\":5209:5210   */\n      0x00\n        /* \"#utility.yul\":5202:5217   */\n      revert\n        /* \"#utility.yul\":5229:5420   */\n    tag_41:\n        /* \"#utility.yul\":5269:5272   */\n      0x00\n        /* \"#utility.yul\":5288:5308   */\n      tag_198\n        /* \"#utility.yul\":5306:5307   */\n      dup3\n        /* \"#utility.yul\":5288:5308   */\n      tag_112\n      jump\t// in\n    tag_198:\n        /* \"#utility.yul\":5283:5308   */\n      swap2\n      pop\n        /* \"#utility.yul\":5322:5342   */\n      tag_199\n        /* \"#utility.yul\":5340:5341   */\n      dup4\n        /* \"#utility.yul\":5322:5342   */\n      tag_112\n      jump\t// in\n    tag_199:\n        /* \"#utility.yul\":5317:5342   */\n      swap3\n      pop\n        /* \"#utility.yul\":5365:5366   */\n      dup3\n        /* \"#utility.yul\":5362:5363   */\n      dup3\n        /* \"#utility.yul\":5358:5367   */\n      add\n        /* \"#utility.yul\":5351:5367   */\n      swap1\n      pop\n        /* \"#utility.yul\":5386:5389   */\n      dup1\n        /* \"#utility.yul\":5383:5384   */\n      dup3\n        /* \"#utility.yul\":5380:5390   */\n      gt\n        /* \"#utility.yul\":5377:5413   */\n      iszero\n      tag_200\n      jumpi\n        /* \"#utility.yul\":5393:5411   */\n      tag_201\n      tag_124\n      jump\t// in\n    tag_201:\n        /* \"#utility.yul\":5377:5413   */\n    tag_200:\n        /* \"#utility.yul\":5229:5420   */\n      swap3\n      swap2\n      pop\n      pop\n      jump\t// out\n        /* \"#utility.yul\":5426:5544   */\n    tag_125:\n        /* \"#utility.yul\":5513:5537   */\n      tag_203\n        /* \"#utility.yul\":5531:5536   */\n      dup2\n        /* \"#utility.yul\":5513:5537   */\n      tag_109\n      jump\t// in\n    tag_203:\n        /* \"#utility.yul\":5508:5511   */\n      dup3\n        /* \"#utility.yul\":5501:5538   */\n      mstore\n        /* \"#utility.yul\":5426:5544   */\n      pop\n      pop\n      jump\t// out\n        /* \"#utility.yul\":5550:5662   */\n    tag_126:\n        /* \"#utility.yul\":5633:5655   */\n      tag_205\n        /* \"#utility.yul\":5649:5654   */\n      dup2\n        /* \"#utility.yul\":5633:5655   */\n      tag_117\n      jump\t// in\n    tag_205:\n        /* \"#utility.yul\":5628:5631   */\n      dup3\n        /* \"#utility.yul\":5621:5656   */\n      mstore\n        /* \"#utility.yul\":5550:5662   */\n      pop\n      pop\n      jump\t// out\n        /* \"#utility.yul\":5668:5786   */\n    tag_127:\n        /* \"#utility.yul\":5755:5779   */\n      tag_207\n        /* \"#utility.yul\":5773:5778   */\n      dup2\n        /* \"#utility.yul\":5755:5779   */\n      tag_120\n      jump\t// in\n    tag_207:\n        /* \"#utility.yul\":5750:5753   */\n      dup3\n        /* \"#utility.yul\":5743:5780   */\n      mstore\n        /* \"#utility.yul\":5668:5786   */\n      pop\n      pop\n      jump\t// out\n        /* \"#utility.yul\":5792:6670   */\n    tag_50:\n        /* \"#utility.yul\":6049:6053   */\n      0x00\n        /* \"#utility.yul\":6087:6090   */\n      0xe0\n        /* \"#utility.yul\":6076:6085   */\n      dup3\n        /* \"#utility.yul\":6072:6091   */\n      add\n        /* \"#utility.yul\":6064:6091   */\n      swap1\n      pop\n        /* \"#utility.yul\":6101:6172   */\n      tag_209\n        /* \"#utility.yul\":6169:6170   */\n      0x00\n        /* \"#utility.yul\":6158:6167   */\n      dup4\n        /* \"#utility.yul\":6154:6171   */\n      add\n        /* \"#utility.yul\":6145:6151   */\n      dup11\n        /* \"#utility.yul\":6101:6172   */\n      tag_125\n      jump\t// in\n    tag_209:\n        /* \"#utility.yul\":6182:6254   */\n      tag_210\n        /* \"#utility.yul\":6250:6252   */\n      0x20\n        /* \"#utility.yul\":6239:6248   */\n      dup4\n        /* \"#utility.yul\":6235:6253   */\n      add\n        /* \"#utility.yul\":6226:6232   */\n      dup10\n        /* \"#utility.yul\":6182:6254   */\n      tag_125\n      jump\t// in\n    tag_210:\n        /* \"#utility.yul\":6264:6336   */\n      tag_211\n        /* \"#utility.yul\":6332:6334   */\n      0x40\n        /* \"#utility.yul\":6321:6330   */\n      dup4\n        /* \"#utility.yul\":6317:6335   */\n      add\n        /* \"#utility.yul\":6308:6314   */\n      dup9\n        /* \"#utility.yul\":6264:6336   */\n      tag_123\n      jump\t// in\n    tag_211:\n        /* \"#utility.yul\":6346:6418   */\n      tag_212\n        /* \"#utility.yul\":6414:6416   */\n      0x60\n        /* \"#utility.yul\":6403:6412   */\n      dup4\n        /* \"#utility.yul\":6399:6417   */\n      add\n        /* \"#utility.yul\":6390:6396   */\n      dup8\n        /* \"#utility.yul\":6346:6418   */\n      tag_123\n      jump\t// in\n    tag_212:\n        /* \"#utility.yul\":6428:6497   */\n      tag_213\n        /* \"#utility.yul\":6492:6495   */\n      0x80\n        /* \"#utility.yul\":6481:6490   */\n      dup4\n        /* \"#utility.yul\":6477:6496   */\n      add\n        /* \"#utility.yul\":6468:6474   */\n      dup7\n        /* \"#utility.yul\":6428:6497   */\n      tag_126\n      jump\t// in\n    tag_213:\n        /* \"#utility.yul\":6507:6580   */\n      tag_214\n        /* \"#utility.yul\":6575:6578   */\n      0xa0\n        /* \"#utility.yul\":6564:6573   */\n      dup4\n        /* \"#utility.yul\":6560:6579   */\n      add\n        /* \"#utility.yul\":6551:6557   */\n      dup6\n        /* \"#utility.yul\":6507:6580   */\n      tag_127\n      jump\t// in\n    tag_214:\n        /* \"#utility.yul\":6590:6663   */\n      tag_215\n        /* \"#utility.yul\":6658:6661   */\n      0xc0\n        /* \"#utility.yul\":6647:6656   */\n      dup4\n        /* \"#utility.yul\":6643:6662   */\n      add\n        /* \"#utility.yul\":6634:6640   */\n      dup5\n        /* \"#utility.yul\":6590:6663   */\n      tag_127\n      jump\t// in\n    tag_215:\n        /* \"#utility.yul\":5792:6670   */\n      swap9\n      swap8\n      pop\n      pop\n      pop\n      pop\n      pop\n      pop\n      pop\n      pop\n      jump\t// out\n        /* \"#utility.yul\":6676:7008   */\n    tag_62:\n        /* \"#utility.yul\":6797:6801   */\n      0x00\n        /* \"#utility.yul\":6835:6837   */\n      0x40\n        /* \"#utility.yul\":6824:6833   */\n      dup3\n        /* \"#utility.yul\":6820:6838   */\n      add\n        /* \"#utility.yul\":6812:6838   */\n      swap1\n      pop\n        /* \"#utility.yul\":6848:6919   */\n      tag_217\n        /* \"#utility.yul\":6916:6917   */\n      0x00\n        /* \"#utility.yul\":6905:6914   */\n      dup4\n        /* \"#utility.yul\":6901:6918   */\n      add\n        /* \"#utility.yul\":6892:6898   */\n      dup6\n        /* \"#utility.yul\":6848:6919   */\n      tag_125\n      jump\t// in\n    tag_217:\n        /* \"#utility.yul\":6929:7001   */\n      tag_218\n        /* \"#utility.yul\":6997:6999   */\n      0x20\n        /* \"#utility.yul\":6986:6995   */\n      dup4\n        /* \"#utility.yul\":6982:7000   */\n      add\n        /* \"#utility.yul\":6973:6979   */\n      dup5\n        /* \"#utility.yul\":6929:7001   */\n      tag_123\n      jump\t// in\n    tag_218:\n        /* \"#utility.yul\":6676:7008   */\n      swap4\n      swap3\n      pop\n      pop\n      pop\n      jump\t// out\n        /* \"#utility.yul\":7014:7130   */\n    tag_128:\n        /* \"#utility.yul\":7084:7105   */\n      tag_220\n        /* \"#utility.yul\":7099:7104   */\n      dup2\n        /* \"#utility.yul\":7084:7105   */\n      tag_115\n      jump\t// in\n    tag_220:\n        /* \"#utility.yul\":7077:7082   */\n      dup2\n        /* \"#utility.yul\":7074:7106   */\n      eq\n        /* \"#utility.yul\":7064:7124   */\n      tag_221\n      jumpi\n        /* \"#utility.yul\":7120:7121   */\n      0x00\n        /* \"#utility.yul\":7117:7118   */\n      dup1\n        /* \"#utility.yul\":7110:7122   */\n      revert\n        /* \"#utility.yul\":7064:7124   */\n    tag_221:\n        /* \"#utility.yul\":7014:7130   */\n      pop\n      jump\t// out\n        /* \"#utility.yul\":7136:7273   */\n    tag_129:\n        /* \"#utility.yul\":7190:7195   */\n      0x00\n        /* \"#utility.yul\":7221:7227   */\n      dup2\n        /* \"#utility.yul\":7215:7228   */\n      mload\n        /* \"#utility.yul\":7206:7228   */\n      swap1\n      pop\n        /* \"#utility.yul\":7237:7267   */\n      tag_223\n        /* \"#utility.yul\":7261:7266   */\n      dup2\n        /* \"#utility.yul\":7237:7267   */\n      tag_128\n      jump\t// in\n    tag_223:\n        /* \"#utility.yul\":7136:7273   */\n      swap3\n      swap2\n      pop\n      pop\n      jump\t// out\n        /* \"#utility.yul\":7279:7624   */\n    tag_66:\n        /* \"#utility.yul\":7346:7352   */\n      0x00\n        /* \"#utility.yul\":7395:7397   */\n      0x20\n        /* \"#utility.yul\":7383:7392   */\n      dup3\n        /* \"#utility.yul\":7374:7381   */\n      dup5\n        /* \"#utility.yul\":7370:7393   */\n      sub\n        /* \"#utility.yul\":7366:7398   */\n      slt\n        /* \"#utility.yul\":7363:7482   */\n      iszero\n      tag_225\n      jumpi\n        /* \"#utility.yul\":7401:7480   */\n      tag_226\n      tag_106\n      jump\t// in\n    tag_226:\n        /* \"#utility.yul\":7363:7482   */\n    tag_225:\n        /* \"#utility.yul\":7521:7522   */\n      0x00\n        /* \"#utility.yul\":7546:7607   */\n      tag_227\n        /* \"#utility.yul\":7599:7606   */\n      dup5\n        /* \"#utility.yul\":7590:7596   */\n      dup3\n        /* \"#utility.yul\":7579:7588   */\n      dup6\n        /* \"#utility.yul\":7575:7597   */\n      add\n        /* \"#utility.yul\":7546:7607   */\n      tag_129\n      jump\t// in\n    tag_227:\n        /* \"#utility.yul\":7536:7607   */\n      swap2\n      pop\n        /* \"#utility.yul\":7492:7617   */\n      pop\n        /* \"#utility.yul\":7279:7624   */\n      swap3\n      swap2\n      pop\n      pop\n      jump\t// out\n        /* \"#utility.yul\":7630:8072   */\n    tag_71:\n        /* \"#utility.yul\":7779:7783   */\n      0x00\n        /* \"#utility.yul\":7817:7819   */\n      0x60\n        /* \"#utility.yul\":7806:7815   */\n      dup3\n        /* \"#utility.yul\":7802:7820   */\n      add\n        /* \"#utility.yul\":7794:7820   */\n      swap1\n      pop\n        /* \"#utility.yul\":7830:7901   */\n      tag_229\n        /* \"#utility.yul\":7898:7899   */\n      0x00\n        /* \"#utility.yul\":7887:7896   */\n      dup4\n        /* \"#utility.yul\":7883:7900   */\n      add\n        /* \"#utility.yul\":7874:7880   */\n      dup7\n        /* \"#utility.yul\":7830:7901   */\n      tag_125\n      jump\t// in\n    tag_229:\n        /* \"#utility.yul\":7911:7983   */\n      tag_230\n        /* \"#utility.yul\":7979:7981   */\n      0x20\n        /* \"#utility.yul\":7968:7977   */\n      dup4\n        /* \"#utility.yul\":7964:7982   */\n      add\n        /* \"#utility.yul\":7955:7961   */\n      dup6\n        /* \"#utility.yul\":7911:7983   */\n      tag_125\n      jump\t// in\n    tag_230:\n        /* \"#utility.yul\":7993:8065   */\n      tag_231\n        /* \"#utility.yul\":8061:8063   */\n      0x40\n        /* \"#utility.yul\":8050:8059   */\n      dup4\n        /* \"#utility.yul\":8046:8064   */\n      add\n        /* \"#utility.yul\":8037:8043   */\n      dup5\n        /* \"#utility.yul\":7993:8065   */\n      tag_123\n      jump\t// in\n    tag_231:\n        /* \"#utility.yul\":7630:8072   */\n      swap5\n      swap4\n      pop\n      pop\n      pop\n      pop\n      jump\t// out\n        /* \"#utility.yul\":8078:8300   */\n    tag_80:\n        /* \"#utility.yul\":8171:8175   */\n      0x00\n        /* \"#utility.yul\":8209:8211   */\n      0x20\n        /* \"#utility.yul\":8198:8207   */\n      dup3\n        /* \"#utility.yul\":8194:8212   */\n      add\n        /* \"#utility.yul\":8186:8212   */\n      swap1\n      pop\n        /* \"#utility.yul\":8222:8293   */\n      tag_233\n        /* \"#utility.yul\":8290:8291   */\n      0x00\n        /* \"#utility.yul\":8279:8288   */\n      dup4\n        /* \"#utility.yul\":8275:8292   */\n      add\n        /* \"#utility.yul\":8266:8272   */\n      dup5\n        /* \"#utility.yul\":8222:8293   */\n      tag_125\n      jump\t// in\n    tag_233:\n        /* \"#utility.yul\":8078:8300   */\n      swap3\n      swap2\n      pop\n      pop\n      jump\t// out\n        /* \"#utility.yul\":8306:8404   */\n    tag_130:\n        /* \"#utility.yul\":8357:8363   */\n      0x00\n        /* \"#utility.yul\":8391:8396   */\n      dup2\n        /* \"#utility.yul\":8385:8397   */\n      mload\n        /* \"#utility.yul\":8375:8397   */\n      swap1\n      pop\n        /* \"#utility.yul\":8306:8404   */\n      swap2\n      swap1\n      pop\n      jump\t// out\n        /* \"#utility.yul\":8410:8557   */\n    tag_131:\n        /* \"#utility.yul\":8511:8522   */\n      0x00\n        /* \"#utility.yul\":8548:8551   */\n      dup2\n        /* \"#utility.yul\":8533:8551   */\n      swap1\n      pop\n        /* \"#utility.yul\":8410:8557   */\n      swap3\n      swap2\n      pop\n      pop\n      jump\t// out\n        /* \"#utility.yul\":8563:8702   */\n    tag_132:\n        /* \"#utility.yul\":8652:8658   */\n      dup3\n        /* \"#utility.yul\":8647:8650   */\n      dup2\n        /* \"#utility.yul\":8642:8645   */\n      dup4\n        /* \"#utility.yul\":8636:8659   */\n      mcopy\n        /* \"#utility.yul\":8693:8694   */\n      0x00\n        /* \"#utility.yul\":8684:8690   */\n      dup4\n        /* \"#utility.yul\":8679:8682   */\n      dup4\n        /* \"#utility.yul\":8675:8691   */\n      add\n        /* \"#utility.yul\":8668:8695   */\n      mstore\n        /* \"#utility.yul\":8563:8702   */\n      pop\n      pop\n      pop\n      jump\t// out\n        /* \"#utility.yul\":8708:9094   */\n    tag_133:\n        /* \"#utility.yul\":8812:8815   */\n      0x00\n        /* \"#utility.yul\":8840:8878   */\n      tag_238\n        /* \"#utility.yul\":8872:8877   */\n      dup3\n        /* \"#utility.yul\":8840:8878   */\n      tag_130\n      jump\t// in\n    tag_238:\n        /* \"#utility.yul\":8894:8982   */\n      tag_239\n        /* \"#utility.yul\":8975:8981   */\n      dup2\n        /* \"#utility.yul\":8970:8973   */\n      dup6\n        /* \"#utility.yul\":8894:8982   */\n      tag_131\n      jump\t// in\n    tag_239:\n        /* \"#utility.yul\":8887:8982   */\n      swap4\n      pop\n        /* \"#utility.yul\":8991:9056   */\n      tag_240\n        /* \"#utility.yul\":9049:9055   */\n      dup2\n        /* \"#utility.yul\":9044:9047   */\n      dup6\n        /* \"#utility.yul\":9037:9041   */\n      0x20\n        /* \"#utility.yul\":9030:9035   */\n      dup7\n        /* \"#utility.yul\":9026:9042   */\n      add\n        /* \"#utility.yul\":8991:9056   */\n      tag_132\n      jump\t// in\n    tag_240:\n        /* \"#utility.yul\":9081:9087   */\n      dup1\n        /* \"#utility.yul\":9076:9079   */\n      dup5\n        /* \"#utility.yul\":9072:9088   */\n      add\n        /* \"#utility.yul\":9065:9088   */\n      swap2\n      pop\n        /* \"#utility.yul\":8816:9094   */\n      pop\n        /* \"#utility.yul\":8708:9094   */\n      swap3\n      swap2\n      pop\n      pop\n      jump\t// out\n        /* \"#utility.yul\":9100:9371   */\n    tag_88:\n        /* \"#utility.yul\":9230:9233   */\n      0x00\n        /* \"#utility.yul\":9252:9345   */\n      tag_242\n        /* \"#utility.yul\":9341:9344   */\n      dup3\n        /* \"#utility.yul\":9332:9338   */\n      dup5\n        /* \"#utility.yul\":9252:9345   */\n      tag_133\n      jump\t// in\n    tag_242:\n        /* \"#utility.yul\":9245:9345   */\n      swap2\n      pop\n        /* \"#utility.yul\":9362:9365   */\n      dup2\n        /* \"#utility.yul\":9355:9365   */\n      swap1\n      pop\n        /* \"#utility.yul\":9100:9371   */\n      swap3\n      swap2\n      pop\n      pop\n      jump\t// out\n\n    auxdata: 0xa264697066735822122072aa358bf284d71f5db5feb539f57fd6b23656cd1452ec72faced0c2390b81d364736f6c63430008190033\n}\n",
				"bytecode": {
					"linkReferences": {},
					"object": "6080604052348015600e575f80fd5b50610db98061001c5f395ff3fe608060405234801561000f575f80fd5b5060043610610060575f3560e01c806324a756d11461006457806347e7ef24146100945780636b9d159d146100c457806370a08231146100f4578063c23f001f14610124578063f3fef3a314610154575b5f80fd5b61007e60048036038101906100799190610963565b610184565b60405161008b91906109bb565b60405180910390f35b6100ae60048036038101906100a99190610963565b61021c565b6040516100bb91906109bb565b60405180910390f35b6100de60048036038101906100d99190610a3d565b6102fb565b6040516100eb91906109bb565b60405180910390f35b61010e60048036038101906101099190610ac6565b6103c1565b60405161011b9190610b00565b60405180910390f35b61013e60048036038101906101399190610b19565b610441565b60405161014b9190610b00565b60405180910390f35b61016e60048036038101906101699190610963565b610460565b60405161017b91906109bb565b60405180910390f35b5f815f803373ffffffffffffffffffffffffffffffffffffffff1673ffffffffffffffffffffffffffffffffffffffff1681526020019081526020015f205f8573ffffffffffffffffffffffffffffffffffffffff1673ffffffffffffffffffffffffffffffffffffffff1681526020019081526020015f205f82825461020b9190610b84565b925050819055506001905092915050565b5f815f8111610257576040517f7d12343e00000000000000000000000000000000000000000000000000000000815260040160405180910390fd5b6102638433308661060c565b825f808673ffffffffffffffffffffffffffffffffffffffff1673ffffffffffffffffffffffffffffffffffffffff1681526020019081526020015f205f3373ffffffffffffffffffffffffffffffffffffffff1673ffffffffffffffffffffffffffffffffffffffff1681526020019081526020015f205f8282546102e99190610b84565b92505081905550600191505092915050565b5f8673ffffffffffffffffffffffffffffffffffffffff1663d505accf333089898989896040518863ffffffff1660e01b81526004016103419796959493929190610be4565b5f604051808303815f87803b158015610358575f80fd5b505af115801561036a573d5f803e3d5ffd5b505050505f610379888861021c565b9050806103b2576040517f37a89cef00000000000000000000000000000000000000000000000000000000815260040160405180910390fd5b60019150509695505050505050565b5f805f8373ffffffffffffffffffffffffffffffffffffffff1673ffffffffffffffffffffffffffffffffffffffff1681526020019081526020015f205f3373ffffffffffffffffffffffffffffffffffffffff1673ffffffffffffffffffffffffffffffffffffffff1681526020019081526020015f20549050919050565b5f602052815f5260405f20602052805f5260405f205f91509150505481565b5f815f811161049b576040517f7d12343e00000000000000000000000000000000000000000000000000000000815260040160405180910390fd5b825f808673ffffffffffffffffffffffffffffffffffffffff1673ffffffffffffffffffffffffffffffffffffffff1681526020019081526020015f205f3373ffffffffffffffffffffffffffffffffffffffff1673ffffffffffffffffffffffffffffffffffffffff1681526020019081526020015f2054101561054b576040517e60b1ca00000000000000000000000000000000000000000000000000000000815260040160405180910390fd5b5f8473ffffffffffffffffffffffffffffffffffffffff1663a9059cbb33866040518363ffffffff1660e01b8152600401610587929190610c51565b6020604051808303815f875af11580156105a3573d5f803e3d5ffd5b505050506040513d601f19601f820116820180604052508101906105c79190610ca2565b905080610600576040517f8eda183b00000000000000000000000000000000000000000000000000000000815260040160405180910390fd5b60019250505092915050565b610688848573ffffffffffffffffffffffffffffffffffffffff166323b872dd86868660405160240161064193929190610ccd565b604051602081830303815290604052915060e01b6020820180517bffffffffffffffffffffffffffffffffffffffffffffffffffffffff838183161783525050505061068e565b50505050565b5f6106b8828473ffffffffffffffffffffffffffffffffffffffff1661072390919063ffffffff16565b90505f8151141580156106dc5750808060200190518101906106da9190610ca2565b155b1561071e57826040517f5274afe70000000000000000000000000000000000000000000000000000000081526004016107159190610d02565b60405180910390fd5b505050565b606061073083835f610738565b905092915050565b60608147101561077f57306040517fcd7860590000000000000000000000000000000000000000000000000000000081526004016107769190610d02565b60405180910390fd5b5f808573ffffffffffffffffffffffffffffffffffffffff1684866040516107a79190610d6d565b5f6040518083038185875af1925050503d805f81146107e1576040519150601f19603f3d011682016040523d82523d5f602084013e6107e6565b606091505b50915091506107f6868383610801565b925050509392505050565b606082610816576108118261088e565b610886565b5f825114801561083c57505f8473ffffffffffffffffffffffffffffffffffffffff163b145b1561087e57836040517f9996b3150000000000000000000000000000000000000000000000000000000081526004016108759190610d02565b60405180910390fd5b819050610887565b5b9392505050565b5f815111156108a05780518082602001fd5b6040517f1425ea4200000000000000000000000000000000000000000000000000000000815260040160405180910390fd5b5f80fd5b5f73ffffffffffffffffffffffffffffffffffffffff82169050919050565b5f6108ff826108d6565b9050919050565b61090f816108f5565b8114610919575f80fd5b50565b5f8135905061092a81610906565b92915050565b5f819050919050565b61094281610930565b811461094c575f80fd5b50565b5f8135905061095d81610939565b92915050565b5f8060408385031215610979576109786108d2565b5b5f6109868582860161091c565b92505060206109978582860161094f565b9150509250929050565b5f8115159050919050565b6109b5816109a1565b82525050565b5f6020820190506109ce5f8301846109ac565b92915050565b5f60ff82169050919050565b6109e9816109d4565b81146109f3575f80fd5b50565b5f81359050610a04816109e0565b92915050565b5f819050919050565b610a1c81610a0a565b8114610a26575f80fd5b50565b5f81359050610a3781610a13565b92915050565b5f805f805f8060c08789031215610a5757610a566108d2565b5b5f610a6489828a0161091c565b9650506020610a7589828a0161094f565b9550506040610a8689828a0161094f565b9450506060610a9789828a016109f6565b9350506080610aa889828a01610a29565b92505060a0610ab989828a01610a29565b9150509295509295509295565b5f60208284031215610adb57610ada6108d2565b5b5f610ae88482850161091c565b91505092915050565b610afa81610930565b82525050565b5f602082019050610b135f830184610af1565b92915050565b5f8060408385031215610b2f57610b2e6108d2565b5b5f610b3c8582860161091c565b9250506020610b4d8582860161091c565b9150509250929050565b7f4e487b71000000000000000000000000000000000000000000000000000000005f52601160045260245ffd5b5f610b8e82610930565b9150610b9983610930565b9250828201905080821115610bb157610bb0610b57565b5b92915050565b610bc0816108f5565b82525050565b610bcf816109d4565b82525050565b610bde81610a0a565b82525050565b5f60e082019050610bf75f83018a610bb7565b610c046020830189610bb7565b610c116040830188610af1565b610c1e6060830187610af1565b610c2b6080830186610bc6565b610c3860a0830185610bd5565b610c4560c0830184610bd5565b98975050505050505050565b5f604082019050610c645f830185610bb7565b610c716020830184610af1565b9392505050565b610c81816109a1565b8114610c8b575f80fd5b50565b5f81519050610c9c81610c78565b92915050565b5f60208284031215610cb757610cb66108d2565b5b5f610cc484828501610c8e565b91505092915050565b5f606082019050610ce05f830186610bb7565b610ced6020830185610bb7565b610cfa6040830184610af1565b949350505050565b5f602082019050610d155f830184610bb7565b92915050565b5f81519050919050565b5f81905092915050565b8281835e5f83830152505050565b5f610d4782610d1b565b610d518185610d25565b9350610d61818560208601610d2f565b80840191505092915050565b5f610d788284610d3d565b91508190509291505056fea264697066735822122072aa358bf284d71f5db5feb539f57fd6b23656cd1452ec72faced0c2390b81d364736f6c63430008190033",
					"opcodes": "PUSH1 0x80 PUSH1 0x40 MSTORE CALLVALUE DUP1 ISZERO PUSH1 0xE JUMPI PUSH0 DUP1 REVERT JUMPDEST POP PUSH2 0xDB9 DUP1 PUSH2 0x1C PUSH0 CODECOPY PUSH0 RETURN INVALID PUSH1 0x80 PUSH1 0x40 MSTORE CALLVALUE DUP1 ISZERO PUSH2 0xF JUMPI PUSH0 DUP1 REVERT JUMPDEST POP PUSH1 0x4 CALLDATASIZE LT PUSH2 0x60 JUMPI PUSH0 CALLDATALOAD PUSH1 0xE0 SHR DUP1 PUSH4 0x24A756D1 EQ PUSH2 0x64 JUMPI DUP1 PUSH4 0x47E7EF24 EQ PUSH2 0x94 JUMPI DUP1 PUSH4 0x6B9D159D EQ PUSH2 0xC4 JUMPI DUP1 PUSH4 0x70A08231 EQ PUSH2 0xF4 JUMPI DUP1 PUSH4 0xC23F001F EQ PUSH2 0x124 JUMPI DUP1 PUSH4 0xF3FEF3A3 EQ PUSH2 0x154 JUMPI JUMPDEST PUSH0 DUP1 REVERT JUMPDEST PUSH2 0x7E PUSH1 0x4 DUP1 CALLDATASIZE SUB DUP2 ADD SWAP1 PUSH2 0x79 SWAP2 SWAP1 PUSH2 0x963 JUMP JUMPDEST PUSH2 0x184 JUMP JUMPDEST PUSH1 0x40 MLOAD PUSH2 0x8B SWAP2 SWAP1 PUSH2 0x9BB JUMP JUMPDEST PUSH1 0x40 MLOAD DUP1 SWAP2 SUB SWAP1 RETURN JUMPDEST PUSH2 0xAE PUSH1 0x4 DUP1 CALLDATASIZE SUB DUP2 ADD SWAP1 PUSH2 0xA9 SWAP2 SWAP1 PUSH2 0x963 JUMP JUMPDEST PUSH2 0x21C JUMP JUMPDEST PUSH1 0x40 MLOAD PUSH2 0xBB SWAP2 SWAP1 PUSH2 0x9BB JUMP JUMPDEST PUSH1 0x40 MLOAD DUP1 SWAP2 SUB SWAP1 RETURN JUMPDEST PUSH2 0xDE PUSH1 0x4 DUP1 CALLDATASIZE SUB DUP2 ADD SWAP1 PUSH2 0xD9 SWAP2 SWAP1 PUSH2 0xA3D JUMP JUMPDEST PUSH2 0x2FB JUMP JUMPDEST PUSH1 0x40 MLOAD PUSH2 0xEB SWAP2 SWAP1 PUSH2 0x9BB JUMP JUMPDEST PUSH1 0x40 MLOAD DUP1 SWAP2 SUB SWAP1 RETURN JUMPDEST PUSH2 0x10E PUSH1 0x4 DUP1 CALLDATASIZE SUB DUP2 ADD SWAP1 PUSH2 0x109 SWAP2 SWAP1 PUSH2 0xAC6 JUMP JUMPDEST PUSH2 0x3C1 JUMP JUMPDEST PUSH1 0x40 MLOAD PUSH2 0x11B SWAP2 SWAP1 PUSH2 0xB00 JUMP JUMPDEST PUSH1 0x40 MLOAD DUP1 SWAP2 SUB SWAP1 RETURN JUMPDEST PUSH2 0x13E PUSH1 0x4 DUP1 CALLDATASIZE SUB DUP2 ADD SWAP1 PUSH2 0x139 SWAP2 SWAP1 PUSH2 0xB19 JUMP JUMPDEST PUSH2 0x441 JUMP JUMPDEST PUSH1 0x40 MLOAD PUSH2 0x14B SWAP2 SWAP1 PUSH2 0xB00 JUMP JUMPDEST PUSH1 0x40 MLOAD DUP1 SWAP2 SUB SWAP1 RETURN JUMPDEST PUSH2 0x16E PUSH1 0x4 DUP1 CALLDATASIZE SUB DUP2 ADD SWAP1 PUSH2 0x169 SWAP2 SWAP1 PUSH2 0x963 JUMP JUMPDEST PUSH2 0x460 JUMP JUMPDEST PUSH1 0x40 MLOAD PUSH2 0x17B SWAP2 SWAP1 PUSH2 0x9BB JUMP JUMPDEST PUSH1 0x40 MLOAD DUP1 SWAP2 SUB SWAP1 RETURN JUMPDEST PUSH0 DUP2 PUSH0 DUP1 CALLER PUSH20 0xFFFFFFFFFFFFFFFFFFFFFFFFFFFFFFFFFFFFFFFF AND PUSH20 0xFFFFFFFFFFFFFFFFFFFFFFFFFFFFFFFFFFFFFFFF AND DUP2 MSTORE PUSH1 0x20 ADD SWAP1 DUP2 MSTORE PUSH1 0x20 ADD PUSH0 KECCAK256 PUSH0 DUP6 PUSH20 0xFFFFFFFFFFFFFFFFFFFFFFFFFFFFFFFFFFFFFFFF AND PUSH20 0xFFFFFFFFFFFFFFFFFFFFFFFFFFFFFFFFFFFFFFFF AND DUP2 MSTORE PUSH1 0x20 ADD SWAP1 DUP2 MSTORE PUSH1 0x20 ADD PUSH0 KECCAK256 PUSH0 DUP3 DUP3 SLOAD PUSH2 0x20B SWAP2 SWAP1 PUSH2 0xB84 JUMP JUMPDEST SWAP3 POP POP DUP2 SWAP1 SSTORE POP PUSH1 0x1 SWAP1 POP SWAP3 SWAP2 POP POP JUMP JUMPDEST PUSH0 DUP2 PUSH0 DUP2 GT PUSH2 0x257 JUMPI PUSH1 0x40 MLOAD PUSH32 0x7D12343E00000000000000000000000000000000000000000000000000000000 DUP2 MSTORE PUSH1 0x4 ADD PUSH1 0x40 MLOAD DUP1 SWAP2 SUB SWAP1 REVERT JUMPDEST PUSH2 0x263 DUP5 CALLER ADDRESS DUP7 PUSH2 0x60C JUMP JUMPDEST DUP3 PUSH0 DUP1 DUP7 PUSH20 0xFFFFFFFFFFFFFFFFFFFFFFFFFFFFFFFFFFFFFFFF AND PUSH20 0xFFFFFFFFFFFFFFFFFFFFFFFFFFFFFFFFFFFFFFFF AND DUP2 MSTORE PUSH1 0x20 ADD SWAP1 DUP2 MSTORE PUSH1 0x20 ADD PUSH0 KECCAK256 PUSH0 CALLER PUSH20 0xFFFFFFFFFFFFFFFFFFFFFFFFFFFFFFFFFFFFFFFF AND PUSH20 0xFFFFFFFFFFFFFFFFFFFFFFFFFFFFFFFFFFFFFFFF AND DUP2 MSTORE PUSH1 0x20 ADD SWAP1 DUP2 MSTORE PUSH1 0x20 ADD PUSH0 KECCAK256 PUSH0 DUP3 DUP3 SLOAD PUSH2 0x2E9 SWAP2 SWAP1 PUSH2 0xB84 JUMP JUMPDEST SWAP3 POP POP DUP2 SWAP1 SSTORE POP PUSH1 0x1 SWAP2 POP POP SWAP3 SWAP2 POP POP JUMP JUMPDEST PUSH0 DUP7 PUSH20 0xFFFFFFFFFFFFFFFFFFFFFFFFFFFFFFFFFFFFFFFF AND PUSH4 0xD505ACCF CALLER ADDRESS DUP10 DUP10 DUP10 DUP10 DUP10 PUSH1 0x40 MLOAD DUP9 PUSH4 0xFFFFFFFF AND PUSH1 0xE0 SHL DUP2 MSTORE PUSH1 0x4 ADD PUSH2 0x341 SWAP8 SWAP7 SWAP6 SWAP5 SWAP4 SWAP3 SWAP2 SWAP1 PUSH2 0xBE4 JUMP JUMPDEST PUSH0 PUSH1 0x40 MLOAD DUP1 DUP4 SUB DUP2 PUSH0 DUP8 DUP1 EXTCODESIZE ISZERO DUP1 ISZERO PUSH2 0x358 JUMPI PUSH0 DUP1 REVERT JUMPDEST POP GAS CALL ISZERO DUP1 ISZERO PUSH2 0x36A JUMPI RETURNDATASIZE PUSH0 DUP1 RETURNDATACOPY RETURNDATASIZE PUSH0 REVERT JUMPDEST POP POP POP POP PUSH0 PUSH2 0x379 DUP9 DUP9 PUSH2 0x21C JUMP JUMPDEST SWAP1 POP DUP1 PUSH2 0x3B2 JUMPI PUSH1 0x40 MLOAD PUSH32 0x37A89CEF00000000000000000000000000000000000000000000000000000000 DUP2 MSTORE PUSH1 0x4 ADD PUSH1 0x40 MLOAD DUP1 SWAP2 SUB SWAP1 REVERT JUMPDEST PUSH1 0x1 SWAP2 POP POP SWAP7 SWAP6 POP POP POP POP POP POP JUMP JUMPDEST PUSH0 DUP1 PUSH0 DUP4 PUSH20 0xFFFFFFFFFFFFFFFFFFFFFFFFFFFFFFFFFFFFFFFF AND PUSH20 0xFFFFFFFFFFFFFFFFFFFFFFFFFFFFFFFFFFFFFFFF AND DUP2 MSTORE PUSH1 0x20 ADD SWAP1 DUP2 MSTORE PUSH1 0x20 ADD PUSH0 KECCAK256 PUSH0 CALLER PUSH20 0xFFFFFFFFFFFFFFFFFFFFFFFFFFFFFFFFFFFFFFFF AND PUSH20 0xFFFFFFFFFFFFFFFFFFFFFFFFFFFFFFFFFFFFFFFF AND DUP2 MSTORE PUSH1 0x20 ADD SWAP1 DUP2 MSTORE PUSH1 0x20 ADD PUSH0 KECCAK256 SLOAD SWAP1 POP SWAP2 SWAP1 POP JUMP JUMPDEST PUSH0 PUSH1 0x20 MSTORE DUP2 PUSH0 MSTORE PUSH1 0x40 PUSH0 KECCAK256 PUSH1 0x20 MSTORE DUP1 PUSH0 MSTORE PUSH1 0x40 PUSH0 KECCAK256 PUSH0 SWAP2 POP SWAP2 POP POP SLOAD DUP2 JUMP JUMPDEST PUSH0 DUP2 PUSH0 DUP2 GT PUSH2 0x49B JUMPI PUSH1 0x40 MLOAD PUSH32 0x7D12343E00000000000000000000000000000000000000000000000000000000 DUP2 MSTORE PUSH1 0x4 ADD PUSH1 0x40 MLOAD DUP1 SWAP2 SUB SWAP1 REVERT JUMPDEST DUP3 PUSH0 DUP1 DUP7 PUSH20 0xFFFFFFFFFFFFFFFFFFFFFFFFFFFFFFFFFFFFFFFF AND PUSH20 0xFFFFFFFFFFFFFFFFFFFFFFFFFFFFFFFFFFFFFFFF AND DUP2 MSTORE PUSH1 0x20 ADD SWAP1 DUP2 MSTORE PUSH1 0x20 ADD PUSH0 KECCAK256 PUSH0 CALLER PUSH20 0xFFFFFFFFFFFFFFFFFFFFFFFFFFFFFFFFFFFFFFFF AND PUSH20 0xFFFFFFFFFFFFFFFFFFFFFFFFFFFFFFFFFFFFFFFF AND DUP2 MSTORE PUSH1 0x20 ADD SWAP1 DUP2 MSTORE PUSH1 0x20 ADD PUSH0 KECCAK256 SLOAD LT ISZERO PUSH2 0x54B JUMPI PUSH1 0x40 MLOAD PUSH31 0x60B1CA00000000000000000000000000000000000000000000000000000000 DUP2 MSTORE PUSH1 0x4 ADD PUSH1 0x40 MLOAD DUP1 SWAP2 SUB SWAP1 REVERT JUMPDEST PUSH0 DUP5 PUSH20 0xFFFFFFFFFFFFFFFFFFFFFFFFFFFFFFFFFFFFFFFF AND PUSH4 0xA9059CBB CALLER DUP7 PUSH1 0x40 MLOAD DUP4 PUSH4 0xFFFFFFFF AND PUSH1 0xE0 SHL DUP2 MSTORE PUSH1 0x4 ADD PUSH2 0x587 SWAP3 SWAP2 SWAP1 PUSH2 0xC51 JUMP JUMPDEST PUSH1 0x20 PUSH1 0x40 MLOAD DUP1 DUP4 SUB DUP2 PUSH0 DUP8 GAS CALL ISZERO DUP1 ISZERO PUSH2 0x5A3 JUMPI RETURNDATASIZE PUSH0 DUP1 RETURNDATACOPY RETURNDATASIZE PUSH0 REVERT JUMPDEST POP POP POP POP PUSH1 0x40 MLOAD RETURNDATASIZE PUSH1 0x1F NOT PUSH1 0x1F DUP3 ADD AND DUP3 ADD DUP1 PUSH1 0x40 MSTORE POP DUP2 ADD SWAP1 PUSH2 0x5C7 SWAP2 SWAP1 PUSH2 0xCA2 JUMP JUMPDEST SWAP1 POP DUP1 PUSH2 0x600 JUMPI PUSH1 0x40 MLOAD PUSH32 0x8EDA183B00000000000000000000000000000000000000000000000000000000 DUP2 MSTORE PUSH1 0x4 ADD PUSH1 0x40 MLOAD DUP1 SWAP2 SUB SWAP1 REVERT JUMPDEST PUSH1 0x1 SWAP3 POP POP POP SWAP3 SWAP2 POP POP JUMP JUMPDEST PUSH2 0x688 DUP5 DUP6 PUSH20 0xFFFFFFFFFFFFFFFFFFFFFFFFFFFFFFFFFFFFFFFF AND PUSH4 0x23B872DD DUP7 DUP7 DUP7 PUSH1 0x40 MLOAD PUSH1 0x24 ADD PUSH2 0x641 SWAP4 SWAP3 SWAP2 SWAP1 PUSH2 0xCCD JUMP JUMPDEST PUSH1 0x40 MLOAD PUSH1 0x20 DUP2 DUP4 SUB SUB DUP2 MSTORE SWAP1 PUSH1 0x40 MSTORE SWAP2 POP PUSH1 0xE0 SHL PUSH1 0x20 DUP3 ADD DUP1 MLOAD PUSH28 0xFFFFFFFFFFFFFFFFFFFFFFFFFFFFFFFFFFFFFFFFFFFFFFFFFFFFFFFF DUP4 DUP2 DUP4 AND OR DUP4 MSTORE POP POP POP POP PUSH2 0x68E JUMP JUMPDEST POP POP POP POP JUMP JUMPDEST PUSH0 PUSH2 0x6B8 DUP3 DUP5 PUSH20 0xFFFFFFFFFFFFFFFFFFFFFFFFFFFFFFFFFFFFFFFF AND PUSH2 0x723 SWAP1 SWAP2 SWAP1 PUSH4 0xFFFFFFFF AND JUMP JUMPDEST SWAP1 POP PUSH0 DUP2 MLOAD EQ ISZERO DUP1 ISZERO PUSH2 0x6DC JUMPI POP DUP1 DUP1 PUSH1 0x20 ADD SWAP1 MLOAD DUP2 ADD SWAP1 PUSH2 0x6DA SWAP2 SWAP1 PUSH2 0xCA2 JUMP JUMPDEST ISZERO JUMPDEST ISZERO PUSH2 0x71E JUMPI DUP3 PUSH1 0x40 MLOAD PUSH32 0x5274AFE700000000000000000000000000000000000000000000000000000000 DUP2 MSTORE PUSH1 0x4 ADD PUSH2 0x715 SWAP2 SWAP1 PUSH2 0xD02 JUMP JUMPDEST PUSH1 0x40 MLOAD DUP1 SWAP2 SUB SWAP1 REVERT JUMPDEST POP POP POP JUMP JUMPDEST PUSH1 0x60 PUSH2 0x730 DUP4 DUP4 PUSH0 PUSH2 0x738 JUMP JUMPDEST SWAP1 POP SWAP3 SWAP2 POP POP JUMP JUMPDEST PUSH1 0x60 DUP2 SELFBALANCE LT ISZERO PUSH2 0x77F JUMPI ADDRESS PUSH1 0x40 MLOAD PUSH32 0xCD78605900000000000000000000000000000000000000000000000000000000 DUP2 MSTORE PUSH1 0x4 ADD PUSH2 0x776 SWAP2 SWAP1 PUSH2 0xD02 JUMP JUMPDEST PUSH1 0x40 MLOAD DUP1 SWAP2 SUB SWAP1 REVERT JUMPDEST PUSH0 DUP1 DUP6 PUSH20 0xFFFFFFFFFFFFFFFFFFFFFFFFFFFFFFFFFFFFFFFF AND DUP5 DUP7 PUSH1 0x40 MLOAD PUSH2 0x7A7 SWAP2 SWAP1 PUSH2 0xD6D JUMP JUMPDEST PUSH0 PUSH1 0x40 MLOAD DUP1 DUP4 SUB DUP2 DUP6 DUP8 GAS CALL SWAP3 POP POP POP RETURNDATASIZE DUP1 PUSH0 DUP2 EQ PUSH2 0x7E1 JUMPI PUSH1 0x40 MLOAD SWAP2 POP PUSH1 0x1F NOT PUSH1 0x3F RETURNDATASIZE ADD AND DUP3 ADD PUSH1 0x40 MSTORE RETURNDATASIZE DUP3 MSTORE RETURNDATASIZE PUSH0 PUSH1 0x20 DUP5 ADD RETURNDATACOPY PUSH2 0x7E6 JUMP JUMPDEST PUSH1 0x60 SWAP2 POP JUMPDEST POP SWAP2 POP SWAP2 POP PUSH2 0x7F6 DUP7 DUP4 DUP4 PUSH2 0x801 JUMP JUMPDEST SWAP3 POP POP POP SWAP4 SWAP3 POP POP POP JUMP JUMPDEST PUSH1 0x60 DUP3 PUSH2 0x816 JUMPI PUSH2 0x811 DUP3 PUSH2 0x88E JUMP JUMPDEST PUSH2 0x886 JUMP JUMPDEST PUSH0 DUP3 MLOAD EQ DUP1 ISZERO PUSH2 0x83C JUMPI POP PUSH0 DUP5 PUSH20 0xFFFFFFFFFFFFFFFFFFFFFFFFFFFFFFFFFFFFFFFF AND EXTCODESIZE EQ JUMPDEST ISZERO PUSH2 0x87E JUMPI DUP4 PUSH1 0x40 MLOAD PUSH32 0x9996B31500000000000000000000000000000000000000000000000000000000 DUP2 MSTORE PUSH1 0x4 ADD PUSH2 0x875 SWAP2 SWAP1 PUSH2 0xD02 JUMP JUMPDEST PUSH1 0x40 MLOAD DUP1 SWAP2 SUB SWAP1 REVERT JUMPDEST DUP2 SWAP1 POP PUSH2 0x887 JUMP JUMPDEST JUMPDEST SWAP4 SWAP3 POP POP POP JUMP JUMPDEST PUSH0 DUP2 MLOAD GT ISZERO PUSH2 0x8A0 JUMPI DUP1 MLOAD DUP1 DUP3 PUSH1 0x20 ADD REVERT JUMPDEST PUSH1 0x40 MLOAD PUSH32 0x1425EA4200000000000000000000000000000000000000000000000000000000 DUP2 MSTORE PUSH1 0x4 ADD PUSH1 0x40 MLOAD DUP1 SWAP2 SUB SWAP1 REVERT JUMPDEST PUSH0 DUP1 REVERT JUMPDEST PUSH0 PUSH20 0xFFFFFFFFFFFFFFFFFFFFFFFFFFFFFFFFFFFFFFFF DUP3 AND SWAP1 POP SWAP2 SWAP1 POP JUMP JUMPDEST PUSH0 PUSH2 0x8FF DUP3 PUSH2 0x8D6 JUMP JUMPDEST SWAP1 POP SWAP2 SWAP1 POP JUMP JUMPDEST PUSH2 0x90F DUP2 PUSH2 0x8F5 JUMP JUMPDEST DUP2 EQ PUSH2 0x919 JUMPI PUSH0 DUP1 REVERT JUMPDEST POP JUMP JUMPDEST PUSH0 DUP2 CALLDATALOAD SWAP1 POP PUSH2 0x92A DUP2 PUSH2 0x906 JUMP JUMPDEST SWAP3 SWAP2 POP POP JUMP JUMPDEST PUSH0 DUP2 SWAP1 POP SWAP2 SWAP1 POP JUMP JUMPDEST PUSH2 0x942 DUP2 PUSH2 0x930 JUMP JUMPDEST DUP2 EQ PUSH2 0x94C JUMPI PUSH0 DUP1 REVERT JUMPDEST POP JUMP JUMPDEST PUSH0 DUP2 CALLDATALOAD SWAP1 POP PUSH2 0x95D DUP2 PUSH2 0x939 JUMP JUMPDEST SWAP3 SWAP2 POP POP JUMP JUMPDEST PUSH0 DUP1 PUSH1 0x40 DUP4 DUP6 SUB SLT ISZERO PUSH2 0x979 JUMPI PUSH2 0x978 PUSH2 0x8D2 JUMP JUMPDEST JUMPDEST PUSH0 PUSH2 0x986 DUP6 DUP3 DUP7 ADD PUSH2 0x91C JUMP JUMPDEST SWAP3 POP POP PUSH1 0x20 PUSH2 0x997 DUP6 DUP3 DUP7 ADD PUSH2 0x94F JUMP JUMPDEST SWAP2 POP POP SWAP3 POP SWAP3 SWAP1 POP JUMP JUMPDEST PUSH0 DUP2 ISZERO ISZERO SWAP1 POP SWAP2 SWAP1 POP JUMP JUMPDEST PUSH2 0x9B5 DUP2 PUSH2 0x9A1 JUMP JUMPDEST DUP3 MSTORE POP POP JUMP JUMPDEST PUSH0 PUSH1 0x20 DUP3 ADD SWAP1 POP PUSH2 0x9CE PUSH0 DUP4 ADD DUP5 PUSH2 0x9AC JUMP JUMPDEST SWAP3 SWAP2 POP POP JUMP JUMPDEST PUSH0 PUSH1 0xFF DUP3 AND SWAP1 POP SWAP2 SWAP1 POP JUMP JUMPDEST PUSH2 0x9E9 DUP2 PUSH2 0x9D4 JUMP JUMPDEST DUP2 EQ PUSH2 0x9F3 JUMPI PUSH0 DUP1 REVERT JUMPDEST POP JUMP JUMPDEST PUSH0 DUP2 CALLDATALOAD SWAP1 POP PUSH2 0xA04 DUP2 PUSH2 0x9E0 JUMP JUMPDEST SWAP3 SWAP2 POP POP JUMP JUMPDEST PUSH0 DUP2 SWAP1 POP SWAP2 SWAP1 POP JUMP JUMPDEST PUSH2 0xA1C DUP2 PUSH2 0xA0A JUMP JUMPDEST DUP2 EQ PUSH2 0xA26 JUMPI PUSH0 DUP1 REVERT JUMPDEST POP JUMP JUMPDEST PUSH0 DUP2 CALLDATALOAD SWAP1 POP PUSH2 0xA37 DUP2 PUSH2 0xA13 JUMP JUMPDEST SWAP3 SWAP2 POP POP JUMP JUMPDEST PUSH0 DUP1 PUSH0 DUP1 PUSH0 DUP1 PUSH1 0xC0 DUP8 DUP10 SUB SLT ISZERO PUSH2 0xA57 JUMPI PUSH2 0xA56 PUSH2 0x8D2 JUMP JUMPDEST JUMPDEST PUSH0 PUSH2 0xA64 DUP10 DUP3 DUP11 ADD PUSH2 0x91C JUMP JUMPDEST SWAP7 POP POP PUSH1 0x20 PUSH2 0xA75 DUP10 DUP3 DUP11 ADD PUSH2 0x94F JUMP JUMPDEST SWAP6 POP POP PUSH1 0x40 PUSH2 0xA86 DUP10 DUP3 DUP11 ADD PUSH2 0x94F JUMP JUMPDEST SWAP5 POP POP PUSH1 0x60 PUSH2 0xA97 DUP10 DUP3 DUP11 ADD PUSH2 0x9F6 JUMP JUMPDEST SWAP4 POP POP PUSH1 0x80 PUSH2 0xAA8 DUP10 DUP3 DUP11 ADD PUSH2 0xA29 JUMP JUMPDEST SWAP3 POP POP PUSH1 0xA0 PUSH2 0xAB9 DUP10 DUP3 DUP11 ADD PUSH2 0xA29 JUMP JUMPDEST SWAP2 POP POP SWAP3 SWAP6 POP SWAP3 SWAP6 POP SWAP3 SWAP6 JUMP JUMPDEST PUSH0 PUSH1 0x20 DUP3 DUP5 SUB SLT ISZERO PUSH2 0xADB JUMPI PUSH2 0xADA PUSH2 0x8D2 JUMP JUMPDEST JUMPDEST PUSH0 PUSH2 0xAE8 DUP5 DUP3 DUP6 ADD PUSH2 0x91C JUMP JUMPDEST SWAP2 POP POP SWAP3 SWAP2 POP POP JUMP JUMPDEST PUSH2 0xAFA DUP2 PUSH2 0x930 JUMP JUMPDEST DUP3 MSTORE POP POP JUMP JUMPDEST PUSH0 PUSH1 0x20 DUP3 ADD SWAP1 POP PUSH2 0xB13 PUSH0 DUP4 ADD DUP5 PUSH2 0xAF1 JUMP JUMPDEST SWAP3 SWAP2 POP POP JUMP JUMPDEST PUSH0 DUP1 PUSH1 0x40 DUP4 DUP6 SUB SLT ISZERO PUSH2 0xB2F JUMPI PUSH2 0xB2E PUSH2 0x8D2 JUMP JUMPDEST JUMPDEST PUSH0 PUSH2 0xB3C DUP6 DUP3 DUP7 ADD PUSH2 0x91C JUMP JUMPDEST SWAP3 POP POP PUSH1 0x20 PUSH2 0xB4D DUP6 DUP3 DUP7 ADD PUSH2 0x91C JUMP JUMPDEST SWAP2 POP POP SWAP3 POP SWAP3 SWAP1 POP JUMP JUMPDEST PUSH32 0x4E487B7100000000000000000000000000000000000000000000000000000000 PUSH0 MSTORE PUSH1 0x11 PUSH1 0x4 MSTORE PUSH1 0x24 PUSH0 REVERT JUMPDEST PUSH0 PUSH2 0xB8E DUP3 PUSH2 0x930 JUMP JUMPDEST SWAP2 POP PUSH2 0xB99 DUP4 PUSH2 0x930 JUMP JUMPDEST SWAP3 POP DUP3 DUP3 ADD SWAP1 POP DUP1 DUP3 GT ISZERO PUSH2 0xBB1 JUMPI PUSH2 0xBB0 PUSH2 0xB57 JUMP JUMPDEST JUMPDEST SWAP3 SWAP2 POP POP JUMP JUMPDEST PUSH2 0xBC0 DUP2 PUSH2 0x8F5 JUMP JUMPDEST DUP3 MSTORE POP POP JUMP JUMPDEST PUSH2 0xBCF DUP2 PUSH2 0x9D4 JUMP JUMPDEST DUP3 MSTORE POP POP JUMP JUMPDEST PUSH2 0xBDE DUP2 PUSH2 0xA0A JUMP JUMPDEST DUP3 MSTORE POP POP JUMP JUMPDEST PUSH0 PUSH1 0xE0 DUP3 ADD SWAP1 POP PUSH2 0xBF7 PUSH0 DUP4 ADD DUP11 PUSH2 0xBB7 JUMP JUMPDEST PUSH2 0xC04 PUSH1 0x20 DUP4 ADD DUP10 PUSH2 0xBB7 JUMP JUMPDEST PUSH2 0xC11 PUSH1 0x40 DUP4 ADD DUP9 PUSH2 0xAF1 JUMP JUMPDEST PUSH2 0xC1E PUSH1 0x60 DUP4 ADD DUP8 PUSH2 0xAF1 JUMP JUMPDEST PUSH2 0xC2B PUSH1 0x80 DUP4 ADD DUP7 PUSH2 0xBC6 JUMP JUMPDEST PUSH2 0xC38 PUSH1 0xA0 DUP4 ADD DUP6 PUSH2 0xBD5 JUMP JUMPDEST PUSH2 0xC45 PUSH1 0xC0 DUP4 ADD DUP5 PUSH2 0xBD5 JUMP JUMPDEST SWAP9 SWAP8 POP POP POP POP POP POP POP POP JUMP JUMPDEST PUSH0 PUSH1 0x40 DUP3 ADD SWAP1 POP PUSH2 0xC64 PUSH0 DUP4 ADD DUP6 PUSH2 0xBB7 JUMP JUMPDEST PUSH2 0xC71 PUSH1 0x20 DUP4 ADD DUP5 PUSH2 0xAF1 JUMP JUMPDEST SWAP4 SWAP3 POP POP POP JUMP JUMPDEST PUSH2 0xC81 DUP2 PUSH2 0x9A1 JUMP JUMPDEST DUP2 EQ PUSH2 0xC8B JUMPI PUSH0 DUP1 REVERT JUMPDEST POP JUMP JUMPDEST PUSH0 DUP2 MLOAD SWAP1 POP PUSH2 0xC9C DUP2 PUSH2 0xC78 JUMP JUMPDEST SWAP3 SWAP2 POP POP JUMP JUMPDEST PUSH0 PUSH1 0x20 DUP3 DUP5 SUB SLT ISZERO PUSH2 0xCB7 JUMPI PUSH2 0xCB6 PUSH2 0x8D2 JUMP JUMPDEST JUMPDEST PUSH0 PUSH2 0xCC4 DUP5 DUP3 DUP6 ADD PUSH2 0xC8E JUMP JUMPDEST SWAP2 POP POP SWAP3 SWAP2 POP POP JUMP JUMPDEST PUSH0 PUSH1 0x60 DUP3 ADD SWAP1 POP PUSH2 0xCE0 PUSH0 DUP4 ADD DUP7 PUSH2 0xBB7 JUMP JUMPDEST PUSH2 0xCED PUSH1 0x20 DUP4 ADD DUP6 PUSH2 0xBB7 JUMP JUMPDEST PUSH2 0xCFA PUSH1 0x40 DUP4 ADD DUP5 PUSH2 0xAF1 JUMP JUMPDEST SWAP5 SWAP4 POP POP POP POP JUMP JUMPDEST PUSH0 PUSH1 0x20 DUP3 ADD SWAP1 POP PUSH2 0xD15 PUSH0 DUP4 ADD DUP5 PUSH2 0xBB7 JUMP JUMPDEST SWAP3 SWAP2 POP POP JUMP JUMPDEST PUSH0 DUP2 MLOAD SWAP1 POP SWAP2 SWAP1 POP JUMP JUMPDEST PUSH0 DUP2 SWAP1 POP SWAP3 SWAP2 POP POP JUMP JUMPDEST DUP3 DUP2 DUP4 MCOPY PUSH0 DUP4 DUP4 ADD MSTORE POP POP POP JUMP JUMPDEST PUSH0 PUSH2 0xD47 DUP3 PUSH2 0xD1B JUMP JUMPDEST PUSH2 0xD51 DUP2 DUP6 PUSH2 0xD25 JUMP JUMPDEST SWAP4 POP PUSH2 0xD61 DUP2 DUP6 PUSH1 0x20 DUP7 ADD PUSH2 0xD2F JUMP JUMPDEST DUP1 DUP5 ADD SWAP2 POP POP SWAP3 SWAP2 POP POP JUMP JUMPDEST PUSH0 PUSH2 0xD78 DUP3 DUP5 PUSH2 0xD3D JUMP JUMPDEST SWAP2 POP DUP2 SWAP1 POP SWAP3 SWAP2 POP POP JUMP INVALID LOG2 PUSH5 0x6970667358 0x22 SLT KECCAK256 PUSH19 0xAA358BF284D71F5DB5FEB539F57FD6B23656CD EQ MSTORE 0xEC PUSH19 0xFACED0C2390B81D364736F6C63430008190033 "
				},
				"gasEstimates": {
					"creation": {
						"codeDepositCost": "702600",
						"executionCost": "732",
						"totalCost": "703332"
					},
					"external": {
						"balanceOf(address)": "2960",
						"balances(address,address)": "infinite",
						"deposit(address,uint256)": "infinite",
						"depositPermit(address,uint256,uint256,uint8,bytes32,bytes32)": "infinite",
						"tokensReceived(address,uint256)": "infinite",
						"withdraw(address,uint256)": "infinite"
					}
				},
				"methodIdentifiers": {
					"balanceOf(address)": "70a08231",
					"balances(address,address)": "c23f001f",
					"deposit(address,uint256)": "47e7ef24",
					"depositPermit(address,uint256,uint256,uint8,bytes32,bytes32)": "6b9d159d",
					"tokensReceived(address,uint256)": "24a756d1",
					"withdraw(address,uint256)": "f3fef3a3"
				}
			},
			"storageLayout": {
				"storage": [
					{
						"astId": 694,
						"contract": "src/Vault.sol:Vault",
						"label": "balances",
						"offset": 0,
						"slot": "0",
						"type": "t_mapping(t_address,t_mapping(t_address,t_uint256))"
					}
				],
				"types": {
					"t_address": {
						"encoding": "inplace",
						"label": "address",
						"numberOfBytes": "20"
					},
					"t_mapping(t_address,t_mapping(t_address,t_uint256))": {
						"encoding": "mapping",
						"key": "t_address",
						"label": "mapping(address => mapping(address => uint256))",
						"numberOfBytes": "32",
						"value": "t_mapping(t_address,t_uint256)"
					},
					"t_mapping(t_address,t_uint256)": {
						"encoding": "mapping",
						"key": "t_address",
						"label": "mapping(address => uint256)",
						"numberOfBytes": "32",
						"value": "t_uint256"
					},
					"t_uint256": {
						"encoding": "inplace",
						"label": "uint256",
						"numberOfBytes": "32"
					}
				}
			},
			"userdoc": {
				"kind": "user",
				"methods": {
					"deposit(address,uint256)": {
						"notice": "method 1  approve + deposit(transferFrom) 两笔交易"
					},
					"depositPermit(address,uint256,uint256,uint8,bytes32,bytes32)": {
						"notice": "method 3 permit"
					},
					"tokensReceived(address,uint256)": {
						"notice": "method 2 tokenReceived  (也可以用erc777实现，不过777现在已经废弃了) user - erc - vault 一笔交易  实现方法在token合约中"
					}
				},
				"version": 1
			}
		}
	}
}