{
	"src/Bank.sol": {
		"Bank": {
			"abi": [
				{
					"inputs": [
						{
							"internalType": "address",
							"name": "_token",
							"type": "address"
						}
					],
					"stateMutability": "nonpayable",
					"type": "constructor"
				},
				{
					"inputs": [
						{
							"internalType": "address",
							"name": "target",
							"type": "address"
						}
					],
					"name": "AddressEmptyCode",
					"type": "error"
				},
				{
					"inputs": [
						{
							"internalType": "address",
							"name": "account",
							"type": "address"
						}
					],
					"name": "AddressInsufficientBalance",
					"type": "error"
				},
				{
					"inputs": [],
					"name": "FailedInnerCall",
					"type": "error"
				},
				{
					"inputs": [
						{
							"internalType": "address",
							"name": "token",
							"type": "address"
						}
					],
					"name": "SafeERC20FailedOperation",
					"type": "error"
				},
				{
					"inputs": [],
					"name": "collect",
					"outputs": [],
					"stateMutability": "nonpayable",
					"type": "function"
				},
				{
					"inputs": [
						{
							"internalType": "address",
							"name": "user",
							"type": "address"
						},
						{
							"internalType": "uint256",
							"name": "amount",
							"type": "uint256"
						}
					],
					"name": "deposit",
					"outputs": [],
					"stateMutability": "nonpayable",
					"type": "function"
				},
				{
					"inputs": [
						{
							"internalType": "address",
							"name": "",
							"type": "address"
						}
					],
					"name": "deposited",
					"outputs": [
						{
							"internalType": "uint256",
							"name": "",
							"type": "uint256"
						}
					],
					"stateMutability": "view",
					"type": "function"
				},
				{
					"inputs": [
						{
							"internalType": "address",
							"name": "user",
							"type": "address"
						},
						{
							"internalType": "uint256",
							"name": "amount",
							"type": "uint256"
						},
						{
							"internalType": "uint256",
							"name": "deadline",
							"type": "uint256"
						},
						{
							"internalType": "uint8",
							"name": "v",
							"type": "uint8"
						},
						{
							"internalType": "bytes32",
							"name": "r",
							"type": "bytes32"
						},
						{
							"internalType": "bytes32",
							"name": "s",
							"type": "bytes32"
						}
					],
					"name": "permitDeposit",
					"outputs": [],
					"stateMutability": "nonpayable",
					"type": "function"
				},
				{
					"inputs": [],
					"name": "token",
					"outputs": [
						{
							"internalType": "address",
							"name": "",
							"type": "address"
						}
					],
					"stateMutability": "view",
					"type": "function"
				},
				{
					"inputs": [],
					"name": "withdraw",
					"outputs": [],
					"stateMutability": "nonpayable",
					"type": "function"
				}
			],
			"devdoc": {
				"errors": {
					"AddressEmptyCode(address)": [
						{
							"details": "There's no code at `target` (it is not a contract)."
						}
					],
					"AddressInsufficientBalance(address)": [
						{
							"details": "The ETH balance of the account is not enough to perform the operation."
						}
					],
					"FailedInnerCall()": [
						{
							"details": "A call to an address target failed. The target may have reverted."
						}
					],
					"SafeERC20FailedOperation(address)": [
						{
							"details": "An operation with an ERC20 token failed."
						}
					]
				},
				"kind": "dev",
				"methods": {},
				"version": 1
			},
			"evm": {
				"assembly": "    /* \"src/Bank.sol\":225:1251  contract Bank {... */\n  mstore(0x40, 0xa0)\n    /* \"src/Bank.sol\":349:436  constructor(address _token) {... */\n  callvalue\n  dup1\n  iszero\n  tag_1\n  jumpi\n  0x00\n  dup1\n  revert\ntag_1:\n  pop\n  mload(0x40)\n  sub(codesize, bytecodeSize)\n  dup1\n  bytecodeSize\n  dup4\n  codecopy\n  dup2\n  dup2\n  add\n  0x40\n  mstore\n  dup2\n  add\n  swap1\n  tag_2\n  swap2\n  swap1\n  tag_3\n  jump\t// in\ntag_2:\n    /* \"src/Bank.sol\":395:401  _token */\n  dup1\n    /* \"src/Bank.sol\":387:401  token = _token */\n  0xffffffffffffffffffffffffffffffffffffffff\n  and\n  0x80\n  dup2\n  0xffffffffffffffffffffffffffffffffffffffff\n  and\n  dup2\n  mstore\n  pop\n  pop\n    /* \"src/Bank.sol\":419:429  msg.sender */\n  caller\n    /* \"src/Bank.sol\":411:416  owner */\n  0x01\n  0x00\n    /* \"src/Bank.sol\":411:429  owner = msg.sender */\n  0x0100\n  exp\n  dup2\n  sload\n  dup2\n  0xffffffffffffffffffffffffffffffffffffffff\n  mul\n  not\n  and\n  swap1\n  dup4\n  0xffffffffffffffffffffffffffffffffffffffff\n  and\n  mul\n  or\n  swap1\n  sstore\n  pop\n    /* \"src/Bank.sol\":349:436  constructor(address _token) {... */\n  pop\n    /* \"src/Bank.sol\":225:1251  contract Bank {... */\n  jump(tag_6)\n    /* \"#utility.yul\":88:205   */\ntag_8:\n    /* \"#utility.yul\":197:198   */\n  0x00\n    /* \"#utility.yul\":194:195   */\n  dup1\n    /* \"#utility.yul\":187:199   */\n  revert\n    /* \"#utility.yul\":334:460   */\ntag_10:\n    /* \"#utility.yul\":371:378   */\n  0x00\n    /* \"#utility.yul\":411:453   */\n  0xffffffffffffffffffffffffffffffffffffffff\n    /* \"#utility.yul\":404:409   */\n  dup3\n    /* \"#utility.yul\":400:454   */\n  and\n    /* \"#utility.yul\":389:454   */\n  swap1\n  pop\n    /* \"#utility.yul\":334:460   */\n  swap2\n  swap1\n  pop\n  jump\t// out\n    /* \"#utility.yul\":466:562   */\ntag_11:\n    /* \"#utility.yul\":503:510   */\n  0x00\n    /* \"#utility.yul\":532:556   */\n  tag_20\n    /* \"#utility.yul\":550:555   */\n  dup3\n    /* \"#utility.yul\":532:556   */\n  tag_10\n  jump\t// in\ntag_20:\n    /* \"#utility.yul\":521:556   */\n  swap1\n  pop\n    /* \"#utility.yul\":466:562   */\n  swap2\n  swap1\n  pop\n  jump\t// out\n    /* \"#utility.yul\":568:690   */\ntag_12:\n    /* \"#utility.yul\":641:665   */\n  tag_22\n    /* \"#utility.yul\":659:664   */\n  dup2\n    /* \"#utility.yul\":641:665   */\n  tag_11\n  jump\t// in\ntag_22:\n    /* \"#utility.yul\":634:639   */\n  dup2\n    /* \"#utility.yul\":631:666   */\n  eq\n    /* \"#utility.yul\":621:684   */\n  tag_23\n  jumpi\n    /* \"#utility.yul\":680:681   */\n  0x00\n    /* \"#utility.yul\":677:678   */\n  dup1\n    /* \"#utility.yul\":670:682   */\n  revert\n    /* \"#utility.yul\":621:684   */\ntag_23:\n    /* \"#utility.yul\":568:690   */\n  pop\n  jump\t// out\n    /* \"#utility.yul\":696:839   */\ntag_13:\n    /* \"#utility.yul\":753:758   */\n  0x00\n    /* \"#utility.yul\":784:790   */\n  dup2\n    /* \"#utility.yul\":778:791   */\n  mload\n    /* \"#utility.yul\":769:791   */\n  swap1\n  pop\n    /* \"#utility.yul\":800:833   */\n  tag_25\n    /* \"#utility.yul\":827:832   */\n  dup2\n    /* \"#utility.yul\":800:833   */\n  tag_12\n  jump\t// in\ntag_25:\n    /* \"#utility.yul\":696:839   */\n  swap3\n  swap2\n  pop\n  pop\n  jump\t// out\n    /* \"#utility.yul\":845:1196   */\ntag_3:\n    /* \"#utility.yul\":915:921   */\n  0x00\n    /* \"#utility.yul\":964:966   */\n  0x20\n    /* \"#utility.yul\":952:961   */\n  dup3\n    /* \"#utility.yul\":943:950   */\n  dup5\n    /* \"#utility.yul\":939:962   */\n  sub\n    /* \"#utility.yul\":935:967   */\n  slt\n    /* \"#utility.yul\":932:1051   */\n  iszero\n  tag_27\n  jumpi\n    /* \"#utility.yul\":970:1049   */\n  tag_28\n  tag_8\n  jump\t// in\ntag_28:\n    /* \"#utility.yul\":932:1051   */\ntag_27:\n    /* \"#utility.yul\":1090:1091   */\n  0x00\n    /* \"#utility.yul\":1115:1179   */\n  tag_29\n    /* \"#utility.yul\":1171:1178   */\n  dup5\n    /* \"#utility.yul\":1162:1168   */\n  dup3\n    /* \"#utility.yul\":1151:1160   */\n  dup6\n    /* \"#utility.yul\":1147:1169   */\n  add\n    /* \"#utility.yul\":1115:1179   */\n  tag_13\n  jump\t// in\ntag_29:\n    /* \"#utility.yul\":1105:1179   */\n  swap2\n  pop\n    /* \"#utility.yul\":1061:1189   */\n  pop\n    /* \"#utility.yul\":845:1196   */\n  swap3\n  swap2\n  pop\n  pop\n  jump\t// out\n    /* \"src/Bank.sol\":225:1251  contract Bank {... */\ntag_6:\n  mload(0x80)\n  codecopy(0x00, dataOffset(sub_0), dataSize(sub_0))\n  0x00\n  assignImmutable(\"0x887d510a66c2c5edb473d8bcaa91e9efa96aa179a0ec88f5292ca216a1999f71\")\n  return(0x00, dataSize(sub_0))\nstop\n\nsub_0: assembly {\n        /* \"src/Bank.sol\":225:1251  contract Bank {... */\n      mstore(0x40, 0x80)\n      callvalue\n      dup1\n      iszero\n      tag_1\n      jumpi\n      0x00\n      dup1\n      revert\n    tag_1:\n      pop\n      jumpi(tag_2, lt(calldatasize, 0x04))\n      shr(0xe0, calldataload(0x00))\n      dup1\n      0x3ccfd60b\n      eq\n      tag_3\n      jumpi\n      dup1\n      0x47e7ef24\n      eq\n      tag_4\n      jumpi\n      dup1\n      0x8f7b1bca\n      eq\n      tag_5\n      jumpi\n      dup1\n      0xcb13cddb\n      eq\n      tag_6\n      jumpi\n      dup1\n      0xe5225381\n      eq\n      tag_7\n      jumpi\n      dup1\n      0xfc0c546a\n      eq\n      tag_8\n      jumpi\n    tag_2:\n      0x00\n      dup1\n      revert\n        /* \"src/Bank.sol\":885:1068  function withdraw() external {... */\n    tag_3:\n      tag_9\n      tag_10\n      jump\t// in\n    tag_9:\n      stop\n        /* \"src/Bank.sol\":443:639  function deposit(address user, uint amount) public {... */\n    tag_4:\n      tag_11\n      0x04\n      dup1\n      calldatasize\n      sub\n      dup2\n      add\n      swap1\n      tag_12\n      swap2\n      swap1\n      tag_13\n      jump\t// in\n    tag_12:\n      tag_14\n      jump\t// in\n    tag_11:\n      stop\n        /* \"src/Bank.sol\":646:879  function permitDeposit(address user, uint amount, uint deadline, uint8 v, bytes32 r, bytes32 s) external {... */\n    tag_5:\n      tag_15\n      0x04\n      dup1\n      calldatasize\n      sub\n      dup2\n      add\n      swap1\n      tag_16\n      swap2\n      swap1\n      tag_17\n      jump\t// in\n    tag_16:\n      tag_18\n      jump\t// in\n    tag_15:\n      stop\n        /* \"src/Bank.sol\":245:286  mapping(address => uint) public deposited */\n    tag_6:\n      tag_19\n      0x04\n      dup1\n      calldatasize\n      sub\n      dup2\n      add\n      swap1\n      tag_20\n      swap2\n      swap1\n      tag_21\n      jump\t// in\n    tag_20:\n      tag_22\n      jump\t// in\n    tag_19:\n      mload(0x40)\n      tag_23\n      swap2\n      swap1\n      tag_24\n      jump\t// in\n    tag_23:\n      mload(0x40)\n      dup1\n      swap2\n      sub\n      swap1\n      return\n        /* \"src/Bank.sol\":1075:1248  function collect() external {... */\n    tag_7:\n      tag_25\n      tag_26\n      jump\t// in\n    tag_25:\n      stop\n        /* \"src/Bank.sol\":292:322  address public immutable token */\n    tag_8:\n      tag_27\n      tag_28\n      jump\t// in\n    tag_27:\n      mload(0x40)\n      tag_29\n      swap2\n      swap1\n      tag_30\n      jump\t// in\n    tag_29:\n      mload(0x40)\n      dup1\n      swap2\n      sub\n      swap1\n      return\n        /* \"src/Bank.sol\":885:1068  function withdraw() external {... */\n    tag_10:\n        /* \"src/Bank.sol\":924:935  uint amount */\n      0x00\n        /* \"src/Bank.sol\":938:947  deposited */\n      dup1\n        /* \"src/Bank.sol\":938:959  deposited[msg.sender] */\n      0x00\n        /* \"src/Bank.sol\":948:958  msg.sender */\n      caller\n        /* \"src/Bank.sol\":938:959  deposited[msg.sender] */\n      0xffffffffffffffffffffffffffffffffffffffff\n      and\n      0xffffffffffffffffffffffffffffffffffffffff\n      and\n      dup2\n      mstore\n      0x20\n      add\n      swap1\n      dup2\n      mstore\n      0x20\n      add\n      0x00\n      keccak256\n      sload\n        /* \"src/Bank.sol\":924:959  uint amount = deposited[msg.sender] */\n      swap1\n      pop\n        /* \"src/Bank.sol\":969:1026  SafeERC20.safeTransfer(IERC20(token), msg.sender, amount) */\n      tag_32\n        /* \"src/Bank.sol\":999:1004  token */\n      immutable(\"0x887d510a66c2c5edb473d8bcaa91e9efa96aa179a0ec88f5292ca216a1999f71\")\n        /* \"src/Bank.sol\":1007:1017  msg.sender */\n      caller\n        /* \"src/Bank.sol\":1019:1025  amount */\n      dup4\n        /* \"src/Bank.sol\":969:991  SafeERC20.safeTransfer */\n      tag_33\n        /* \"src/Bank.sol\":969:1026  SafeERC20.safeTransfer(IERC20(token), msg.sender, amount) */\n      jump\t// in\n    tag_32:\n        /* \"src/Bank.sol\":1060:1061  0 */\n      0x00\n        /* \"src/Bank.sol\":1036:1045  deposited */\n      dup1\n        /* \"src/Bank.sol\":1036:1057  deposited[msg.sender] */\n      0x00\n        /* \"src/Bank.sol\":1046:1056  msg.sender */\n      caller\n        /* \"src/Bank.sol\":1036:1057  deposited[msg.sender] */\n      0xffffffffffffffffffffffffffffffffffffffff\n      and\n      0xffffffffffffffffffffffffffffffffffffffff\n      and\n      dup2\n      mstore\n      0x20\n      add\n      swap1\n      dup2\n      mstore\n      0x20\n      add\n      0x00\n      keccak256\n        /* \"src/Bank.sol\":1036:1061  deposited[msg.sender] = 0 */\n      dup2\n      swap1\n      sstore\n      pop\n        /* \"src/Bank.sol\":914:1068  {... */\n      pop\n        /* \"src/Bank.sol\":885:1068  function withdraw() external {... */\n      jump\t// out\n        /* \"src/Bank.sol\":443:639  function deposit(address user, uint amount) public {... */\n    tag_14:\n        /* \"src/Bank.sol\":519:524  token */\n      immutable(\"0x887d510a66c2c5edb473d8bcaa91e9efa96aa179a0ec88f5292ca216a1999f71\")\n        /* \"src/Bank.sol\":512:538  IERC20(token).transferFrom */\n      0xffffffffffffffffffffffffffffffffffffffff\n      and\n      0x23b872dd\n        /* \"src/Bank.sol\":539:549  msg.sender */\n      caller\n        /* \"src/Bank.sol\":559:563  this */\n      address\n        /* \"src/Bank.sol\":566:572  amount */\n      dup5\n        /* \"src/Bank.sol\":512:573  IERC20(token).transferFrom(msg.sender, address(this), amount) */\n      mload(0x40)\n      dup5\n      0xffffffff\n      and\n      0xe0\n      shl\n      dup2\n      mstore\n      0x04\n      add\n      tag_35\n      swap4\n      swap3\n      swap2\n      swap1\n      tag_36\n      jump\t// in\n    tag_35:\n      0x20\n      mload(0x40)\n      dup1\n      dup4\n      sub\n      dup2\n      0x00\n      dup8\n      gas\n      call\n      iszero\n      dup1\n      iszero\n      tag_38\n      jumpi\n      returndatasize\n      0x00\n      dup1\n      returndatacopy\n      revert(0x00, returndatasize)\n    tag_38:\n      pop\n      pop\n      pop\n      pop\n      mload(0x40)\n      returndatasize\n      not(0x1f)\n      0x1f\n      dup3\n      add\n      and\n      dup3\n      add\n      dup1\n      0x40\n      mstore\n      pop\n      dup2\n      add\n      swap1\n      tag_39\n      swap2\n      swap1\n      tag_40\n      jump\t// in\n    tag_39:\n        /* \"src/Bank.sol\":504:597  require(IERC20(token).transferFrom(msg.sender, address(this), amount), \"Transfer from error\") */\n      tag_41\n      jumpi\n      mload(0x40)\n      0x08c379a000000000000000000000000000000000000000000000000000000000\n      dup2\n      mstore\n      0x04\n      add\n      tag_42\n      swap1\n      tag_43\n      jump\t// in\n    tag_42:\n      mload(0x40)\n      dup1\n      swap2\n      sub\n      swap1\n      revert\n    tag_41:\n        /* \"src/Bank.sol\":626:632  amount */\n      dup1\n        /* \"src/Bank.sol\":607:616  deposited */\n      0x00\n        /* \"src/Bank.sol\":607:622  deposited[user] */\n      dup1\n        /* \"src/Bank.sol\":617:621  user */\n      dup5\n        /* \"src/Bank.sol\":607:622  deposited[user] */\n      0xffffffffffffffffffffffffffffffffffffffff\n      and\n      0xffffffffffffffffffffffffffffffffffffffff\n      and\n      dup2\n      mstore\n      0x20\n      add\n      swap1\n      dup2\n      mstore\n      0x20\n      add\n      0x00\n      keccak256\n      0x00\n        /* \"src/Bank.sol\":607:632  deposited[user] += amount */\n      dup3\n      dup3\n      sload\n      tag_44\n      swap2\n      swap1\n      tag_45\n      jump\t// in\n    tag_44:\n      swap3\n      pop\n      pop\n      dup2\n      swap1\n      sstore\n      pop\n        /* \"src/Bank.sol\":443:639  function deposit(address user, uint amount) public {... */\n      pop\n      pop\n      jump\t// out\n        /* \"src/Bank.sol\":646:879  function permitDeposit(address user, uint amount, uint deadline, uint8 v, bytes32 r, bytes32 s) external {... */\n    tag_18:\n        /* \"src/Bank.sol\":774:779  token */\n      immutable(\"0x887d510a66c2c5edb473d8bcaa91e9efa96aa179a0ec88f5292ca216a1999f71\")\n        /* \"src/Bank.sol\":761:787  IERC20Permit(token).permit */\n      0xffffffffffffffffffffffffffffffffffffffff\n      and\n      0xd505accf\n        /* \"src/Bank.sol\":788:798  msg.sender */\n      caller\n        /* \"src/Bank.sol\":808:812  this */\n      address\n        /* \"src/Bank.sol\":815:821  amount */\n      dup9\n        /* \"src/Bank.sol\":823:831  deadline */\n      dup9\n        /* \"src/Bank.sol\":833:834  v */\n      dup9\n        /* \"src/Bank.sol\":836:837  r */\n      dup9\n        /* \"src/Bank.sol\":839:840  s */\n      dup9\n        /* \"src/Bank.sol\":761:841  IERC20Permit(token).permit(msg.sender, address(this), amount, deadline, v, r, s) */\n      mload(0x40)\n      dup9\n      0xffffffff\n      and\n      0xe0\n      shl\n      dup2\n      mstore\n      0x04\n      add\n      tag_47\n      swap8\n      swap7\n      swap6\n      swap5\n      swap4\n      swap3\n      swap2\n      swap1\n      tag_48\n      jump\t// in\n    tag_47:\n      0x00\n      mload(0x40)\n      dup1\n      dup4\n      sub\n      dup2\n      0x00\n      dup8\n      dup1\n      extcodesize\n      iszero\n      dup1\n      iszero\n      tag_49\n      jumpi\n      0x00\n      dup1\n      revert\n    tag_49:\n      pop\n      gas\n      call\n      iszero\n      dup1\n      iszero\n      tag_51\n      jumpi\n      returndatasize\n      0x00\n      dup1\n      returndatacopy\n      revert(0x00, returndatasize)\n    tag_51:\n      pop\n      pop\n      pop\n      pop\n        /* \"src/Bank.sol\":851:872  deposit(user, amount) */\n      tag_52\n        /* \"src/Bank.sol\":859:863  user */\n      dup7\n        /* \"src/Bank.sol\":865:871  amount */\n      dup7\n        /* \"src/Bank.sol\":851:858  deposit */\n      tag_14\n        /* \"src/Bank.sol\":851:872  deposit(user, amount) */\n      jump\t// in\n    tag_52:\n        /* \"src/Bank.sol\":646:879  function permitDeposit(address user, uint amount, uint deadline, uint8 v, bytes32 r, bytes32 s) external {... */\n      pop\n      pop\n      pop\n      pop\n      pop\n      pop\n      jump\t// out\n        /* \"src/Bank.sol\":245:286  mapping(address => uint) public deposited */\n    tag_22:\n      mstore(0x20, 0x00)\n      dup1\n      0x00\n      mstore\n      keccak256(0x00, 0x40)\n      0x00\n      swap2\n      pop\n      swap1\n      pop\n      sload\n      dup2\n      jump\t// out\n        /* \"src/Bank.sol\":1075:1248  function collect() external {... */\n    tag_26:\n        /* \"src/Bank.sol\":1157:1161  5e18 */\n      0x4563918244f40000\n        /* \"src/Bank.sol\":1123:1128  token */\n      immutable(\"0x887d510a66c2c5edb473d8bcaa91e9efa96aa179a0ec88f5292ca216a1999f71\")\n        /* \"src/Bank.sol\":1116:1139  IERC20(token).balanceOf */\n      0xffffffffffffffffffffffffffffffffffffffff\n      and\n      0x70a08231\n        /* \"src/Bank.sol\":1148:1152  this */\n      address\n        /* \"src/Bank.sol\":1116:1155  IERC20(token).balanceOf(address(this) ) */\n      mload(0x40)\n      dup3\n      0xffffffff\n      and\n      0xe0\n      shl\n      dup2\n      mstore\n      0x04\n      add\n      tag_54\n      swap2\n      swap1\n      tag_30\n      jump\t// in\n    tag_54:\n      0x20\n      mload(0x40)\n      dup1\n      dup4\n      sub\n      dup2\n      dup7\n      gas\n      staticcall\n      iszero\n      dup1\n      iszero\n      tag_56\n      jumpi\n      returndatasize\n      0x00\n      dup1\n      returndatacopy\n      revert(0x00, returndatasize)\n    tag_56:\n      pop\n      pop\n      pop\n      pop\n      mload(0x40)\n      returndatasize\n      not(0x1f)\n      0x1f\n      dup3\n      add\n      and\n      dup3\n      add\n      dup1\n      0x40\n      mstore\n      pop\n      dup2\n      add\n      swap1\n      tag_57\n      swap2\n      swap1\n      tag_58\n      jump\t// in\n    tag_57:\n        /* \"src/Bank.sol\":1116:1161  IERC20(token).balanceOf(address(this) )> 5e18 */\n      gt\n        /* \"src/Bank.sol\":1113:1242  if(IERC20(token).balanceOf(address(this) )> 5e18) {... */\n      iszero\n      tag_59\n      jumpi\n        /* \"src/Bank.sol\":1177:1227  SafeERC20.safeTransfer(IERC20(token), owner, 5e18) */\n      tag_60\n        /* \"src/Bank.sol\":1207:1212  token */\n      immutable(\"0x887d510a66c2c5edb473d8bcaa91e9efa96aa179a0ec88f5292ca216a1999f71\")\n        /* \"src/Bank.sol\":1215:1220  owner */\n      0x01\n      0x00\n      swap1\n      sload\n      swap1\n      0x0100\n      exp\n      swap1\n      div\n      0xffffffffffffffffffffffffffffffffffffffff\n      and\n        /* \"src/Bank.sol\":1222:1226  5e18 */\n      0x4563918244f40000\n        /* \"src/Bank.sol\":1177:1199  SafeERC20.safeTransfer */\n      tag_33\n        /* \"src/Bank.sol\":1177:1227  SafeERC20.safeTransfer(IERC20(token), owner, 5e18) */\n      jump\t// in\n    tag_60:\n        /* \"src/Bank.sol\":1113:1242  if(IERC20(token).balanceOf(address(this) )> 5e18) {... */\n    tag_59:\n        /* \"src/Bank.sol\":1075:1248  function collect() external {... */\n      jump\t// out\n        /* \"src/Bank.sol\":292:322  address public immutable token */\n    tag_28:\n      immutable(\"0x887d510a66c2c5edb473d8bcaa91e9efa96aa179a0ec88f5292ca216a1999f71\")\n      dup2\n      jump\t// out\n        /* \"@openzeppelin/contracts/token/ERC20/utils/SafeERC20.sol\":1303:1463  function safeTransfer(IERC20 token, address to, uint256 value) internal {... */\n    tag_33:\n        /* \"@openzeppelin/contracts/token/ERC20/utils/SafeERC20.sol\":1385:1456  _callOptionalReturn(token, abi.encodeCall(token.transfer, (to, value))) */\n      tag_62\n        /* \"@openzeppelin/contracts/token/ERC20/utils/SafeERC20.sol\":1405:1410  token */\n      dup4\n        /* \"@openzeppelin/contracts/token/ERC20/utils/SafeERC20.sol\":1427:1432  token */\n      dup5\n        /* \"@openzeppelin/contracts/token/ERC20/utils/SafeERC20.sol\":1427:1441  token.transfer */\n      0xffffffffffffffffffffffffffffffffffffffff\n      and\n      0xa9059cbb\n        /* \"@openzeppelin/contracts/token/ERC20/utils/SafeERC20.sol\":1444:1446  to */\n      dup6\n        /* \"@openzeppelin/contracts/token/ERC20/utils/SafeERC20.sol\":1448:1453  value */\n      dup6\n        /* \"@openzeppelin/contracts/token/ERC20/utils/SafeERC20.sol\":1412:1455  abi.encodeCall(token.transfer, (to, value)) */\n      add(0x24, mload(0x40))\n      tag_63\n      swap3\n      swap2\n      swap1\n      tag_64\n      jump\t// in\n    tag_63:\n      mload(0x40)\n      0x20\n      dup2\n      dup4\n      sub\n      sub\n      dup2\n      mstore\n      swap1\n      0x40\n      mstore\n      swap2\n      pop\n      0xe0\n      shl\n      0x20\n      dup3\n      add\n      dup1\n      mload\n      0xffffffffffffffffffffffffffffffffffffffffffffffffffffffff\n      dup4\n      dup2\n      dup4\n      and\n      or\n      dup4\n      mstore\n      pop\n      pop\n      pop\n      pop\n        /* \"@openzeppelin/contracts/token/ERC20/utils/SafeERC20.sol\":1385:1404  _callOptionalReturn */\n      tag_65\n        /* \"@openzeppelin/contracts/token/ERC20/utils/SafeERC20.sol\":1385:1456  _callOptionalReturn(token, abi.encodeCall(token.transfer, (to, value))) */\n      jump\t// in\n    tag_62:\n        /* \"@openzeppelin/contracts/token/ERC20/utils/SafeERC20.sol\":1303:1463  function safeTransfer(IERC20 token, address to, uint256 value) internal {... */\n      pop\n      pop\n      pop\n      jump\t// out\n        /* \"@openzeppelin/contracts/token/ERC20/utils/SafeERC20.sol\":4059:4688  function _callOptionalReturn(IERC20 token, bytes memory data) private {... */\n    tag_65:\n        /* \"@openzeppelin/contracts/token/ERC20/utils/SafeERC20.sol\":4478:4501  bytes memory returndata */\n      0x00\n        /* \"@openzeppelin/contracts/token/ERC20/utils/SafeERC20.sol\":4504:4537  address(token).functionCall(data) */\n      tag_67\n        /* \"@openzeppelin/contracts/token/ERC20/utils/SafeERC20.sol\":4532:4536  data */\n      dup3\n        /* \"@openzeppelin/contracts/token/ERC20/utils/SafeERC20.sol\":4512:4517  token */\n      dup5\n        /* \"@openzeppelin/contracts/token/ERC20/utils/SafeERC20.sol\":4504:4531  address(token).functionCall */\n      0xffffffffffffffffffffffffffffffffffffffff\n      and\n      tag_68\n      swap1\n        /* \"@openzeppelin/contracts/token/ERC20/utils/SafeERC20.sol\":4504:4537  address(token).functionCall(data) */\n      swap2\n      swap1\n      0xffffffff\n      and\n      jump\t// in\n    tag_67:\n        /* \"@openzeppelin/contracts/token/ERC20/utils/SafeERC20.sol\":4478:4537  bytes memory returndata = address(token).functionCall(data) */\n      swap1\n      pop\n        /* \"@openzeppelin/contracts/token/ERC20/utils/SafeERC20.sol\":4572:4573  0 */\n      0x00\n        /* \"@openzeppelin/contracts/token/ERC20/utils/SafeERC20.sol\":4551:4561  returndata */\n      dup2\n        /* \"@openzeppelin/contracts/token/ERC20/utils/SafeERC20.sol\":4551:4568  returndata.length */\n      mload\n        /* \"@openzeppelin/contracts/token/ERC20/utils/SafeERC20.sol\":4551:4573  returndata.length != 0 */\n      eq\n      iszero\n        /* \"@openzeppelin/contracts/token/ERC20/utils/SafeERC20.sol\":4551:4608  returndata.length != 0 && !abi.decode(returndata, (bool)) */\n      dup1\n      iszero\n      tag_69\n      jumpi\n      pop\n        /* \"@openzeppelin/contracts/token/ERC20/utils/SafeERC20.sol\":4589:4599  returndata */\n      dup1\n        /* \"@openzeppelin/contracts/token/ERC20/utils/SafeERC20.sol\":4578:4608  abi.decode(returndata, (bool)) */\n      dup1\n      0x20\n      add\n      swap1\n      mload\n      dup2\n      add\n      swap1\n      tag_70\n      swap2\n      swap1\n      tag_40\n      jump\t// in\n    tag_70:\n        /* \"@openzeppelin/contracts/token/ERC20/utils/SafeERC20.sol\":4577:4608  !abi.decode(returndata, (bool)) */\n      iszero\n        /* \"@openzeppelin/contracts/token/ERC20/utils/SafeERC20.sol\":4551:4608  returndata.length != 0 && !abi.decode(returndata, (bool)) */\n    tag_69:\n        /* \"@openzeppelin/contracts/token/ERC20/utils/SafeERC20.sol\":4547:4682  if (returndata.length != 0 && !abi.decode(returndata, (bool))) {... */\n      iszero\n      tag_71\n      jumpi\n        /* \"@openzeppelin/contracts/token/ERC20/utils/SafeERC20.sol\":4664:4669  token */\n      dup3\n        /* \"@openzeppelin/contracts/token/ERC20/utils/SafeERC20.sol\":4631:4671  SafeERC20FailedOperation(address(token)) */\n      mload(0x40)\n      0x5274afe700000000000000000000000000000000000000000000000000000000\n      dup2\n      mstore\n      0x04\n      add\n      tag_72\n      swap2\n      swap1\n      tag_30\n      jump\t// in\n    tag_72:\n      mload(0x40)\n      dup1\n      swap2\n      sub\n      swap1\n      revert\n        /* \"@openzeppelin/contracts/token/ERC20/utils/SafeERC20.sol\":4547:4682  if (returndata.length != 0 && !abi.decode(returndata, (bool))) {... */\n    tag_71:\n        /* \"@openzeppelin/contracts/token/ERC20/utils/SafeERC20.sol\":4129:4688  {... */\n      pop\n        /* \"@openzeppelin/contracts/token/ERC20/utils/SafeERC20.sol\":4059:4688  function _callOptionalReturn(IERC20 token, bytes memory data) private {... */\n      pop\n      pop\n      jump\t// out\n        /* \"@openzeppelin/contracts/utils/Address.sol\":2705:2856  function functionCall(address target, bytes memory data) internal returns (bytes memory) {... */\n    tag_68:\n        /* \"@openzeppelin/contracts/utils/Address.sol\":2780:2792  bytes memory */\n      0x60\n        /* \"@openzeppelin/contracts/utils/Address.sol\":2811:2849  functionCallWithValue(target, data, 0) */\n      tag_74\n        /* \"@openzeppelin/contracts/utils/Address.sol\":2833:2839  target */\n      dup4\n        /* \"@openzeppelin/contracts/utils/Address.sol\":2841:2845  data */\n      dup4\n        /* \"@openzeppelin/contracts/utils/Address.sol\":2847:2848  0 */\n      0x00\n        /* \"@openzeppelin/contracts/utils/Address.sol\":2811:2832  functionCallWithValue */\n      tag_75\n        /* \"@openzeppelin/contracts/utils/Address.sol\":2811:2849  functionCallWithValue(target, data, 0) */\n      jump\t// in\n    tag_74:\n        /* \"@openzeppelin/contracts/utils/Address.sol\":2804:2849  return functionCallWithValue(target, data, 0) */\n      swap1\n      pop\n        /* \"@openzeppelin/contracts/utils/Address.sol\":2705:2856  function functionCall(address target, bytes memory data) internal returns (bytes memory) {... */\n      swap3\n      swap2\n      pop\n      pop\n      jump\t// out\n        /* \"@openzeppelin/contracts/utils/Address.sol\":3180:3572  function functionCallWithValue(address target, bytes memory data, uint256 value) internal returns (bytes memory) {... */\n    tag_75:\n        /* \"@openzeppelin/contracts/utils/Address.sol\":3279:3291  bytes memory */\n      0x60\n        /* \"@openzeppelin/contracts/utils/Address.sol\":3331:3336  value */\n      dup2\n        /* \"@openzeppelin/contracts/utils/Address.sol\":3307:3328  address(this).balance */\n      selfbalance\n        /* \"@openzeppelin/contracts/utils/Address.sol\":3307:3336  address(this).balance < value */\n      lt\n        /* \"@openzeppelin/contracts/utils/Address.sol\":3303:3411  if (address(this).balance < value) {... */\n      iszero\n      tag_77\n      jumpi\n        /* \"@openzeppelin/contracts/utils/Address.sol\":3394:3398  this */\n      address\n        /* \"@openzeppelin/contracts/utils/Address.sol\":3359:3400  AddressInsufficientBalance(address(this)) */\n      mload(0x40)\n      0xcd78605900000000000000000000000000000000000000000000000000000000\n      dup2\n      mstore\n      0x04\n      add\n      tag_78\n      swap2\n      swap1\n      tag_30\n      jump\t// in\n    tag_78:\n      mload(0x40)\n      dup1\n      swap2\n      sub\n      swap1\n      revert\n        /* \"@openzeppelin/contracts/utils/Address.sol\":3303:3411  if (address(this).balance < value) {... */\n    tag_77:\n        /* \"@openzeppelin/contracts/utils/Address.sol\":3421:3433  bool success */\n      0x00\n        /* \"@openzeppelin/contracts/utils/Address.sol\":3435:3458  bytes memory returndata */\n      dup1\n        /* \"@openzeppelin/contracts/utils/Address.sol\":3462:3468  target */\n      dup6\n        /* \"@openzeppelin/contracts/utils/Address.sol\":3462:3473  target.call */\n      0xffffffffffffffffffffffffffffffffffffffff\n      and\n        /* \"@openzeppelin/contracts/utils/Address.sol\":3481:3486  value */\n      dup5\n        /* \"@openzeppelin/contracts/utils/Address.sol\":3488:3492  data */\n      dup7\n        /* \"@openzeppelin/contracts/utils/Address.sol\":3462:3493  target.call{value: value}(data) */\n      mload(0x40)\n      tag_79\n      swap2\n      swap1\n      tag_80\n      jump\t// in\n    tag_79:\n      0x00\n      mload(0x40)\n      dup1\n      dup4\n      sub\n      dup2\n      dup6\n      dup8\n      gas\n      call\n      swap3\n      pop\n      pop\n      pop\n      returndatasize\n      dup1\n      0x00\n      dup2\n      eq\n      tag_83\n      jumpi\n      mload(0x40)\n      swap2\n      pop\n      and(add(returndatasize, 0x3f), not(0x1f))\n      dup3\n      add\n      0x40\n      mstore\n      returndatasize\n      dup3\n      mstore\n      returndatasize\n      0x00\n      0x20\n      dup5\n      add\n      returndatacopy\n      jump(tag_82)\n    tag_83:\n      0x60\n      swap2\n      pop\n    tag_82:\n      pop\n        /* \"@openzeppelin/contracts/utils/Address.sol\":3420:3493  (bool success, bytes memory returndata) = target.call{value: value}(data) */\n      swap2\n      pop\n      swap2\n      pop\n        /* \"@openzeppelin/contracts/utils/Address.sol\":3510:3565  verifyCallResultFromTarget(target, success, returndata) */\n      tag_84\n        /* \"@openzeppelin/contracts/utils/Address.sol\":3537:3543  target */\n      dup7\n        /* \"@openzeppelin/contracts/utils/Address.sol\":3545:3552  success */\n      dup4\n        /* \"@openzeppelin/contracts/utils/Address.sol\":3554:3564  returndata */\n      dup4\n        /* \"@openzeppelin/contracts/utils/Address.sol\":3510:3536  verifyCallResultFromTarget */\n      tag_85\n        /* \"@openzeppelin/contracts/utils/Address.sol\":3510:3565  verifyCallResultFromTarget(target, success, returndata) */\n      jump\t// in\n    tag_84:\n        /* \"@openzeppelin/contracts/utils/Address.sol\":3503:3565  return verifyCallResultFromTarget(target, success, returndata) */\n      swap3\n      pop\n      pop\n      pop\n        /* \"@openzeppelin/contracts/utils/Address.sol\":3180:3572  function functionCallWithValue(address target, bytes memory data, uint256 value) internal returns (bytes memory) {... */\n      swap4\n      swap3\n      pop\n      pop\n      pop\n      jump\t// out\n        /* \"@openzeppelin/contracts/utils/Address.sol\":4625:5207  function verifyCallResultFromTarget(... */\n    tag_85:\n        /* \"@openzeppelin/contracts/utils/Address.sol\":4769:4781  bytes memory */\n      0x60\n        /* \"@openzeppelin/contracts/utils/Address.sol\":4798:4805  success */\n      dup3\n        /* \"@openzeppelin/contracts/utils/Address.sol\":4793:5201  if (!success) {... */\n      tag_87\n      jumpi\n        /* \"@openzeppelin/contracts/utils/Address.sol\":4821:4840  _revert(returndata) */\n      tag_88\n        /* \"@openzeppelin/contracts/utils/Address.sol\":4829:4839  returndata */\n      dup3\n        /* \"@openzeppelin/contracts/utils/Address.sol\":4821:4828  _revert */\n      tag_89\n        /* \"@openzeppelin/contracts/utils/Address.sol\":4821:4840  _revert(returndata) */\n      jump\t// in\n    tag_88:\n        /* \"@openzeppelin/contracts/utils/Address.sol\":4793:5201  if (!success) {... */\n      jump(tag_90)\n    tag_87:\n        /* \"@openzeppelin/contracts/utils/Address.sol\":5066:5067  0 */\n      0x00\n        /* \"@openzeppelin/contracts/utils/Address.sol\":5045:5055  returndata */\n      dup3\n        /* \"@openzeppelin/contracts/utils/Address.sol\":5045:5062  returndata.length */\n      mload\n        /* \"@openzeppelin/contracts/utils/Address.sol\":5045:5067  returndata.length == 0 */\n      eq\n        /* \"@openzeppelin/contracts/utils/Address.sol\":5045:5094  returndata.length == 0 && target.code.length == 0 */\n      dup1\n      iszero\n      tag_91\n      jumpi\n      pop\n        /* \"@openzeppelin/contracts/utils/Address.sol\":5093:5094  0 */\n      0x00\n        /* \"@openzeppelin/contracts/utils/Address.sol\":5071:5077  target */\n      dup5\n        /* \"@openzeppelin/contracts/utils/Address.sol\":5071:5089  target.code.length */\n      0xffffffffffffffffffffffffffffffffffffffff\n      and\n      extcodesize\n        /* \"@openzeppelin/contracts/utils/Address.sol\":5071:5094  target.code.length == 0 */\n      eq\n        /* \"@openzeppelin/contracts/utils/Address.sol\":5045:5094  returndata.length == 0 && target.code.length == 0 */\n    tag_91:\n        /* \"@openzeppelin/contracts/utils/Address.sol\":5041:5160  if (returndata.length == 0 && target.code.length == 0) {... */\n      iszero\n      tag_92\n      jumpi\n        /* \"@openzeppelin/contracts/utils/Address.sol\":5138:5144  target */\n      dup4\n        /* \"@openzeppelin/contracts/utils/Address.sol\":5121:5145  AddressEmptyCode(target) */\n      mload(0x40)\n      0x9996b31500000000000000000000000000000000000000000000000000000000\n      dup2\n      mstore\n      0x04\n      add\n      tag_93\n      swap2\n      swap1\n      tag_30\n      jump\t// in\n    tag_93:\n      mload(0x40)\n      dup1\n      swap2\n      sub\n      swap1\n      revert\n        /* \"@openzeppelin/contracts/utils/Address.sol\":5041:5160  if (returndata.length == 0 && target.code.length == 0) {... */\n    tag_92:\n        /* \"@openzeppelin/contracts/utils/Address.sol\":5180:5190  returndata */\n      dup2\n        /* \"@openzeppelin/contracts/utils/Address.sol\":5173:5190  return returndata */\n      swap1\n      pop\n      jump(tag_86)\n        /* \"@openzeppelin/contracts/utils/Address.sol\":4793:5201  if (!success) {... */\n    tag_90:\n        /* \"@openzeppelin/contracts/utils/Address.sol\":4625:5207  function verifyCallResultFromTarget(... */\n    tag_86:\n      swap4\n      swap3\n      pop\n      pop\n      pop\n      jump\t// out\n        /* \"@openzeppelin/contracts/utils/Address.sol\":5743:6259  function _revert(bytes memory returndata) private pure {... */\n    tag_89:\n        /* \"@openzeppelin/contracts/utils/Address.sol\":5894:5895  0 */\n      0x00\n        /* \"@openzeppelin/contracts/utils/Address.sol\":5874:5884  returndata */\n      dup2\n        /* \"@openzeppelin/contracts/utils/Address.sol\":5874:5891  returndata.length */\n      mload\n        /* \"@openzeppelin/contracts/utils/Address.sol\":5874:5895  returndata.length > 0 */\n      gt\n        /* \"@openzeppelin/contracts/utils/Address.sol\":5870:6253  if (returndata.length > 0) {... */\n      iszero\n      tag_95\n      jumpi\n        /* \"@openzeppelin/contracts/utils/Address.sol\":6102:6112  returndata */\n      dup1\n        /* \"@openzeppelin/contracts/utils/Address.sol\":6096:6113  mload(returndata) */\n      mload\n        /* \"@openzeppelin/contracts/utils/Address.sol\":6158:6173  returndata_size */\n      dup1\n        /* \"@openzeppelin/contracts/utils/Address.sol\":6145:6155  returndata */\n      dup3\n        /* \"@openzeppelin/contracts/utils/Address.sol\":6141:6143  32 */\n      0x20\n        /* \"@openzeppelin/contracts/utils/Address.sol\":6137:6156  add(32, returndata) */\n      add\n        /* \"@openzeppelin/contracts/utils/Address.sol\":6130:6174  revert(add(32, returndata), returndata_size) */\n      revert\n        /* \"@openzeppelin/contracts/utils/Address.sol\":5870:6253  if (returndata.length > 0) {... */\n    tag_95:\n        /* \"@openzeppelin/contracts/utils/Address.sol\":6225:6242  FailedInnerCall() */\n      mload(0x40)\n      0x1425ea4200000000000000000000000000000000000000000000000000000000\n      dup2\n      mstore\n      0x04\n      add\n      mload(0x40)\n      dup1\n      swap2\n      sub\n      swap1\n      revert\n        /* \"#utility.yul\":88:205   */\n    tag_98:\n        /* \"#utility.yul\":197:198   */\n      0x00\n        /* \"#utility.yul\":194:195   */\n      dup1\n        /* \"#utility.yul\":187:199   */\n      revert\n        /* \"#utility.yul\":334:460   */\n    tag_100:\n        /* \"#utility.yul\":371:378   */\n      0x00\n        /* \"#utility.yul\":411:453   */\n      0xffffffffffffffffffffffffffffffffffffffff\n        /* \"#utility.yul\":404:409   */\n      dup3\n        /* \"#utility.yul\":400:454   */\n      and\n        /* \"#utility.yul\":389:454   */\n      swap1\n      pop\n        /* \"#utility.yul\":334:460   */\n      swap2\n      swap1\n      pop\n      jump\t// out\n        /* \"#utility.yul\":466:562   */\n    tag_101:\n        /* \"#utility.yul\":503:510   */\n      0x00\n        /* \"#utility.yul\":532:556   */\n      tag_135\n        /* \"#utility.yul\":550:555   */\n      dup3\n        /* \"#utility.yul\":532:556   */\n      tag_100\n      jump\t// in\n    tag_135:\n        /* \"#utility.yul\":521:556   */\n      swap1\n      pop\n        /* \"#utility.yul\":466:562   */\n      swap2\n      swap1\n      pop\n      jump\t// out\n        /* \"#utility.yul\":568:690   */\n    tag_102:\n        /* \"#utility.yul\":641:665   */\n      tag_137\n        /* \"#utility.yul\":659:664   */\n      dup2\n        /* \"#utility.yul\":641:665   */\n      tag_101\n      jump\t// in\n    tag_137:\n        /* \"#utility.yul\":634:639   */\n      dup2\n        /* \"#utility.yul\":631:666   */\n      eq\n        /* \"#utility.yul\":621:684   */\n      tag_138\n      jumpi\n        /* \"#utility.yul\":680:681   */\n      0x00\n        /* \"#utility.yul\":677:678   */\n      dup1\n        /* \"#utility.yul\":670:682   */\n      revert\n        /* \"#utility.yul\":621:684   */\n    tag_138:\n        /* \"#utility.yul\":568:690   */\n      pop\n      jump\t// out\n        /* \"#utility.yul\":696:835   */\n    tag_103:\n        /* \"#utility.yul\":742:747   */\n      0x00\n        /* \"#utility.yul\":780:786   */\n      dup2\n        /* \"#utility.yul\":767:787   */\n      calldataload\n        /* \"#utility.yul\":758:787   */\n      swap1\n      pop\n        /* \"#utility.yul\":796:829   */\n      tag_140\n        /* \"#utility.yul\":823:828   */\n      dup2\n        /* \"#utility.yul\":796:829   */\n      tag_102\n      jump\t// in\n    tag_140:\n        /* \"#utility.yul\":696:835   */\n      swap3\n      swap2\n      pop\n      pop\n      jump\t// out\n        /* \"#utility.yul\":841:918   */\n    tag_104:\n        /* \"#utility.yul\":878:885   */\n      0x00\n        /* \"#utility.yul\":907:912   */\n      dup2\n        /* \"#utility.yul\":896:912   */\n      swap1\n      pop\n        /* \"#utility.yul\":841:918   */\n      swap2\n      swap1\n      pop\n      jump\t// out\n        /* \"#utility.yul\":924:1046   */\n    tag_105:\n        /* \"#utility.yul\":997:1021   */\n      tag_143\n        /* \"#utility.yul\":1015:1020   */\n      dup2\n        /* \"#utility.yul\":997:1021   */\n      tag_104\n      jump\t// in\n    tag_143:\n        /* \"#utility.yul\":990:995   */\n      dup2\n        /* \"#utility.yul\":987:1022   */\n      eq\n        /* \"#utility.yul\":977:1040   */\n      tag_144\n      jumpi\n        /* \"#utility.yul\":1036:1037   */\n      0x00\n        /* \"#utility.yul\":1033:1034   */\n      dup1\n        /* \"#utility.yul\":1026:1038   */\n      revert\n        /* \"#utility.yul\":977:1040   */\n    tag_144:\n        /* \"#utility.yul\":924:1046   */\n      pop\n      jump\t// out\n        /* \"#utility.yul\":1052:1191   */\n    tag_106:\n        /* \"#utility.yul\":1098:1103   */\n      0x00\n        /* \"#utility.yul\":1136:1142   */\n      dup2\n        /* \"#utility.yul\":1123:1143   */\n      calldataload\n        /* \"#utility.yul\":1114:1143   */\n      swap1\n      pop\n        /* \"#utility.yul\":1152:1185   */\n      tag_146\n        /* \"#utility.yul\":1179:1184   */\n      dup2\n        /* \"#utility.yul\":1152:1185   */\n      tag_105\n      jump\t// in\n    tag_146:\n        /* \"#utility.yul\":1052:1191   */\n      swap3\n      swap2\n      pop\n      pop\n      jump\t// out\n        /* \"#utility.yul\":1197:1671   */\n    tag_13:\n        /* \"#utility.yul\":1265:1271   */\n      0x00\n        /* \"#utility.yul\":1273:1279   */\n      dup1\n        /* \"#utility.yul\":1322:1324   */\n      0x40\n        /* \"#utility.yul\":1310:1319   */\n      dup4\n        /* \"#utility.yul\":1301:1308   */\n      dup6\n        /* \"#utility.yul\":1297:1320   */\n      sub\n        /* \"#utility.yul\":1293:1325   */\n      slt\n        /* \"#utility.yul\":1290:1409   */\n      iszero\n      tag_148\n      jumpi\n        /* \"#utility.yul\":1328:1407   */\n      tag_149\n      tag_98\n      jump\t// in\n    tag_149:\n        /* \"#utility.yul\":1290:1409   */\n    tag_148:\n        /* \"#utility.yul\":1448:1449   */\n      0x00\n        /* \"#utility.yul\":1473:1526   */\n      tag_150\n        /* \"#utility.yul\":1518:1525   */\n      dup6\n        /* \"#utility.yul\":1509:1515   */\n      dup3\n        /* \"#utility.yul\":1498:1507   */\n      dup7\n        /* \"#utility.yul\":1494:1516   */\n      add\n        /* \"#utility.yul\":1473:1526   */\n      tag_103\n      jump\t// in\n    tag_150:\n        /* \"#utility.yul\":1463:1526   */\n      swap3\n      pop\n        /* \"#utility.yul\":1419:1536   */\n      pop\n        /* \"#utility.yul\":1575:1577   */\n      0x20\n        /* \"#utility.yul\":1601:1654   */\n      tag_151\n        /* \"#utility.yul\":1646:1653   */\n      dup6\n        /* \"#utility.yul\":1637:1643   */\n      dup3\n        /* \"#utility.yul\":1626:1635   */\n      dup7\n        /* \"#utility.yul\":1622:1644   */\n      add\n        /* \"#utility.yul\":1601:1654   */\n      tag_106\n      jump\t// in\n    tag_151:\n        /* \"#utility.yul\":1591:1654   */\n      swap2\n      pop\n        /* \"#utility.yul\":1546:1664   */\n      pop\n        /* \"#utility.yul\":1197:1671   */\n      swap3\n      pop\n      swap3\n      swap1\n      pop\n      jump\t// out\n        /* \"#utility.yul\":1677:1763   */\n    tag_107:\n        /* \"#utility.yul\":1712:1719   */\n      0x00\n        /* \"#utility.yul\":1752:1756   */\n      0xff\n        /* \"#utility.yul\":1745:1750   */\n      dup3\n        /* \"#utility.yul\":1741:1757   */\n      and\n        /* \"#utility.yul\":1730:1757   */\n      swap1\n      pop\n        /* \"#utility.yul\":1677:1763   */\n      swap2\n      swap1\n      pop\n      jump\t// out\n        /* \"#utility.yul\":1769:1887   */\n    tag_108:\n        /* \"#utility.yul\":1840:1862   */\n      tag_154\n        /* \"#utility.yul\":1856:1861   */\n      dup2\n        /* \"#utility.yul\":1840:1862   */\n      tag_107\n      jump\t// in\n    tag_154:\n        /* \"#utility.yul\":1833:1838   */\n      dup2\n        /* \"#utility.yul\":1830:1863   */\n      eq\n        /* \"#utility.yul\":1820:1881   */\n      tag_155\n      jumpi\n        /* \"#utility.yul\":1877:1878   */\n      0x00\n        /* \"#utility.yul\":1874:1875   */\n      dup1\n        /* \"#utility.yul\":1867:1879   */\n      revert\n        /* \"#utility.yul\":1820:1881   */\n    tag_155:\n        /* \"#utility.yul\":1769:1887   */\n      pop\n      jump\t// out\n        /* \"#utility.yul\":1893:2028   */\n    tag_109:\n        /* \"#utility.yul\":1937:1942   */\n      0x00\n        /* \"#utility.yul\":1975:1981   */\n      dup2\n        /* \"#utility.yul\":1962:1982   */\n      calldataload\n        /* \"#utility.yul\":1953:1982   */\n      swap1\n      pop\n        /* \"#utility.yul\":1991:2022   */\n      tag_157\n        /* \"#utility.yul\":2016:2021   */\n      dup2\n        /* \"#utility.yul\":1991:2022   */\n      tag_108\n      jump\t// in\n    tag_157:\n        /* \"#utility.yul\":1893:2028   */\n      swap3\n      swap2\n      pop\n      pop\n      jump\t// out\n        /* \"#utility.yul\":2034:2111   */\n    tag_110:\n        /* \"#utility.yul\":2071:2078   */\n      0x00\n        /* \"#utility.yul\":2100:2105   */\n      dup2\n        /* \"#utility.yul\":2089:2105   */\n      swap1\n      pop\n        /* \"#utility.yul\":2034:2111   */\n      swap2\n      swap1\n      pop\n      jump\t// out\n        /* \"#utility.yul\":2117:2239   */\n    tag_111:\n        /* \"#utility.yul\":2190:2214   */\n      tag_160\n        /* \"#utility.yul\":2208:2213   */\n      dup2\n        /* \"#utility.yul\":2190:2214   */\n      tag_110\n      jump\t// in\n    tag_160:\n        /* \"#utility.yul\":2183:2188   */\n      dup2\n        /* \"#utility.yul\":2180:2215   */\n      eq\n        /* \"#utility.yul\":2170:2233   */\n      tag_161\n      jumpi\n        /* \"#utility.yul\":2229:2230   */\n      0x00\n        /* \"#utility.yul\":2226:2227   */\n      dup1\n        /* \"#utility.yul\":2219:2231   */\n      revert\n        /* \"#utility.yul\":2170:2233   */\n    tag_161:\n        /* \"#utility.yul\":2117:2239   */\n      pop\n      jump\t// out\n        /* \"#utility.yul\":2245:2384   */\n    tag_112:\n        /* \"#utility.yul\":2291:2296   */\n      0x00\n        /* \"#utility.yul\":2329:2335   */\n      dup2\n        /* \"#utility.yul\":2316:2336   */\n      calldataload\n        /* \"#utility.yul\":2307:2336   */\n      swap1\n      pop\n        /* \"#utility.yul\":2345:2378   */\n      tag_163\n        /* \"#utility.yul\":2372:2377   */\n      dup2\n        /* \"#utility.yul\":2345:2378   */\n      tag_111\n      jump\t// in\n    tag_163:\n        /* \"#utility.yul\":2245:2384   */\n      swap3\n      swap2\n      pop\n      pop\n      jump\t// out\n        /* \"#utility.yul\":2390:3443   */\n    tag_17:\n        /* \"#utility.yul\":2492:2498   */\n      0x00\n        /* \"#utility.yul\":2500:2506   */\n      dup1\n        /* \"#utility.yul\":2508:2514   */\n      0x00\n        /* \"#utility.yul\":2516:2522   */\n      dup1\n        /* \"#utility.yul\":2524:2530   */\n      0x00\n        /* \"#utility.yul\":2532:2538   */\n      dup1\n        /* \"#utility.yul\":2581:2584   */\n      0xc0\n        /* \"#utility.yul\":2569:2578   */\n      dup8\n        /* \"#utility.yul\":2560:2567   */\n      dup10\n        /* \"#utility.yul\":2556:2579   */\n      sub\n        /* \"#utility.yul\":2552:2585   */\n      slt\n        /* \"#utility.yul\":2549:2669   */\n      iszero\n      tag_165\n      jumpi\n        /* \"#utility.yul\":2588:2667   */\n      tag_166\n      tag_98\n      jump\t// in\n    tag_166:\n        /* \"#utility.yul\":2549:2669   */\n    tag_165:\n        /* \"#utility.yul\":2708:2709   */\n      0x00\n        /* \"#utility.yul\":2733:2786   */\n      tag_167\n        /* \"#utility.yul\":2778:2785   */\n      dup10\n        /* \"#utility.yul\":2769:2775   */\n      dup3\n        /* \"#utility.yul\":2758:2767   */\n      dup11\n        /* \"#utility.yul\":2754:2776   */\n      add\n        /* \"#utility.yul\":2733:2786   */\n      tag_103\n      jump\t// in\n    tag_167:\n        /* \"#utility.yul\":2723:2786   */\n      swap7\n      pop\n        /* \"#utility.yul\":2679:2796   */\n      pop\n        /* \"#utility.yul\":2835:2837   */\n      0x20\n        /* \"#utility.yul\":2861:2914   */\n      tag_168\n        /* \"#utility.yul\":2906:2913   */\n      dup10\n        /* \"#utility.yul\":2897:2903   */\n      dup3\n        /* \"#utility.yul\":2886:2895   */\n      dup11\n        /* \"#utility.yul\":2882:2904   */\n      add\n        /* \"#utility.yul\":2861:2914   */\n      tag_106\n      jump\t// in\n    tag_168:\n        /* \"#utility.yul\":2851:2914   */\n      swap6\n      pop\n        /* \"#utility.yul\":2806:2924   */\n      pop\n        /* \"#utility.yul\":2963:2965   */\n      0x40\n        /* \"#utility.yul\":2989:3042   */\n      tag_169\n        /* \"#utility.yul\":3034:3041   */\n      dup10\n        /* \"#utility.yul\":3025:3031   */\n      dup3\n        /* \"#utility.yul\":3014:3023   */\n      dup11\n        /* \"#utility.yul\":3010:3032   */\n      add\n        /* \"#utility.yul\":2989:3042   */\n      tag_106\n      jump\t// in\n    tag_169:\n        /* \"#utility.yul\":2979:3042   */\n      swap5\n      pop\n        /* \"#utility.yul\":2934:3052   */\n      pop\n        /* \"#utility.yul\":3091:3093   */\n      0x60\n        /* \"#utility.yul\":3117:3168   */\n      tag_170\n        /* \"#utility.yul\":3160:3167   */\n      dup10\n        /* \"#utility.yul\":3151:3157   */\n      dup3\n        /* \"#utility.yul\":3140:3149   */\n      dup11\n        /* \"#utility.yul\":3136:3158   */\n      add\n        /* \"#utility.yul\":3117:3168   */\n      tag_109\n      jump\t// in\n    tag_170:\n        /* \"#utility.yul\":3107:3168   */\n      swap4\n      pop\n        /* \"#utility.yul\":3062:3178   */\n      pop\n        /* \"#utility.yul\":3217:3220   */\n      0x80\n        /* \"#utility.yul\":3244:3297   */\n      tag_171\n        /* \"#utility.yul\":3289:3296   */\n      dup10\n        /* \"#utility.yul\":3280:3286   */\n      dup3\n        /* \"#utility.yul\":3269:3278   */\n      dup11\n        /* \"#utility.yul\":3265:3287   */\n      add\n        /* \"#utility.yul\":3244:3297   */\n      tag_112\n      jump\t// in\n    tag_171:\n        /* \"#utility.yul\":3234:3297   */\n      swap3\n      pop\n        /* \"#utility.yul\":3188:3307   */\n      pop\n        /* \"#utility.yul\":3346:3349   */\n      0xa0\n        /* \"#utility.yul\":3373:3426   */\n      tag_172\n        /* \"#utility.yul\":3418:3425   */\n      dup10\n        /* \"#utility.yul\":3409:3415   */\n      dup3\n        /* \"#utility.yul\":3398:3407   */\n      dup11\n        /* \"#utility.yul\":3394:3416   */\n      add\n        /* \"#utility.yul\":3373:3426   */\n      tag_112\n      jump\t// in\n    tag_172:\n        /* \"#utility.yul\":3363:3426   */\n      swap2\n      pop\n        /* \"#utility.yul\":3317:3436   */\n      pop\n        /* \"#utility.yul\":2390:3443   */\n      swap3\n      swap6\n      pop\n      swap3\n      swap6\n      pop\n      swap3\n      swap6\n      jump\t// out\n        /* \"#utility.yul\":3449:3778   */\n    tag_21:\n        /* \"#utility.yul\":3508:3514   */\n      0x00\n        /* \"#utility.yul\":3557:3559   */\n      0x20\n        /* \"#utility.yul\":3545:3554   */\n      dup3\n        /* \"#utility.yul\":3536:3543   */\n      dup5\n        /* \"#utility.yul\":3532:3555   */\n      sub\n        /* \"#utility.yul\":3528:3560   */\n      slt\n        /* \"#utility.yul\":3525:3644   */\n      iszero\n      tag_174\n      jumpi\n        /* \"#utility.yul\":3563:3642   */\n      tag_175\n      tag_98\n      jump\t// in\n    tag_175:\n        /* \"#utility.yul\":3525:3644   */\n    tag_174:\n        /* \"#utility.yul\":3683:3684   */\n      0x00\n        /* \"#utility.yul\":3708:3761   */\n      tag_176\n        /* \"#utility.yul\":3753:3760   */\n      dup5\n        /* \"#utility.yul\":3744:3750   */\n      dup3\n        /* \"#utility.yul\":3733:3742   */\n      dup6\n        /* \"#utility.yul\":3729:3751   */\n      add\n        /* \"#utility.yul\":3708:3761   */\n      tag_103\n      jump\t// in\n    tag_176:\n        /* \"#utility.yul\":3698:3761   */\n      swap2\n      pop\n        /* \"#utility.yul\":3654:3771   */\n      pop\n        /* \"#utility.yul\":3449:3778   */\n      swap3\n      swap2\n      pop\n      pop\n      jump\t// out\n        /* \"#utility.yul\":3784:3902   */\n    tag_113:\n        /* \"#utility.yul\":3871:3895   */\n      tag_178\n        /* \"#utility.yul\":3889:3894   */\n      dup2\n        /* \"#utility.yul\":3871:3895   */\n      tag_104\n      jump\t// in\n    tag_178:\n        /* \"#utility.yul\":3866:3869   */\n      dup3\n        /* \"#utility.yul\":3859:3896   */\n      mstore\n        /* \"#utility.yul\":3784:3902   */\n      pop\n      pop\n      jump\t// out\n        /* \"#utility.yul\":3908:4130   */\n    tag_24:\n        /* \"#utility.yul\":4001:4005   */\n      0x00\n        /* \"#utility.yul\":4039:4041   */\n      0x20\n        /* \"#utility.yul\":4028:4037   */\n      dup3\n        /* \"#utility.yul\":4024:4042   */\n      add\n        /* \"#utility.yul\":4016:4042   */\n      swap1\n      pop\n        /* \"#utility.yul\":4052:4123   */\n      tag_180\n        /* \"#utility.yul\":4120:4121   */\n      0x00\n        /* \"#utility.yul\":4109:4118   */\n      dup4\n        /* \"#utility.yul\":4105:4122   */\n      add\n        /* \"#utility.yul\":4096:4102   */\n      dup5\n        /* \"#utility.yul\":4052:4123   */\n      tag_113\n      jump\t// in\n    tag_180:\n        /* \"#utility.yul\":3908:4130   */\n      swap3\n      swap2\n      pop\n      pop\n      jump\t// out\n        /* \"#utility.yul\":4136:4254   */\n    tag_114:\n        /* \"#utility.yul\":4223:4247   */\n      tag_182\n        /* \"#utility.yul\":4241:4246   */\n      dup2\n        /* \"#utility.yul\":4223:4247   */\n      tag_101\n      jump\t// in\n    tag_182:\n        /* \"#utility.yul\":4218:4221   */\n      dup3\n        /* \"#utility.yul\":4211:4248   */\n      mstore\n        /* \"#utility.yul\":4136:4254   */\n      pop\n      pop\n      jump\t// out\n        /* \"#utility.yul\":4260:4482   */\n    tag_30:\n        /* \"#utility.yul\":4353:4357   */\n      0x00\n        /* \"#utility.yul\":4391:4393   */\n      0x20\n        /* \"#utility.yul\":4380:4389   */\n      dup3\n        /* \"#utility.yul\":4376:4394   */\n      add\n        /* \"#utility.yul\":4368:4394   */\n      swap1\n      pop\n        /* \"#utility.yul\":4404:4475   */\n      tag_184\n        /* \"#utility.yul\":4472:4473   */\n      0x00\n        /* \"#utility.yul\":4461:4470   */\n      dup4\n        /* \"#utility.yul\":4457:4474   */\n      add\n        /* \"#utility.yul\":4448:4454   */\n      dup5\n        /* \"#utility.yul\":4404:4475   */\n      tag_114\n      jump\t// in\n    tag_184:\n        /* \"#utility.yul\":4260:4482   */\n      swap3\n      swap2\n      pop\n      pop\n      jump\t// out\n        /* \"#utility.yul\":4488:4930   */\n    tag_36:\n        /* \"#utility.yul\":4637:4641   */\n      0x00\n        /* \"#utility.yul\":4675:4677   */\n      0x60\n        /* \"#utility.yul\":4664:4673   */\n      dup3\n        /* \"#utility.yul\":4660:4678   */\n      add\n        /* \"#utility.yul\":4652:4678   */\n      swap1\n      pop\n        /* \"#utility.yul\":4688:4759   */\n      tag_186\n        /* \"#utility.yul\":4756:4757   */\n      0x00\n        /* \"#utility.yul\":4745:4754   */\n      dup4\n        /* \"#utility.yul\":4741:4758   */\n      add\n        /* \"#utility.yul\":4732:4738   */\n      dup7\n        /* \"#utility.yul\":4688:4759   */\n      tag_114\n      jump\t// in\n    tag_186:\n        /* \"#utility.yul\":4769:4841   */\n      tag_187\n        /* \"#utility.yul\":4837:4839   */\n      0x20\n        /* \"#utility.yul\":4826:4835   */\n      dup4\n        /* \"#utility.yul\":4822:4840   */\n      add\n        /* \"#utility.yul\":4813:4819   */\n      dup6\n        /* \"#utility.yul\":4769:4841   */\n      tag_114\n      jump\t// in\n    tag_187:\n        /* \"#utility.yul\":4851:4923   */\n      tag_188\n        /* \"#utility.yul\":4919:4921   */\n      0x40\n        /* \"#utility.yul\":4908:4917   */\n      dup4\n        /* \"#utility.yul\":4904:4922   */\n      add\n        /* \"#utility.yul\":4895:4901   */\n      dup5\n        /* \"#utility.yul\":4851:4923   */\n      tag_113\n      jump\t// in\n    tag_188:\n        /* \"#utility.yul\":4488:4930   */\n      swap5\n      swap4\n      pop\n      pop\n      pop\n      pop\n      jump\t// out\n        /* \"#utility.yul\":4936:5026   */\n    tag_115:\n        /* \"#utility.yul\":4970:4977   */\n      0x00\n        /* \"#utility.yul\":5013:5018   */\n      dup2\n        /* \"#utility.yul\":5006:5019   */\n      iszero\n        /* \"#utility.yul\":4999:5020   */\n      iszero\n        /* \"#utility.yul\":4988:5020   */\n      swap1\n      pop\n        /* \"#utility.yul\":4936:5026   */\n      swap2\n      swap1\n      pop\n      jump\t// out\n        /* \"#utility.yul\":5032:5148   */\n    tag_116:\n        /* \"#utility.yul\":5102:5123   */\n      tag_191\n        /* \"#utility.yul\":5117:5122   */\n      dup2\n        /* \"#utility.yul\":5102:5123   */\n      tag_115\n      jump\t// in\n    tag_191:\n        /* \"#utility.yul\":5095:5100   */\n      dup2\n        /* \"#utility.yul\":5092:5124   */\n      eq\n        /* \"#utility.yul\":5082:5142   */\n      tag_192\n      jumpi\n        /* \"#utility.yul\":5138:5139   */\n      0x00\n        /* \"#utility.yul\":5135:5136   */\n      dup1\n        /* \"#utility.yul\":5128:5140   */\n      revert\n        /* \"#utility.yul\":5082:5142   */\n    tag_192:\n        /* \"#utility.yul\":5032:5148   */\n      pop\n      jump\t// out\n        /* \"#utility.yul\":5154:5291   */\n    tag_117:\n        /* \"#utility.yul\":5208:5213   */\n      0x00\n        /* \"#utility.yul\":5239:5245   */\n      dup2\n        /* \"#utility.yul\":5233:5246   */\n      mload\n        /* \"#utility.yul\":5224:5246   */\n      swap1\n      pop\n        /* \"#utility.yul\":5255:5285   */\n      tag_194\n        /* \"#utility.yul\":5279:5284   */\n      dup2\n        /* \"#utility.yul\":5255:5285   */\n      tag_116\n      jump\t// in\n    tag_194:\n        /* \"#utility.yul\":5154:5291   */\n      swap3\n      swap2\n      pop\n      pop\n      jump\t// out\n        /* \"#utility.yul\":5297:5642   */\n    tag_40:\n        /* \"#utility.yul\":5364:5370   */\n      0x00\n        /* \"#utility.yul\":5413:5415   */\n      0x20\n        /* \"#utility.yul\":5401:5410   */\n      dup3\n        /* \"#utility.yul\":5392:5399   */\n      dup5\n        /* \"#utility.yul\":5388:5411   */\n      sub\n        /* \"#utility.yul\":5384:5416   */\n      slt\n        /* \"#utility.yul\":5381:5500   */\n      iszero\n      tag_196\n      jumpi\n        /* \"#utility.yul\":5419:5498   */\n      tag_197\n      tag_98\n      jump\t// in\n    tag_197:\n        /* \"#utility.yul\":5381:5500   */\n    tag_196:\n        /* \"#utility.yul\":5539:5540   */\n      0x00\n        /* \"#utility.yul\":5564:5625   */\n      tag_198\n        /* \"#utility.yul\":5617:5624   */\n      dup5\n        /* \"#utility.yul\":5608:5614   */\n      dup3\n        /* \"#utility.yul\":5597:5606   */\n      dup6\n        /* \"#utility.yul\":5593:5615   */\n      add\n        /* \"#utility.yul\":5564:5625   */\n      tag_117\n      jump\t// in\n    tag_198:\n        /* \"#utility.yul\":5554:5625   */\n      swap2\n      pop\n        /* \"#utility.yul\":5510:5635   */\n      pop\n        /* \"#utility.yul\":5297:5642   */\n      swap3\n      swap2\n      pop\n      pop\n      jump\t// out\n        /* \"#utility.yul\":5648:5817   */\n    tag_118:\n        /* \"#utility.yul\":5732:5743   */\n      0x00\n        /* \"#utility.yul\":5766:5772   */\n      dup3\n        /* \"#utility.yul\":5761:5764   */\n      dup3\n        /* \"#utility.yul\":5754:5773   */\n      mstore\n        /* \"#utility.yul\":5806:5810   */\n      0x20\n        /* \"#utility.yul\":5801:5804   */\n      dup3\n        /* \"#utility.yul\":5797:5811   */\n      add\n        /* \"#utility.yul\":5782:5811   */\n      swap1\n      pop\n        /* \"#utility.yul\":5648:5817   */\n      swap3\n      swap2\n      pop\n      pop\n      jump\t// out\n        /* \"#utility.yul\":5823:5992   */\n    tag_119:\n        /* \"#utility.yul\":5963:5984   */\n      0x5472616e736665722066726f6d206572726f7200000000000000000000000000\n        /* \"#utility.yul\":5959:5960   */\n      0x00\n        /* \"#utility.yul\":5951:5957   */\n      dup3\n        /* \"#utility.yul\":5947:5961   */\n      add\n        /* \"#utility.yul\":5940:5985   */\n      mstore\n        /* \"#utility.yul\":5823:5992   */\n      pop\n      jump\t// out\n        /* \"#utility.yul\":5998:6364   */\n    tag_120:\n        /* \"#utility.yul\":6140:6143   */\n      0x00\n        /* \"#utility.yul\":6161:6228   */\n      tag_202\n        /* \"#utility.yul\":6225:6227   */\n      0x13\n        /* \"#utility.yul\":6220:6223   */\n      dup4\n        /* \"#utility.yul\":6161:6228   */\n      tag_118\n      jump\t// in\n    tag_202:\n        /* \"#utility.yul\":6154:6228   */\n      swap2\n      pop\n        /* \"#utility.yul\":6237:6330   */\n      tag_203\n        /* \"#utility.yul\":6326:6329   */\n      dup3\n        /* \"#utility.yul\":6237:6330   */\n      tag_119\n      jump\t// in\n    tag_203:\n        /* \"#utility.yul\":6355:6357   */\n      0x20\n        /* \"#utility.yul\":6350:6353   */\n      dup3\n        /* \"#utility.yul\":6346:6358   */\n      add\n        /* \"#utility.yul\":6339:6358   */\n      swap1\n      pop\n        /* \"#utility.yul\":5998:6364   */\n      swap2\n      swap1\n      pop\n      jump\t// out\n        /* \"#utility.yul\":6370:6789   */\n    tag_43:\n        /* \"#utility.yul\":6536:6540   */\n      0x00\n        /* \"#utility.yul\":6574:6576   */\n      0x20\n        /* \"#utility.yul\":6563:6572   */\n      dup3\n        /* \"#utility.yul\":6559:6577   */\n      add\n        /* \"#utility.yul\":6551:6577   */\n      swap1\n      pop\n        /* \"#utility.yul\":6623:6632   */\n      dup2\n        /* \"#utility.yul\":6617:6621   */\n      dup2\n        /* \"#utility.yul\":6613:6633   */\n      sub\n        /* \"#utility.yul\":6609:6610   */\n      0x00\n        /* \"#utility.yul\":6598:6607   */\n      dup4\n        /* \"#utility.yul\":6594:6611   */\n      add\n        /* \"#utility.yul\":6587:6634   */\n      mstore\n        /* \"#utility.yul\":6651:6782   */\n      tag_205\n        /* \"#utility.yul\":6777:6781   */\n      dup2\n        /* \"#utility.yul\":6651:6782   */\n      tag_120\n      jump\t// in\n    tag_205:\n        /* \"#utility.yul\":6643:6782   */\n      swap1\n      pop\n        /* \"#utility.yul\":6370:6789   */\n      swap2\n      swap1\n      pop\n      jump\t// out\n        /* \"#utility.yul\":6795:6975   */\n    tag_121:\n        /* \"#utility.yul\":6843:6920   */\n      0x4e487b7100000000000000000000000000000000000000000000000000000000\n        /* \"#utility.yul\":6840:6841   */\n      0x00\n        /* \"#utility.yul\":6833:6921   */\n      mstore\n        /* \"#utility.yul\":6940:6944   */\n      0x11\n        /* \"#utility.yul\":6937:6938   */\n      0x04\n        /* \"#utility.yul\":6930:6945   */\n      mstore\n        /* \"#utility.yul\":6964:6968   */\n      0x24\n        /* \"#utility.yul\":6961:6962   */\n      0x00\n        /* \"#utility.yul\":6954:6969   */\n      revert\n        /* \"#utility.yul\":6981:7172   */\n    tag_45:\n        /* \"#utility.yul\":7021:7024   */\n      0x00\n        /* \"#utility.yul\":7040:7060   */\n      tag_208\n        /* \"#utility.yul\":7058:7059   */\n      dup3\n        /* \"#utility.yul\":7040:7060   */\n      tag_104\n      jump\t// in\n    tag_208:\n        /* \"#utility.yul\":7035:7060   */\n      swap2\n      pop\n        /* \"#utility.yul\":7074:7094   */\n      tag_209\n        /* \"#utility.yul\":7092:7093   */\n      dup4\n        /* \"#utility.yul\":7074:7094   */\n      tag_104\n      jump\t// in\n    tag_209:\n        /* \"#utility.yul\":7069:7094   */\n      swap3\n      pop\n        /* \"#utility.yul\":7117:7118   */\n      dup3\n        /* \"#utility.yul\":7114:7115   */\n      dup3\n        /* \"#utility.yul\":7110:7119   */\n      add\n        /* \"#utility.yul\":7103:7119   */\n      swap1\n      pop\n        /* \"#utility.yul\":7138:7141   */\n      dup1\n        /* \"#utility.yul\":7135:7136   */\n      dup3\n        /* \"#utility.yul\":7132:7142   */\n      gt\n        /* \"#utility.yul\":7129:7165   */\n      iszero\n      tag_210\n      jumpi\n        /* \"#utility.yul\":7145:7163   */\n      tag_211\n      tag_121\n      jump\t// in\n    tag_211:\n        /* \"#utility.yul\":7129:7165   */\n    tag_210:\n        /* \"#utility.yul\":6981:7172   */\n      swap3\n      swap2\n      pop\n      pop\n      jump\t// out\n        /* \"#utility.yul\":7178:7290   */\n    tag_122:\n        /* \"#utility.yul\":7261:7283   */\n      tag_213\n        /* \"#utility.yul\":7277:7282   */\n      dup2\n        /* \"#utility.yul\":7261:7283   */\n      tag_107\n      jump\t// in\n    tag_213:\n        /* \"#utility.yul\":7256:7259   */\n      dup3\n        /* \"#utility.yul\":7249:7284   */\n      mstore\n        /* \"#utility.yul\":7178:7290   */\n      pop\n      pop\n      jump\t// out\n        /* \"#utility.yul\":7296:7414   */\n    tag_123:\n        /* \"#utility.yul\":7383:7407   */\n      tag_215\n        /* \"#utility.yul\":7401:7406   */\n      dup2\n        /* \"#utility.yul\":7383:7407   */\n      tag_110\n      jump\t// in\n    tag_215:\n        /* \"#utility.yul\":7378:7381   */\n      dup3\n        /* \"#utility.yul\":7371:7408   */\n      mstore\n        /* \"#utility.yul\":7296:7414   */\n      pop\n      pop\n      jump\t// out\n        /* \"#utility.yul\":7420:8298   */\n    tag_48:\n        /* \"#utility.yul\":7677:7681   */\n      0x00\n        /* \"#utility.yul\":7715:7718   */\n      0xe0\n        /* \"#utility.yul\":7704:7713   */\n      dup3\n        /* \"#utility.yul\":7700:7719   */\n      add\n        /* \"#utility.yul\":7692:7719   */\n      swap1\n      pop\n        /* \"#utility.yul\":7729:7800   */\n      tag_217\n        /* \"#utility.yul\":7797:7798   */\n      0x00\n        /* \"#utility.yul\":7786:7795   */\n      dup4\n        /* \"#utility.yul\":7782:7799   */\n      add\n        /* \"#utility.yul\":7773:7779   */\n      dup11\n        /* \"#utility.yul\":7729:7800   */\n      tag_114\n      jump\t// in\n    tag_217:\n        /* \"#utility.yul\":7810:7882   */\n      tag_218\n        /* \"#utility.yul\":7878:7880   */\n      0x20\n        /* \"#utility.yul\":7867:7876   */\n      dup4\n        /* \"#utility.yul\":7863:7881   */\n      add\n        /* \"#utility.yul\":7854:7860   */\n      dup10\n        /* \"#utility.yul\":7810:7882   */\n      tag_114\n      jump\t// in\n    tag_218:\n        /* \"#utility.yul\":7892:7964   */\n      tag_219\n        /* \"#utility.yul\":7960:7962   */\n      0x40\n        /* \"#utility.yul\":7949:7958   */\n      dup4\n        /* \"#utility.yul\":7945:7963   */\n      add\n        /* \"#utility.yul\":7936:7942   */\n      dup9\n        /* \"#utility.yul\":7892:7964   */\n      tag_113\n      jump\t// in\n    tag_219:\n        /* \"#utility.yul\":7974:8046   */\n      tag_220\n        /* \"#utility.yul\":8042:8044   */\n      0x60\n        /* \"#utility.yul\":8031:8040   */\n      dup4\n        /* \"#utility.yul\":8027:8045   */\n      add\n        /* \"#utility.yul\":8018:8024   */\n      dup8\n        /* \"#utility.yul\":7974:8046   */\n      tag_113\n      jump\t// in\n    tag_220:\n        /* \"#utility.yul\":8056:8125   */\n      tag_221\n        /* \"#utility.yul\":8120:8123   */\n      0x80\n        /* \"#utility.yul\":8109:8118   */\n      dup4\n        /* \"#utility.yul\":8105:8124   */\n      add\n        /* \"#utility.yul\":8096:8102   */\n      dup7\n        /* \"#utility.yul\":8056:8125   */\n      tag_122\n      jump\t// in\n    tag_221:\n        /* \"#utility.yul\":8135:8208   */\n      tag_222\n        /* \"#utility.yul\":8203:8206   */\n      0xa0\n        /* \"#utility.yul\":8192:8201   */\n      dup4\n        /* \"#utility.yul\":8188:8207   */\n      add\n        /* \"#utility.yul\":8179:8185   */\n      dup6\n        /* \"#utility.yul\":8135:8208   */\n      tag_123\n      jump\t// in\n    tag_222:\n        /* \"#utility.yul\":8218:8291   */\n      tag_223\n        /* \"#utility.yul\":8286:8289   */\n      0xc0\n        /* \"#utility.yul\":8275:8284   */\n      dup4\n        /* \"#utility.yul\":8271:8290   */\n      add\n        /* \"#utility.yul\":8262:8268   */\n      dup5\n        /* \"#utility.yul\":8218:8291   */\n      tag_123\n      jump\t// in\n    tag_223:\n        /* \"#utility.yul\":7420:8298   */\n      swap9\n      swap8\n      pop\n      pop\n      pop\n      pop\n      pop\n      pop\n      pop\n      pop\n      jump\t// out\n        /* \"#utility.yul\":8304:8447   */\n    tag_124:\n        /* \"#utility.yul\":8361:8366   */\n      0x00\n        /* \"#utility.yul\":8392:8398   */\n      dup2\n        /* \"#utility.yul\":8386:8399   */\n      mload\n        /* \"#utility.yul\":8377:8399   */\n      swap1\n      pop\n        /* \"#utility.yul\":8408:8441   */\n      tag_225\n        /* \"#utility.yul\":8435:8440   */\n      dup2\n        /* \"#utility.yul\":8408:8441   */\n      tag_105\n      jump\t// in\n    tag_225:\n        /* \"#utility.yul\":8304:8447   */\n      swap3\n      swap2\n      pop\n      pop\n      jump\t// out\n        /* \"#utility.yul\":8453:8804   */\n    tag_58:\n        /* \"#utility.yul\":8523:8529   */\n      0x00\n        /* \"#utility.yul\":8572:8574   */\n      0x20\n        /* \"#utility.yul\":8560:8569   */\n      dup3\n        /* \"#utility.yul\":8551:8558   */\n      dup5\n        /* \"#utility.yul\":8547:8570   */\n      sub\n        /* \"#utility.yul\":8543:8575   */\n      slt\n        /* \"#utility.yul\":8540:8659   */\n      iszero\n      tag_227\n      jumpi\n        /* \"#utility.yul\":8578:8657   */\n      tag_228\n      tag_98\n      jump\t// in\n    tag_228:\n        /* \"#utility.yul\":8540:8659   */\n    tag_227:\n        /* \"#utility.yul\":8698:8699   */\n      0x00\n        /* \"#utility.yul\":8723:8787   */\n      tag_229\n        /* \"#utility.yul\":8779:8786   */\n      dup5\n        /* \"#utility.yul\":8770:8776   */\n      dup3\n        /* \"#utility.yul\":8759:8768   */\n      dup6\n        /* \"#utility.yul\":8755:8777   */\n      add\n        /* \"#utility.yul\":8723:8787   */\n      tag_124\n      jump\t// in\n    tag_229:\n        /* \"#utility.yul\":8713:8787   */\n      swap2\n      pop\n        /* \"#utility.yul\":8669:8797   */\n      pop\n        /* \"#utility.yul\":8453:8804   */\n      swap3\n      swap2\n      pop\n      pop\n      jump\t// out\n        /* \"#utility.yul\":8810:9142   */\n    tag_64:\n        /* \"#utility.yul\":8931:8935   */\n      0x00\n        /* \"#utility.yul\":8969:8971   */\n      0x40\n        /* \"#utility.yul\":8958:8967   */\n      dup3\n        /* \"#utility.yul\":8954:8972   */\n      add\n        /* \"#utility.yul\":8946:8972   */\n      swap1\n      pop\n        /* \"#utility.yul\":8982:9053   */\n      tag_231\n        /* \"#utility.yul\":9050:9051   */\n      0x00\n        /* \"#utility.yul\":9039:9048   */\n      dup4\n        /* \"#utility.yul\":9035:9052   */\n      add\n        /* \"#utility.yul\":9026:9032   */\n      dup6\n        /* \"#utility.yul\":8982:9053   */\n      tag_114\n      jump\t// in\n    tag_231:\n        /* \"#utility.yul\":9063:9135   */\n      tag_232\n        /* \"#utility.yul\":9131:9133   */\n      0x20\n        /* \"#utility.yul\":9120:9129   */\n      dup4\n        /* \"#utility.yul\":9116:9134   */\n      add\n        /* \"#utility.yul\":9107:9113   */\n      dup5\n        /* \"#utility.yul\":9063:9135   */\n      tag_113\n      jump\t// in\n    tag_232:\n        /* \"#utility.yul\":8810:9142   */\n      swap4\n      swap3\n      pop\n      pop\n      pop\n      jump\t// out\n        /* \"#utility.yul\":9148:9246   */\n    tag_125:\n        /* \"#utility.yul\":9199:9205   */\n      0x00\n        /* \"#utility.yul\":9233:9238   */\n      dup2\n        /* \"#utility.yul\":9227:9239   */\n      mload\n        /* \"#utility.yul\":9217:9239   */\n      swap1\n      pop\n        /* \"#utility.yul\":9148:9246   */\n      swap2\n      swap1\n      pop\n      jump\t// out\n        /* \"#utility.yul\":9252:9399   */\n    tag_126:\n        /* \"#utility.yul\":9353:9364   */\n      0x00\n        /* \"#utility.yul\":9390:9393   */\n      dup2\n        /* \"#utility.yul\":9375:9393   */\n      swap1\n      pop\n        /* \"#utility.yul\":9252:9399   */\n      swap3\n      swap2\n      pop\n      pop\n      jump\t// out\n        /* \"#utility.yul\":9405:9544   */\n    tag_127:\n        /* \"#utility.yul\":9494:9500   */\n      dup3\n        /* \"#utility.yul\":9489:9492   */\n      dup2\n        /* \"#utility.yul\":9484:9487   */\n      dup4\n        /* \"#utility.yul\":9478:9501   */\n      mcopy\n        /* \"#utility.yul\":9535:9536   */\n      0x00\n        /* \"#utility.yul\":9526:9532   */\n      dup4\n        /* \"#utility.yul\":9521:9524   */\n      dup4\n        /* \"#utility.yul\":9517:9533   */\n      add\n        /* \"#utility.yul\":9510:9537   */\n      mstore\n        /* \"#utility.yul\":9405:9544   */\n      pop\n      pop\n      pop\n      jump\t// out\n        /* \"#utility.yul\":9550:9936   */\n    tag_128:\n        /* \"#utility.yul\":9654:9657   */\n      0x00\n        /* \"#utility.yul\":9682:9720   */\n      tag_237\n        /* \"#utility.yul\":9714:9719   */\n      dup3\n        /* \"#utility.yul\":9682:9720   */\n      tag_125\n      jump\t// in\n    tag_237:\n        /* \"#utility.yul\":9736:9824   */\n      tag_238\n        /* \"#utility.yul\":9817:9823   */\n      dup2\n        /* \"#utility.yul\":9812:9815   */\n      dup6\n        /* \"#utility.yul\":9736:9824   */\n      tag_126\n      jump\t// in\n    tag_238:\n        /* \"#utility.yul\":9729:9824   */\n      swap4\n      pop\n        /* \"#utility.yul\":9833:9898   */\n      tag_239\n        /* \"#utility.yul\":9891:9897   */\n      dup2\n        /* \"#utility.yul\":9886:9889   */\n      dup6\n        /* \"#utility.yul\":9879:9883   */\n      0x20\n        /* \"#utility.yul\":9872:9877   */\n      dup7\n        /* \"#utility.yul\":9868:9884   */\n      add\n        /* \"#utility.yul\":9833:9898   */\n      tag_127\n      jump\t// in\n    tag_239:\n        /* \"#utility.yul\":9923:9929   */\n      dup1\n        /* \"#utility.yul\":9918:9921   */\n      dup5\n        /* \"#utility.yul\":9914:9930   */\n      add\n        /* \"#utility.yul\":9907:9930   */\n      swap2\n      pop\n        /* \"#utility.yul\":9658:9936   */\n      pop\n        /* \"#utility.yul\":9550:9936   */\n      swap3\n      swap2\n      pop\n      pop\n      jump\t// out\n        /* \"#utility.yul\":9942:10213   */\n    tag_80:\n        /* \"#utility.yul\":10072:10075   */\n      0x00\n        /* \"#utility.yul\":10094:10187   */\n      tag_241\n        /* \"#utility.yul\":10183:10186   */\n      dup3\n        /* \"#utility.yul\":10174:10180   */\n      dup5\n        /* \"#utility.yul\":10094:10187   */\n      tag_128\n      jump\t// in\n    tag_241:\n        /* \"#utility.yul\":10087:10187   */\n      swap2\n      pop\n        /* \"#utility.yul\":10204:10207   */\n      dup2\n        /* \"#utility.yul\":10197:10207   */\n      swap1\n      pop\n        /* \"#utility.yul\":9942:10213   */\n      swap3\n      swap2\n      pop\n      pop\n      jump\t// out\n\n    auxdata: 0xa2646970667358221220450fd2787f40d82c5e864edd7f813d54e5d49715baec457f027e670e5d64f6e864736f6c63430008190033\n}\n",
				"bytecode": {
					"linkReferences": {},
					"object": "60a060405234801561000f575f80fd5b50604051610e23380380610e2383398181016040528101906100319190610109565b8073ffffffffffffffffffffffffffffffffffffffff1660808173ffffffffffffffffffffffffffffffffffffffff16815250503360015f6101000a81548173ffffffffffffffffffffffffffffffffffffffff021916908373ffffffffffffffffffffffffffffffffffffffff16021790555050610134565b5f80fd5b5f73ffffffffffffffffffffffffffffffffffffffff82169050919050565b5f6100d8826100af565b9050919050565b6100e8816100ce565b81146100f2575f80fd5b50565b5f81519050610103816100df565b92915050565b5f6020828403121561011e5761011d6100ab565b5b5f61012b848285016100f5565b91505092915050565b608051610cb461016f5f395f8181610143015281816101af015281816102e1015281816103a20152818161044301526104970152610cb45ff3fe608060405234801561000f575f80fd5b5060043610610060575f3560e01c80633ccfd60b1461006457806347e7ef241461006e5780638f7b1bca1461008a578063cb13cddb146100a6578063e5225381146100d6578063fc0c546a146100e0575b5f80fd5b61006c6100fe565b005b6100886004803603810190610083919061080d565b6101ad565b005b6100a4600480360381019061009f91906108b4565b6102df565b005b6100c060048036038101906100bb919061093d565b610383565b6040516100cd9190610977565b60405180910390f35b6100de610397565b005b6100e8610495565b6040516100f5919061099f565b60405180910390f35b5f805f3373ffffffffffffffffffffffffffffffffffffffff1673ffffffffffffffffffffffffffffffffffffffff1681526020019081526020015f205490506101697f000000000000000000000000000000000000000000000000000000000000000033836104b9565b5f805f3373ffffffffffffffffffffffffffffffffffffffff1673ffffffffffffffffffffffffffffffffffffffff1681526020019081526020015f208190555050565b7f000000000000000000000000000000000000000000000000000000000000000073ffffffffffffffffffffffffffffffffffffffff166323b872dd3330846040518463ffffffff1660e01b815260040161020a939291906109b8565b6020604051808303815f875af1158015610226573d5f803e3d5ffd5b505050506040513d601f19601f8201168201806040525081019061024a9190610a22565b610289576040517f08c379a000000000000000000000000000000000000000000000000000000000815260040161028090610aa7565b60405180910390fd5b805f808473ffffffffffffffffffffffffffffffffffffffff1673ffffffffffffffffffffffffffffffffffffffff1681526020019081526020015f205f8282546102d49190610af2565b925050819055505050565b7f000000000000000000000000000000000000000000000000000000000000000073ffffffffffffffffffffffffffffffffffffffff1663d505accf333088888888886040518863ffffffff1660e01b81526004016103449796959493929190610b43565b5f604051808303815f87803b15801561035b575f80fd5b505af115801561036d573d5f803e3d5ffd5b5050505061037b86866101ad565b505050505050565b5f602052805f5260405f205f915090505481565b674563918244f400007f000000000000000000000000000000000000000000000000000000000000000073ffffffffffffffffffffffffffffffffffffffff166370a08231306040518263ffffffff1660e01b81526004016103f9919061099f565b602060405180830381865afa158015610414573d5f803e3d5ffd5b505050506040513d601f19601f820116820180604052508101906104389190610bc4565b1115610493576104927f000000000000000000000000000000000000000000000000000000000000000060015f9054906101000a900473ffffffffffffffffffffffffffffffffffffffff16674563918244f400006104b9565b5b565b7f000000000000000000000000000000000000000000000000000000000000000081565b610533838473ffffffffffffffffffffffffffffffffffffffff1663a9059cbb85856040516024016104ec929190610bef565b604051602081830303815290604052915060e01b6020820180517bffffffffffffffffffffffffffffffffffffffffffffffffffffffff8381831617835250505050610538565b505050565b5f610562828473ffffffffffffffffffffffffffffffffffffffff166105cd90919063ffffffff16565b90505f8151141580156105865750808060200190518101906105849190610a22565b155b156105c857826040517f5274afe70000000000000000000000000000000000000000000000000000000081526004016105bf919061099f565b60405180910390fd5b505050565b60606105da83835f6105e2565b905092915050565b60608147101561062957306040517fcd786059000000000000000000000000000000000000000000000000000000008152600401610620919061099f565b60405180910390fd5b5f808573ffffffffffffffffffffffffffffffffffffffff1684866040516106519190610c68565b5f6040518083038185875af1925050503d805f811461068b576040519150601f19603f3d011682016040523d82523d5f602084013e610690565b606091505b50915091506106a08683836106ab565b925050509392505050565b6060826106c0576106bb82610738565b610730565b5f82511480156106e657505f8473ffffffffffffffffffffffffffffffffffffffff163b145b1561072857836040517f9996b31500000000000000000000000000000000000000000000000000000000815260040161071f919061099f565b60405180910390fd5b819050610731565b5b9392505050565b5f8151111561074a5780518082602001fd5b6040517f1425ea4200000000000000000000000000000000000000000000000000000000815260040160405180910390fd5b5f80fd5b5f73ffffffffffffffffffffffffffffffffffffffff82169050919050565b5f6107a982610780565b9050919050565b6107b98161079f565b81146107c3575f80fd5b50565b5f813590506107d4816107b0565b92915050565b5f819050919050565b6107ec816107da565b81146107f6575f80fd5b50565b5f81359050610807816107e3565b92915050565b5f80604083850312156108235761082261077c565b5b5f610830858286016107c6565b9250506020610841858286016107f9565b9150509250929050565b5f60ff82169050919050565b6108608161084b565b811461086a575f80fd5b50565b5f8135905061087b81610857565b92915050565b5f819050919050565b61089381610881565b811461089d575f80fd5b50565b5f813590506108ae8161088a565b92915050565b5f805f805f8060c087890312156108ce576108cd61077c565b5b5f6108db89828a016107c6565b96505060206108ec89828a016107f9565b95505060406108fd89828a016107f9565b945050606061090e89828a0161086d565b935050608061091f89828a016108a0565b92505060a061093089828a016108a0565b9150509295509295509295565b5f602082840312156109525761095161077c565b5b5f61095f848285016107c6565b91505092915050565b610971816107da565b82525050565b5f60208201905061098a5f830184610968565b92915050565b6109998161079f565b82525050565b5f6020820190506109b25f830184610990565b92915050565b5f6060820190506109cb5f830186610990565b6109d86020830185610990565b6109e56040830184610968565b949350505050565b5f8115159050919050565b610a01816109ed565b8114610a0b575f80fd5b50565b5f81519050610a1c816109f8565b92915050565b5f60208284031215610a3757610a3661077c565b5b5f610a4484828501610a0e565b91505092915050565b5f82825260208201905092915050565b7f5472616e736665722066726f6d206572726f72000000000000000000000000005f82015250565b5f610a91601383610a4d565b9150610a9c82610a5d565b602082019050919050565b5f6020820190508181035f830152610abe81610a85565b9050919050565b7f4e487b71000000000000000000000000000000000000000000000000000000005f52601160045260245ffd5b5f610afc826107da565b9150610b07836107da565b9250828201905080821115610b1f57610b1e610ac5565b5b92915050565b610b2e8161084b565b82525050565b610b3d81610881565b82525050565b5f60e082019050610b565f83018a610990565b610b636020830189610990565b610b706040830188610968565b610b7d6060830187610968565b610b8a6080830186610b25565b610b9760a0830185610b34565b610ba460c0830184610b34565b98975050505050505050565b5f81519050610bbe816107e3565b92915050565b5f60208284031215610bd957610bd861077c565b5b5f610be684828501610bb0565b91505092915050565b5f604082019050610c025f830185610990565b610c0f6020830184610968565b9392505050565b5f81519050919050565b5f81905092915050565b8281835e5f83830152505050565b5f610c4282610c16565b610c4c8185610c20565b9350610c5c818560208601610c2a565b80840191505092915050565b5f610c738284610c38565b91508190509291505056fea2646970667358221220450fd2787f40d82c5e864edd7f813d54e5d49715baec457f027e670e5d64f6e864736f6c63430008190033",
					"opcodes": "PUSH1 0xA0 PUSH1 0x40 MSTORE CALLVALUE DUP1 ISZERO PUSH2 0xF JUMPI PUSH0 DUP1 REVERT JUMPDEST POP PUSH1 0x40 MLOAD PUSH2 0xE23 CODESIZE SUB DUP1 PUSH2 0xE23 DUP4 CODECOPY DUP2 DUP2 ADD PUSH1 0x40 MSTORE DUP2 ADD SWAP1 PUSH2 0x31 SWAP2 SWAP1 PUSH2 0x109 JUMP JUMPDEST DUP1 PUSH20 0xFFFFFFFFFFFFFFFFFFFFFFFFFFFFFFFFFFFFFFFF AND PUSH1 0x80 DUP2 PUSH20 0xFFFFFFFFFFFFFFFFFFFFFFFFFFFFFFFFFFFFFFFF AND DUP2 MSTORE POP POP CALLER PUSH1 0x1 PUSH0 PUSH2 0x100 EXP DUP2 SLOAD DUP2 PUSH20 0xFFFFFFFFFFFFFFFFFFFFFFFFFFFFFFFFFFFFFFFF MUL NOT AND SWAP1 DUP4 PUSH20 0xFFFFFFFFFFFFFFFFFFFFFFFFFFFFFFFFFFFFFFFF AND MUL OR SWAP1 SSTORE POP POP PUSH2 0x134 JUMP JUMPDEST PUSH0 DUP1 REVERT JUMPDEST PUSH0 PUSH20 0xFFFFFFFFFFFFFFFFFFFFFFFFFFFFFFFFFFFFFFFF DUP3 AND SWAP1 POP SWAP2 SWAP1 POP JUMP JUMPDEST PUSH0 PUSH2 0xD8 DUP3 PUSH2 0xAF JUMP JUMPDEST SWAP1 POP SWAP2 SWAP1 POP JUMP JUMPDEST PUSH2 0xE8 DUP2 PUSH2 0xCE JUMP JUMPDEST DUP2 EQ PUSH2 0xF2 JUMPI PUSH0 DUP1 REVERT JUMPDEST POP JUMP JUMPDEST PUSH0 DUP2 MLOAD SWAP1 POP PUSH2 0x103 DUP2 PUSH2 0xDF JUMP JUMPDEST SWAP3 SWAP2 POP POP JUMP JUMPDEST PUSH0 PUSH1 0x20 DUP3 DUP5 SUB SLT ISZERO PUSH2 0x11E JUMPI PUSH2 0x11D PUSH2 0xAB JUMP JUMPDEST JUMPDEST PUSH0 PUSH2 0x12B DUP5 DUP3 DUP6 ADD PUSH2 0xF5 JUMP JUMPDEST SWAP2 POP POP SWAP3 SWAP2 POP POP JUMP JUMPDEST PUSH1 0x80 MLOAD PUSH2 0xCB4 PUSH2 0x16F PUSH0 CODECOPY PUSH0 DUP2 DUP2 PUSH2 0x143 ADD MSTORE DUP2 DUP2 PUSH2 0x1AF ADD MSTORE DUP2 DUP2 PUSH2 0x2E1 ADD MSTORE DUP2 DUP2 PUSH2 0x3A2 ADD MSTORE DUP2 DUP2 PUSH2 0x443 ADD MSTORE PUSH2 0x497 ADD MSTORE PUSH2 0xCB4 PUSH0 RETURN INVALID PUSH1 0x80 PUSH1 0x40 MSTORE CALLVALUE DUP1 ISZERO PUSH2 0xF JUMPI PUSH0 DUP1 REVERT JUMPDEST POP PUSH1 0x4 CALLDATASIZE LT PUSH2 0x60 JUMPI PUSH0 CALLDATALOAD PUSH1 0xE0 SHR DUP1 PUSH4 0x3CCFD60B EQ PUSH2 0x64 JUMPI DUP1 PUSH4 0x47E7EF24 EQ PUSH2 0x6E JUMPI DUP1 PUSH4 0x8F7B1BCA EQ PUSH2 0x8A JUMPI DUP1 PUSH4 0xCB13CDDB EQ PUSH2 0xA6 JUMPI DUP1 PUSH4 0xE5225381 EQ PUSH2 0xD6 JUMPI DUP1 PUSH4 0xFC0C546A EQ PUSH2 0xE0 JUMPI JUMPDEST PUSH0 DUP1 REVERT JUMPDEST PUSH2 0x6C PUSH2 0xFE JUMP JUMPDEST STOP JUMPDEST PUSH2 0x88 PUSH1 0x4 DUP1 CALLDATASIZE SUB DUP2 ADD SWAP1 PUSH2 0x83 SWAP2 SWAP1 PUSH2 0x80D JUMP JUMPDEST PUSH2 0x1AD JUMP JUMPDEST STOP JUMPDEST PUSH2 0xA4 PUSH1 0x4 DUP1 CALLDATASIZE SUB DUP2 ADD SWAP1 PUSH2 0x9F SWAP2 SWAP1 PUSH2 0x8B4 JUMP JUMPDEST PUSH2 0x2DF JUMP JUMPDEST STOP JUMPDEST PUSH2 0xC0 PUSH1 0x4 DUP1 CALLDATASIZE SUB DUP2 ADD SWAP1 PUSH2 0xBB SWAP2 SWAP1 PUSH2 0x93D JUMP JUMPDEST PUSH2 0x383 JUMP JUMPDEST PUSH1 0x40 MLOAD PUSH2 0xCD SWAP2 SWAP1 PUSH2 0x977 JUMP JUMPDEST PUSH1 0x40 MLOAD DUP1 SWAP2 SUB SWAP1 RETURN JUMPDEST PUSH2 0xDE PUSH2 0x397 JUMP JUMPDEST STOP JUMPDEST PUSH2 0xE8 PUSH2 0x495 JUMP JUMPDEST PUSH1 0x40 MLOAD PUSH2 0xF5 SWAP2 SWAP1 PUSH2 0x99F JUMP JUMPDEST PUSH1 0x40 MLOAD DUP1 SWAP2 SUB SWAP1 RETURN JUMPDEST PUSH0 DUP1 PUSH0 CALLER PUSH20 0xFFFFFFFFFFFFFFFFFFFFFFFFFFFFFFFFFFFFFFFF AND PUSH20 0xFFFFFFFFFFFFFFFFFFFFFFFFFFFFFFFFFFFFFFFF AND DUP2 MSTORE PUSH1 0x20 ADD SWAP1 DUP2 MSTORE PUSH1 0x20 ADD PUSH0 KECCAK256 SLOAD SWAP1 POP PUSH2 0x169 PUSH32 0x0 CALLER DUP4 PUSH2 0x4B9 JUMP JUMPDEST PUSH0 DUP1 PUSH0 CALLER PUSH20 0xFFFFFFFFFFFFFFFFFFFFFFFFFFFFFFFFFFFFFFFF AND PUSH20 0xFFFFFFFFFFFFFFFFFFFFFFFFFFFFFFFFFFFFFFFF AND DUP2 MSTORE PUSH1 0x20 ADD SWAP1 DUP2 MSTORE PUSH1 0x20 ADD PUSH0 KECCAK256 DUP2 SWAP1 SSTORE POP POP JUMP JUMPDEST PUSH32 0x0 PUSH20 0xFFFFFFFFFFFFFFFFFFFFFFFFFFFFFFFFFFFFFFFF AND PUSH4 0x23B872DD CALLER ADDRESS DUP5 PUSH1 0x40 MLOAD DUP5 PUSH4 0xFFFFFFFF AND PUSH1 0xE0 SHL DUP2 MSTORE PUSH1 0x4 ADD PUSH2 0x20A SWAP4 SWAP3 SWAP2 SWAP1 PUSH2 0x9B8 JUMP JUMPDEST PUSH1 0x20 PUSH1 0x40 MLOAD DUP1 DUP4 SUB DUP2 PUSH0 DUP8 GAS CALL ISZERO DUP1 ISZERO PUSH2 0x226 JUMPI RETURNDATASIZE PUSH0 DUP1 RETURNDATACOPY RETURNDATASIZE PUSH0 REVERT JUMPDEST POP POP POP POP PUSH1 0x40 MLOAD RETURNDATASIZE PUSH1 0x1F NOT PUSH1 0x1F DUP3 ADD AND DUP3 ADD DUP1 PUSH1 0x40 MSTORE POP DUP2 ADD SWAP1 PUSH2 0x24A SWAP2 SWAP1 PUSH2 0xA22 JUMP JUMPDEST PUSH2 0x289 JUMPI PUSH1 0x40 MLOAD PUSH32 0x8C379A000000000000000000000000000000000000000000000000000000000 DUP2 MSTORE PUSH1 0x4 ADD PUSH2 0x280 SWAP1 PUSH2 0xAA7 JUMP JUMPDEST PUSH1 0x40 MLOAD DUP1 SWAP2 SUB SWAP1 REVERT JUMPDEST DUP1 PUSH0 DUP1 DUP5 PUSH20 0xFFFFFFFFFFFFFFFFFFFFFFFFFFFFFFFFFFFFFFFF AND PUSH20 0xFFFFFFFFFFFFFFFFFFFFFFFFFFFFFFFFFFFFFFFF AND DUP2 MSTORE PUSH1 0x20 ADD SWAP1 DUP2 MSTORE PUSH1 0x20 ADD PUSH0 KECCAK256 PUSH0 DUP3 DUP3 SLOAD PUSH2 0x2D4 SWAP2 SWAP1 PUSH2 0xAF2 JUMP JUMPDEST SWAP3 POP POP DUP2 SWAP1 SSTORE POP POP POP JUMP JUMPDEST PUSH32 0x0 PUSH20 0xFFFFFFFFFFFFFFFFFFFFFFFFFFFFFFFFFFFFFFFF AND PUSH4 0xD505ACCF CALLER ADDRESS DUP9 DUP9 DUP9 DUP9 DUP9 PUSH1 0x40 MLOAD DUP9 PUSH4 0xFFFFFFFF AND PUSH1 0xE0 SHL DUP2 MSTORE PUSH1 0x4 ADD PUSH2 0x344 SWAP8 SWAP7 SWAP6 SWAP5 SWAP4 SWAP3 SWAP2 SWAP1 PUSH2 0xB43 JUMP JUMPDEST PUSH0 PUSH1 0x40 MLOAD DUP1 DUP4 SUB DUP2 PUSH0 DUP8 DUP1 EXTCODESIZE ISZERO DUP1 ISZERO PUSH2 0x35B JUMPI PUSH0 DUP1 REVERT JUMPDEST POP GAS CALL ISZERO DUP1 ISZERO PUSH2 0x36D JUMPI RETURNDATASIZE PUSH0 DUP1 RETURNDATACOPY RETURNDATASIZE PUSH0 REVERT JUMPDEST POP POP POP POP PUSH2 0x37B DUP7 DUP7 PUSH2 0x1AD JUMP JUMPDEST POP POP POP POP POP POP JUMP JUMPDEST PUSH0 PUSH1 0x20 MSTORE DUP1 PUSH0 MSTORE PUSH1 0x40 PUSH0 KECCAK256 PUSH0 SWAP2 POP SWAP1 POP SLOAD DUP2 JUMP JUMPDEST PUSH8 0x4563918244F40000 PUSH32 0x0 PUSH20 0xFFFFFFFFFFFFFFFFFFFFFFFFFFFFFFFFFFFFFFFF AND PUSH4 0x70A08231 ADDRESS PUSH1 0x40 MLOAD DUP3 PUSH4 0xFFFFFFFF AND PUSH1 0xE0 SHL DUP2 MSTORE PUSH1 0x4 ADD PUSH2 0x3F9 SWAP2 SWAP1 PUSH2 0x99F JUMP JUMPDEST PUSH1 0x20 PUSH1 0x40 MLOAD DUP1 DUP4 SUB DUP2 DUP7 GAS STATICCALL ISZERO DUP1 ISZERO PUSH2 0x414 JUMPI RETURNDATASIZE PUSH0 DUP1 RETURNDATACOPY RETURNDATASIZE PUSH0 REVERT JUMPDEST POP POP POP POP PUSH1 0x40 MLOAD RETURNDATASIZE PUSH1 0x1F NOT PUSH1 0x1F DUP3 ADD AND DUP3 ADD DUP1 PUSH1 0x40 MSTORE POP DUP2 ADD SWAP1 PUSH2 0x438 SWAP2 SWAP1 PUSH2 0xBC4 JUMP JUMPDEST GT ISZERO PUSH2 0x493 JUMPI PUSH2 0x492 PUSH32 0x0 PUSH1 0x1 PUSH0 SWAP1 SLOAD SWAP1 PUSH2 0x100 EXP SWAP1 DIV PUSH20 0xFFFFFFFFFFFFFFFFFFFFFFFFFFFFFFFFFFFFFFFF AND PUSH8 0x4563918244F40000 PUSH2 0x4B9 JUMP JUMPDEST JUMPDEST JUMP JUMPDEST PUSH32 0x0 DUP2 JUMP JUMPDEST PUSH2 0x533 DUP4 DUP5 PUSH20 0xFFFFFFFFFFFFFFFFFFFFFFFFFFFFFFFFFFFFFFFF AND PUSH4 0xA9059CBB DUP6 DUP6 PUSH1 0x40 MLOAD PUSH1 0x24 ADD PUSH2 0x4EC SWAP3 SWAP2 SWAP1 PUSH2 0xBEF JUMP JUMPDEST PUSH1 0x40 MLOAD PUSH1 0x20 DUP2 DUP4 SUB SUB DUP2 MSTORE SWAP1 PUSH1 0x40 MSTORE SWAP2 POP PUSH1 0xE0 SHL PUSH1 0x20 DUP3 ADD DUP1 MLOAD PUSH28 0xFFFFFFFFFFFFFFFFFFFFFFFFFFFFFFFFFFFFFFFFFFFFFFFFFFFFFFFF DUP4 DUP2 DUP4 AND OR DUP4 MSTORE POP POP POP POP PUSH2 0x538 JUMP JUMPDEST POP POP POP JUMP JUMPDEST PUSH0 PUSH2 0x562 DUP3 DUP5 PUSH20 0xFFFFFFFFFFFFFFFFFFFFFFFFFFFFFFFFFFFFFFFF AND PUSH2 0x5CD SWAP1 SWAP2 SWAP1 PUSH4 0xFFFFFFFF AND JUMP JUMPDEST SWAP1 POP PUSH0 DUP2 MLOAD EQ ISZERO DUP1 ISZERO PUSH2 0x586 JUMPI POP DUP1 DUP1 PUSH1 0x20 ADD SWAP1 MLOAD DUP2 ADD SWAP1 PUSH2 0x584 SWAP2 SWAP1 PUSH2 0xA22 JUMP JUMPDEST ISZERO JUMPDEST ISZERO PUSH2 0x5C8 JUMPI DUP3 PUSH1 0x40 MLOAD PUSH32 0x5274AFE700000000000000000000000000000000000000000000000000000000 DUP2 MSTORE PUSH1 0x4 ADD PUSH2 0x5BF SWAP2 SWAP1 PUSH2 0x99F JUMP JUMPDEST PUSH1 0x40 MLOAD DUP1 SWAP2 SUB SWAP1 REVERT JUMPDEST POP POP POP JUMP JUMPDEST PUSH1 0x60 PUSH2 0x5DA DUP4 DUP4 PUSH0 PUSH2 0x5E2 JUMP JUMPDEST SWAP1 POP SWAP3 SWAP2 POP POP JUMP JUMPDEST PUSH1 0x60 DUP2 SELFBALANCE LT ISZERO PUSH2 0x629 JUMPI ADDRESS PUSH1 0x40 MLOAD PUSH32 0xCD78605900000000000000000000000000000000000000000000000000000000 DUP2 MSTORE PUSH1 0x4 ADD PUSH2 0x620 SWAP2 SWAP1 PUSH2 0x99F JUMP JUMPDEST PUSH1 0x40 MLOAD DUP1 SWAP2 SUB SWAP1 REVERT JUMPDEST PUSH0 DUP1 DUP6 PUSH20 0xFFFFFFFFFFFFFFFFFFFFFFFFFFFFFFFFFFFFFFFF AND DUP5 DUP7 PUSH1 0x40 MLOAD PUSH2 0x651 SWAP2 SWAP1 PUSH2 0xC68 JUMP JUMPDEST PUSH0 PUSH1 0x40 MLOAD DUP1 DUP4 SUB DUP2 DUP6 DUP8 GAS CALL SWAP3 POP POP POP RETURNDATASIZE DUP1 PUSH0 DUP2 EQ PUSH2 0x68B JUMPI PUSH1 0x40 MLOAD SWAP2 POP PUSH1 0x1F NOT PUSH1 0x3F RETURNDATASIZE ADD AND DUP3 ADD PUSH1 0x40 MSTORE RETURNDATASIZE DUP3 MSTORE RETURNDATASIZE PUSH0 PUSH1 0x20 DUP5 ADD RETURNDATACOPY PUSH2 0x690 JUMP JUMPDEST PUSH1 0x60 SWAP2 POP JUMPDEST POP SWAP2 POP SWAP2 POP PUSH2 0x6A0 DUP7 DUP4 DUP4 PUSH2 0x6AB JUMP JUMPDEST SWAP3 POP POP POP SWAP4 SWAP3 POP POP POP JUMP JUMPDEST PUSH1 0x60 DUP3 PUSH2 0x6C0 JUMPI PUSH2 0x6BB DUP3 PUSH2 0x738 JUMP JUMPDEST PUSH2 0x730 JUMP JUMPDEST PUSH0 DUP3 MLOAD EQ DUP1 ISZERO PUSH2 0x6E6 JUMPI POP PUSH0 DUP5 PUSH20 0xFFFFFFFFFFFFFFFFFFFFFFFFFFFFFFFFFFFFFFFF AND EXTCODESIZE EQ JUMPDEST ISZERO PUSH2 0x728 JUMPI DUP4 PUSH1 0x40 MLOAD PUSH32 0x9996B31500000000000000000000000000000000000000000000000000000000 DUP2 MSTORE PUSH1 0x4 ADD PUSH2 0x71F SWAP2 SWAP1 PUSH2 0x99F JUMP JUMPDEST PUSH1 0x40 MLOAD DUP1 SWAP2 SUB SWAP1 REVERT JUMPDEST DUP2 SWAP1 POP PUSH2 0x731 JUMP JUMPDEST JUMPDEST SWAP4 SWAP3 POP POP POP JUMP JUMPDEST PUSH0 DUP2 MLOAD GT ISZERO PUSH2 0x74A JUMPI DUP1 MLOAD DUP1 DUP3 PUSH1 0x20 ADD REVERT JUMPDEST PUSH1 0x40 MLOAD PUSH32 0x1425EA4200000000000000000000000000000000000000000000000000000000 DUP2 MSTORE PUSH1 0x4 ADD PUSH1 0x40 MLOAD DUP1 SWAP2 SUB SWAP1 REVERT JUMPDEST PUSH0 DUP1 REVERT JUMPDEST PUSH0 PUSH20 0xFFFFFFFFFFFFFFFFFFFFFFFFFFFFFFFFFFFFFFFF DUP3 AND SWAP1 POP SWAP2 SWAP1 POP JUMP JUMPDEST PUSH0 PUSH2 0x7A9 DUP3 PUSH2 0x780 JUMP JUMPDEST SWAP1 POP SWAP2 SWAP1 POP JUMP JUMPDEST PUSH2 0x7B9 DUP2 PUSH2 0x79F JUMP JUMPDEST DUP2 EQ PUSH2 0x7C3 JUMPI PUSH0 DUP1 REVERT JUMPDEST POP JUMP JUMPDEST PUSH0 DUP2 CALLDATALOAD SWAP1 POP PUSH2 0x7D4 DUP2 PUSH2 0x7B0 JUMP JUMPDEST SWAP3 SWAP2 POP POP JUMP JUMPDEST PUSH0 DUP2 SWAP1 POP SWAP2 SWAP1 POP JUMP JUMPDEST PUSH2 0x7EC DUP2 PUSH2 0x7DA JUMP JUMPDEST DUP2 EQ PUSH2 0x7F6 JUMPI PUSH0 DUP1 REVERT JUMPDEST POP JUMP JUMPDEST PUSH0 DUP2 CALLDATALOAD SWAP1 POP PUSH2 0x807 DUP2 PUSH2 0x7E3 JUMP JUMPDEST SWAP3 SWAP2 POP POP JUMP JUMPDEST PUSH0 DUP1 PUSH1 0x40 DUP4 DUP6 SUB SLT ISZERO PUSH2 0x823 JUMPI PUSH2 0x822 PUSH2 0x77C JUMP JUMPDEST JUMPDEST PUSH0 PUSH2 0x830 DUP6 DUP3 DUP7 ADD PUSH2 0x7C6 JUMP JUMPDEST SWAP3 POP POP PUSH1 0x20 PUSH2 0x841 DUP6 DUP3 DUP7 ADD PUSH2 0x7F9 JUMP JUMPDEST SWAP2 POP POP SWAP3 POP SWAP3 SWAP1 POP JUMP JUMPDEST PUSH0 PUSH1 0xFF DUP3 AND SWAP1 POP SWAP2 SWAP1 POP JUMP JUMPDEST PUSH2 0x860 DUP2 PUSH2 0x84B JUMP JUMPDEST DUP2 EQ PUSH2 0x86A JUMPI PUSH0 DUP1 REVERT JUMPDEST POP JUMP JUMPDEST PUSH0 DUP2 CALLDATALOAD SWAP1 POP PUSH2 0x87B DUP2 PUSH2 0x857 JUMP JUMPDEST SWAP3 SWAP2 POP POP JUMP JUMPDEST PUSH0 DUP2 SWAP1 POP SWAP2 SWAP1 POP JUMP JUMPDEST PUSH2 0x893 DUP2 PUSH2 0x881 JUMP JUMPDEST DUP2 EQ PUSH2 0x89D JUMPI PUSH0 DUP1 REVERT JUMPDEST POP JUMP JUMPDEST PUSH0 DUP2 CALLDATALOAD SWAP1 POP PUSH2 0x8AE DUP2 PUSH2 0x88A JUMP JUMPDEST SWAP3 SWAP2 POP POP JUMP JUMPDEST PUSH0 DUP1 PUSH0 DUP1 PUSH0 DUP1 PUSH1 0xC0 DUP8 DUP10 SUB SLT ISZERO PUSH2 0x8CE JUMPI PUSH2 0x8CD PUSH2 0x77C JUMP JUMPDEST JUMPDEST PUSH0 PUSH2 0x8DB DUP10 DUP3 DUP11 ADD PUSH2 0x7C6 JUMP JUMPDEST SWAP7 POP POP PUSH1 0x20 PUSH2 0x8EC DUP10 DUP3 DUP11 ADD PUSH2 0x7F9 JUMP JUMPDEST SWAP6 POP POP PUSH1 0x40 PUSH2 0x8FD DUP10 DUP3 DUP11 ADD PUSH2 0x7F9 JUMP JUMPDEST SWAP5 POP POP PUSH1 0x60 PUSH2 0x90E DUP10 DUP3 DUP11 ADD PUSH2 0x86D JUMP JUMPDEST SWAP4 POP POP PUSH1 0x80 PUSH2 0x91F DUP10 DUP3 DUP11 ADD PUSH2 0x8A0 JUMP JUMPDEST SWAP3 POP POP PUSH1 0xA0 PUSH2 0x930 DUP10 DUP3 DUP11 ADD PUSH2 0x8A0 JUMP JUMPDEST SWAP2 POP POP SWAP3 SWAP6 POP SWAP3 SWAP6 POP SWAP3 SWAP6 JUMP JUMPDEST PUSH0 PUSH1 0x20 DUP3 DUP5 SUB SLT ISZERO PUSH2 0x952 JUMPI PUSH2 0x951 PUSH2 0x77C JUMP JUMPDEST JUMPDEST PUSH0 PUSH2 0x95F DUP5 DUP3 DUP6 ADD PUSH2 0x7C6 JUMP JUMPDEST SWAP2 POP POP SWAP3 SWAP2 POP POP JUMP JUMPDEST PUSH2 0x971 DUP2 PUSH2 0x7DA JUMP JUMPDEST DUP3 MSTORE POP POP JUMP JUMPDEST PUSH0 PUSH1 0x20 DUP3 ADD SWAP1 POP PUSH2 0x98A PUSH0 DUP4 ADD DUP5 PUSH2 0x968 JUMP JUMPDEST SWAP3 SWAP2 POP POP JUMP JUMPDEST PUSH2 0x999 DUP2 PUSH2 0x79F JUMP JUMPDEST DUP3 MSTORE POP POP JUMP JUMPDEST PUSH0 PUSH1 0x20 DUP3 ADD SWAP1 POP PUSH2 0x9B2 PUSH0 DUP4 ADD DUP5 PUSH2 0x990 JUMP JUMPDEST SWAP3 SWAP2 POP POP JUMP JUMPDEST PUSH0 PUSH1 0x60 DUP3 ADD SWAP1 POP PUSH2 0x9CB PUSH0 DUP4 ADD DUP7 PUSH2 0x990 JUMP JUMPDEST PUSH2 0x9D8 PUSH1 0x20 DUP4 ADD DUP6 PUSH2 0x990 JUMP JUMPDEST PUSH2 0x9E5 PUSH1 0x40 DUP4 ADD DUP5 PUSH2 0x968 JUMP JUMPDEST SWAP5 SWAP4 POP POP POP POP JUMP JUMPDEST PUSH0 DUP2 ISZERO ISZERO SWAP1 POP SWAP2 SWAP1 POP JUMP JUMPDEST PUSH2 0xA01 DUP2 PUSH2 0x9ED JUMP JUMPDEST DUP2 EQ PUSH2 0xA0B JUMPI PUSH0 DUP1 REVERT JUMPDEST POP JUMP JUMPDEST PUSH0 DUP2 MLOAD SWAP1 POP PUSH2 0xA1C DUP2 PUSH2 0x9F8 JUMP JUMPDEST SWAP3 SWAP2 POP POP JUMP JUMPDEST PUSH0 PUSH1 0x20 DUP3 DUP5 SUB SLT ISZERO PUSH2 0xA37 JUMPI PUSH2 0xA36 PUSH2 0x77C JUMP JUMPDEST JUMPDEST PUSH0 PUSH2 0xA44 DUP5 DUP3 DUP6 ADD PUSH2 0xA0E JUMP JUMPDEST SWAP2 POP POP SWAP3 SWAP2 POP POP JUMP JUMPDEST PUSH0 DUP3 DUP3 MSTORE PUSH1 0x20 DUP3 ADD SWAP1 POP SWAP3 SWAP2 POP POP JUMP JUMPDEST PUSH32 0x5472616E736665722066726F6D206572726F7200000000000000000000000000 PUSH0 DUP3 ADD MSTORE POP JUMP JUMPDEST PUSH0 PUSH2 0xA91 PUSH1 0x13 DUP4 PUSH2 0xA4D JUMP JUMPDEST SWAP2 POP PUSH2 0xA9C DUP3 PUSH2 0xA5D JUMP JUMPDEST PUSH1 0x20 DUP3 ADD SWAP1 POP SWAP2 SWAP1 POP JUMP JUMPDEST PUSH0 PUSH1 0x20 DUP3 ADD SWAP1 POP DUP2 DUP2 SUB PUSH0 DUP4 ADD MSTORE PUSH2 0xABE DUP2 PUSH2 0xA85 JUMP JUMPDEST SWAP1 POP SWAP2 SWAP1 POP JUMP JUMPDEST PUSH32 0x4E487B7100000000000000000000000000000000000000000000000000000000 PUSH0 MSTORE PUSH1 0x11 PUSH1 0x4 MSTORE PUSH1 0x24 PUSH0 REVERT JUMPDEST PUSH0 PUSH2 0xAFC DUP3 PUSH2 0x7DA JUMP JUMPDEST SWAP2 POP PUSH2 0xB07 DUP4 PUSH2 0x7DA JUMP JUMPDEST SWAP3 POP DUP3 DUP3 ADD SWAP1 POP DUP1 DUP3 GT ISZERO PUSH2 0xB1F JUMPI PUSH2 0xB1E PUSH2 0xAC5 JUMP JUMPDEST JUMPDEST SWAP3 SWAP2 POP POP JUMP JUMPDEST PUSH2 0xB2E DUP2 PUSH2 0x84B JUMP JUMPDEST DUP3 MSTORE POP POP JUMP JUMPDEST PUSH2 0xB3D DUP2 PUSH2 0x881 JUMP JUMPDEST DUP3 MSTORE POP POP JUMP JUMPDEST PUSH0 PUSH1 0xE0 DUP3 ADD SWAP1 POP PUSH2 0xB56 PUSH0 DUP4 ADD DUP11 PUSH2 0x990 JUMP JUMPDEST PUSH2 0xB63 PUSH1 0x20 DUP4 ADD DUP10 PUSH2 0x990 JUMP JUMPDEST PUSH2 0xB70 PUSH1 0x40 DUP4 ADD DUP9 PUSH2 0x968 JUMP JUMPDEST PUSH2 0xB7D PUSH1 0x60 DUP4 ADD DUP8 PUSH2 0x968 JUMP JUMPDEST PUSH2 0xB8A PUSH1 0x80 DUP4 ADD DUP7 PUSH2 0xB25 JUMP JUMPDEST PUSH2 0xB97 PUSH1 0xA0 DUP4 ADD DUP6 PUSH2 0xB34 JUMP JUMPDEST PUSH2 0xBA4 PUSH1 0xC0 DUP4 ADD DUP5 PUSH2 0xB34 JUMP JUMPDEST SWAP9 SWAP8 POP POP POP POP POP POP POP POP JUMP JUMPDEST PUSH0 DUP2 MLOAD SWAP1 POP PUSH2 0xBBE DUP2 PUSH2 0x7E3 JUMP JUMPDEST SWAP3 SWAP2 POP POP JUMP JUMPDEST PUSH0 PUSH1 0x20 DUP3 DUP5 SUB SLT ISZERO PUSH2 0xBD9 JUMPI PUSH2 0xBD8 PUSH2 0x77C JUMP JUMPDEST JUMPDEST PUSH0 PUSH2 0xBE6 DUP5 DUP3 DUP6 ADD PUSH2 0xBB0 JUMP JUMPDEST SWAP2 POP POP SWAP3 SWAP2 POP POP JUMP JUMPDEST PUSH0 PUSH1 0x40 DUP3 ADD SWAP1 POP PUSH2 0xC02 PUSH0 DUP4 ADD DUP6 PUSH2 0x990 JUMP JUMPDEST PUSH2 0xC0F PUSH1 0x20 DUP4 ADD DUP5 PUSH2 0x968 JUMP JUMPDEST SWAP4 SWAP3 POP POP POP JUMP JUMPDEST PUSH0 DUP2 MLOAD SWAP1 POP SWAP2 SWAP1 POP JUMP JUMPDEST PUSH0 DUP2 SWAP1 POP SWAP3 SWAP2 POP POP JUMP JUMPDEST DUP3 DUP2 DUP4 MCOPY PUSH0 DUP4 DUP4 ADD MSTORE POP POP POP JUMP JUMPDEST PUSH0 PUSH2 0xC42 DUP3 PUSH2 0xC16 JUMP JUMPDEST PUSH2 0xC4C DUP2 DUP6 PUSH2 0xC20 JUMP JUMPDEST SWAP4 POP PUSH2 0xC5C DUP2 DUP6 PUSH1 0x20 DUP7 ADD PUSH2 0xC2A JUMP JUMPDEST DUP1 DUP5 ADD SWAP2 POP POP SWAP3 SWAP2 POP POP JUMP JUMPDEST PUSH0 PUSH2 0xC73 DUP3 DUP5 PUSH2 0xC38 JUMP JUMPDEST SWAP2 POP DUP2 SWAP1 POP SWAP3 SWAP2 POP POP JUMP INVALID LOG2 PUSH5 0x6970667358 0x22 SLT KECCAK256 GASLIMIT 0xF 0xD2 PUSH25 0x7F40D82C5E864EDD7F813D54E5D49715BAEC457F027E670E5D PUSH5 0xF6E864736F PUSH13 0x63430008190033000000000000 "
				},
				"gasEstimates": {
					"creation": {
						"codeDepositCost": "650400",
						"executionCost": "infinite",
						"totalCost": "infinite"
					},
					"external": {
						"collect()": "infinite",
						"deposit(address,uint256)": "infinite",
						"deposited(address)": "2845",
						"permitDeposit(address,uint256,uint256,uint8,bytes32,bytes32)": "infinite",
						"token()": "infinite",
						"withdraw()": "infinite"
					}
				},
				"methodIdentifiers": {
					"collect()": "e5225381",
					"deposit(address,uint256)": "47e7ef24",
					"deposited(address)": "cb13cddb",
					"permitDeposit(address,uint256,uint256,uint8,bytes32,bytes32)": "8f7b1bca",
					"token()": "fc0c546a",
					"withdraw()": "3ccfd60b"
				}
			},
			"storageLayout": {
				"storage": [
					{
						"astId": 665,
						"contract": "src/Bank.sol:Bank",
						"label": "deposited",
						"offset": 0,
						"slot": "0",
						"type": "t_mapping(t_address,t_uint256)"
					},
					{
						"astId": 669,
						"contract": "src/Bank.sol:Bank",
						"label": "owner",
						"offset": 0,
						"slot": "1",
						"type": "t_address"
					}
				],
				"types": {
					"t_address": {
						"encoding": "inplace",
						"label": "address",
						"numberOfBytes": "20"
					},
					"t_mapping(t_address,t_uint256)": {
						"encoding": "mapping",
						"key": "t_address",
						"label": "mapping(address => uint256)",
						"numberOfBytes": "32",
						"value": "t_uint256"
					},
					"t_uint256": {
						"encoding": "inplace",
						"label": "uint256",
						"numberOfBytes": "32"
					}
				}
			},
			"userdoc": {
				"kind": "user",
				"methods": {},
				"version": 1
			}
		}
	}
}